{
  "_format": "hh-sol-artifact-1",
  "contractName": "MyToken",
  "sourceName": "contracts/nft.sol",
  "abi": [
    {
      "inputs": [
        {
          "internalType": "string",
          "name": "_uri",
          "type": "string"
        }
      ],
      "stateMutability": "nonpayable",
      "type": "constructor"
    },
    {
      "inputs": [
        {
          "internalType": "address",
          "name": "sender",
          "type": "address"
        },
        {
          "internalType": "uint256",
          "name": "balance",
          "type": "uint256"
        },
        {
          "internalType": "uint256",
          "name": "needed",
          "type": "uint256"
        },
        {
          "internalType": "uint256",
          "name": "tokenId",
          "type": "uint256"
        }
      ],
      "name": "ERC1155InsufficientBalance",
      "type": "error"
    },
    {
      "inputs": [
        {
          "internalType": "address",
          "name": "approver",
          "type": "address"
        }
      ],
      "name": "ERC1155InvalidApprover",
      "type": "error"
    },
    {
      "inputs": [
        {
          "internalType": "uint256",
          "name": "idsLength",
          "type": "uint256"
        },
        {
          "internalType": "uint256",
          "name": "valuesLength",
          "type": "uint256"
        }
      ],
      "name": "ERC1155InvalidArrayLength",
      "type": "error"
    },
    {
      "inputs": [
        {
          "internalType": "address",
          "name": "operator",
          "type": "address"
        }
      ],
      "name": "ERC1155InvalidOperator",
      "type": "error"
    },
    {
      "inputs": [
        {
          "internalType": "address",
          "name": "receiver",
          "type": "address"
        }
      ],
      "name": "ERC1155InvalidReceiver",
      "type": "error"
    },
    {
      "inputs": [
        {
          "internalType": "address",
          "name": "sender",
          "type": "address"
        }
      ],
      "name": "ERC1155InvalidSender",
      "type": "error"
    },
    {
      "inputs": [
        {
          "internalType": "address",
          "name": "operator",
          "type": "address"
        },
        {
          "internalType": "address",
          "name": "owner",
          "type": "address"
        }
      ],
      "name": "ERC1155MissingApprovalForAll",
      "type": "error"
    },
    {
      "inputs": [
        {
          "internalType": "address",
          "name": "owner",
          "type": "address"
        }
      ],
      "name": "OwnableInvalidOwner",
      "type": "error"
    },
    {
      "inputs": [
        {
          "internalType": "address",
          "name": "account",
          "type": "address"
        }
      ],
      "name": "OwnableUnauthorizedAccount",
      "type": "error"
    },
    {
      "anonymous": false,
      "inputs": [
        {
          "indexed": true,
          "internalType": "address",
          "name": "account",
          "type": "address"
        },
        {
          "indexed": true,
          "internalType": "address",
          "name": "operator",
          "type": "address"
        },
        {
          "indexed": false,
          "internalType": "bool",
          "name": "approved",
          "type": "bool"
        }
      ],
      "name": "ApprovalForAll",
      "type": "event"
    },
    {
      "anonymous": false,
      "inputs": [
        {
          "indexed": true,
          "internalType": "address",
          "name": "previousOwner",
          "type": "address"
        },
        {
          "indexed": true,
          "internalType": "address",
          "name": "newOwner",
          "type": "address"
        }
      ],
      "name": "OwnershipTransferred",
      "type": "event"
    },
    {
      "anonymous": false,
      "inputs": [
        {
          "indexed": true,
          "internalType": "address",
          "name": "operator",
          "type": "address"
        },
        {
          "indexed": true,
          "internalType": "address",
          "name": "from",
          "type": "address"
        },
        {
          "indexed": true,
          "internalType": "address",
          "name": "to",
          "type": "address"
        },
        {
          "indexed": false,
          "internalType": "uint256[]",
          "name": "ids",
          "type": "uint256[]"
        },
        {
          "indexed": false,
          "internalType": "uint256[]",
          "name": "values",
          "type": "uint256[]"
        }
      ],
      "name": "TransferBatch",
      "type": "event"
    },
    {
      "anonymous": false,
      "inputs": [
        {
          "indexed": true,
          "internalType": "address",
          "name": "operator",
          "type": "address"
        },
        {
          "indexed": true,
          "internalType": "address",
          "name": "from",
          "type": "address"
        },
        {
          "indexed": true,
          "internalType": "address",
          "name": "to",
          "type": "address"
        },
        {
          "indexed": false,
          "internalType": "uint256",
          "name": "id",
          "type": "uint256"
        },
        {
          "indexed": false,
          "internalType": "uint256",
          "name": "value",
          "type": "uint256"
        }
      ],
      "name": "TransferSingle",
      "type": "event"
    },
    {
      "anonymous": false,
      "inputs": [
        {
          "indexed": false,
          "internalType": "string",
          "name": "value",
          "type": "string"
        },
        {
          "indexed": true,
          "internalType": "uint256",
          "name": "id",
          "type": "uint256"
        }
      ],
      "name": "URI",
      "type": "event"
    },
    {
      "inputs": [
        {
          "internalType": "address",
          "name": "account",
          "type": "address"
        },
        {
          "internalType": "uint256",
          "name": "id",
          "type": "uint256"
        }
      ],
      "name": "balanceOf",
      "outputs": [
        {
          "internalType": "uint256",
          "name": "",
          "type": "uint256"
        }
      ],
      "stateMutability": "view",
      "type": "function"
    },
    {
      "inputs": [
        {
          "internalType": "address[]",
          "name": "accounts",
          "type": "address[]"
        },
        {
          "internalType": "uint256[]",
          "name": "ids",
          "type": "uint256[]"
        }
      ],
      "name": "balanceOfBatch",
      "outputs": [
        {
          "internalType": "uint256[]",
          "name": "",
          "type": "uint256[]"
        }
      ],
      "stateMutability": "view",
      "type": "function"
    },
    {
      "inputs": [],
      "name": "contractURI",
      "outputs": [
        {
          "internalType": "string",
          "name": "",
          "type": "string"
        }
      ],
      "stateMutability": "view",
      "type": "function"
    },
    {
      "inputs": [
        {
          "internalType": "address",
          "name": "account",
          "type": "address"
        },
        {
          "internalType": "address",
          "name": "operator",
          "type": "address"
        }
      ],
      "name": "isApprovedForAll",
      "outputs": [
        {
          "internalType": "bool",
          "name": "",
          "type": "bool"
        }
      ],
      "stateMutability": "view",
      "type": "function"
    },
    {
      "inputs": [
        {
          "internalType": "address",
          "name": "account",
          "type": "address"
        },
        {
          "internalType": "uint256",
          "name": "id",
          "type": "uint256"
        },
        {
          "internalType": "uint256",
          "name": "amount",
          "type": "uint256"
        }
      ],
      "name": "mint",
      "outputs": [],
      "stateMutability": "nonpayable",
      "type": "function"
    },
    {
      "inputs": [],
      "name": "owner",
      "outputs": [
        {
          "internalType": "address",
          "name": "",
          "type": "address"
        }
      ],
      "stateMutability": "view",
      "type": "function"
    },
    {
      "inputs": [],
      "name": "renounceOwnership",
      "outputs": [],
      "stateMutability": "nonpayable",
      "type": "function"
    },
    {
      "inputs": [
        {
          "internalType": "address",
          "name": "from",
          "type": "address"
        },
        {
          "internalType": "address",
          "name": "to",
          "type": "address"
        },
        {
          "internalType": "uint256[]",
          "name": "ids",
          "type": "uint256[]"
        },
        {
          "internalType": "uint256[]",
          "name": "values",
          "type": "uint256[]"
        },
        {
          "internalType": "bytes",
          "name": "data",
          "type": "bytes"
        }
      ],
      "name": "safeBatchTransferFrom",
      "outputs": [],
      "stateMutability": "nonpayable",
      "type": "function"
    },
    {
      "inputs": [
        {
          "internalType": "address",
          "name": "from",
          "type": "address"
        },
        {
          "internalType": "address",
          "name": "to",
          "type": "address"
        },
        {
          "internalType": "uint256",
          "name": "id",
          "type": "uint256"
        },
        {
          "internalType": "uint256",
          "name": "value",
          "type": "uint256"
        },
        {
          "internalType": "bytes",
          "name": "data",
          "type": "bytes"
        }
      ],
      "name": "safeTransferFrom",
      "outputs": [],
      "stateMutability": "nonpayable",
      "type": "function"
    },
    {
      "inputs": [
        {
          "internalType": "address",
          "name": "operator",
          "type": "address"
        },
        {
          "internalType": "bool",
          "name": "approved",
          "type": "bool"
        }
      ],
      "name": "setApprovalForAll",
      "outputs": [],
      "stateMutability": "nonpayable",
      "type": "function"
    },
    {
      "inputs": [
        {
          "internalType": "string",
          "name": "newuri",
          "type": "string"
        }
      ],
      "name": "setURI",
      "outputs": [],
      "stateMutability": "nonpayable",
      "type": "function"
    },
    {
      "inputs": [
        {
          "internalType": "bytes4",
          "name": "interfaceId",
          "type": "bytes4"
        }
      ],
      "name": "supportsInterface",
      "outputs": [
        {
          "internalType": "bool",
          "name": "",
          "type": "bool"
        }
      ],
      "stateMutability": "view",
      "type": "function"
    },
    {
      "inputs": [
        {
          "internalType": "address",
          "name": "newOwner",
          "type": "address"
        }
      ],
      "name": "transferOwnership",
      "outputs": [],
      "stateMutability": "nonpayable",
      "type": "function"
    },
    {
      "inputs": [
        {
          "internalType": "uint256",
          "name": "tokenId",
          "type": "uint256"
        }
      ],
      "name": "uri",
      "outputs": [
        {
          "internalType": "string",
          "name": "",
          "type": "string"
        }
      ],
      "stateMutability": "view",
      "type": "function"
    }
  ],
  "bytecode": "0x608060405234801561001057600080fd5b50604051613dc9380380613dc983398181016040528101906100329190610c2f565b33604051806020016040528060008152506100528161011060201b60201c565b50600073ffffffffffffffffffffffffffffffffffffffff168173ffffffffffffffffffffffffffffffffffffffff16036100c55760006040517f1e4fbdf70000000000000000000000000000000000000000000000000000000081526004016100bc9190610cb9565b60405180910390fd5b6100d48161012360201b60201c565b5080600490816100e49190610ef5565b5061010a336000620186a0604051806020016040528060008152506101e960201b60201c565b50611338565b806002908161011f9190610ef5565b5050565b6000600360009054906101000a900473ffffffffffffffffffffffffffffffffffffffff16905081600360006101000a81548173ffffffffffffffffffffffffffffffffffffffff021916908373ffffffffffffffffffffffffffffffffffffffff1602179055508173ffffffffffffffffffffffffffffffffffffffff168173ffffffffffffffffffffffffffffffffffffffff167f8be0079c531659141344cd1fd0a4f28419497f9722a3daafe3b4186f6b6457e060405160405180910390a35050565b600073ffffffffffffffffffffffffffffffffffffffff168473ffffffffffffffffffffffffffffffffffffffff160361025b5760006040517f57f447ce0000000000000000000000000000000000000000000000000000000081526004016102529190610cb9565b60405180910390fd5b60008061026e858561028e60201b60201c565b915091506102866000878484876102be60201b60201c565b505050505050565b60608060405191506001825283602083015260408201905060018152826020820152604081016040529250929050565b6102d08585858561038860201b60201c565b600073ffffffffffffffffffffffffffffffffffffffff168473ffffffffffffffffffffffffffffffffffffffff161461038157600061031461073660201b60201c565b9050600184510361036a57600061033560008661073e60201b90919060201c565b9050600061034d60008661073e60201b90919060201c565b905061036383898985858961075260201b60201c565b505061037f565b61037e81878787878761090660201b60201c565b5b505b5050505050565b80518251146103d257815181516040517f5b0599910000000000000000000000000000000000000000000000000000000081526004016103c9929190610fd6565b60405180910390fd5b60006103e261073660201b60201c565b905060005b83518110156105f1576000610405828661073e60201b90919060201c565b9050600061041c838661073e60201b90919060201c565b9050600073ffffffffffffffffffffffffffffffffffffffff168873ffffffffffffffffffffffffffffffffffffffff161461054957600080600084815260200190815260200160002060008a73ffffffffffffffffffffffffffffffffffffffff1673ffffffffffffffffffffffffffffffffffffffff168152602001908152602001600020549050818110156104f157888183856040517f03dee4c50000000000000000000000000000000000000000000000000000000081526004016104e89493929190610fff565b60405180910390fd5b81810360008085815260200190815260200160002060008b73ffffffffffffffffffffffffffffffffffffffff1673ffffffffffffffffffffffffffffffffffffffff16815260200190815260200160002081905550505b600073ffffffffffffffffffffffffffffffffffffffff168773ffffffffffffffffffffffffffffffffffffffff16146105e4578060008084815260200190815260200160002060008973ffffffffffffffffffffffffffffffffffffffff1673ffffffffffffffffffffffffffffffffffffffff16815260200190815260200160002060008282546105dc9190611073565b925050819055505b50508060010190506103e7565b5060018351036106b057600061061160008561073e60201b90919060201c565b9050600061062960008561073e60201b90919060201c565b90508573ffffffffffffffffffffffffffffffffffffffff168773ffffffffffffffffffffffffffffffffffffffff168473ffffffffffffffffffffffffffffffffffffffff167fc3d58168c5ae7397731d063d5bbf3d657854427343f4c083240f7aacaa2d0f6285856040516106a1929190610fd6565b60405180910390a4505061072f565b8373ffffffffffffffffffffffffffffffffffffffff168573ffffffffffffffffffffffffffffffffffffffff168273ffffffffffffffffffffffffffffffffffffffff167f4a39dc06d4c0dbc64b70af90fd698a233a518aa5d07e595d983b8c0526c8f7fb8686604051610726929190611165565b60405180910390a45b5050505050565b600033905090565b600060208202602084010151905092915050565b60008473ffffffffffffffffffffffffffffffffffffffff163b11156108fe578373ffffffffffffffffffffffffffffffffffffffff1663f23a6e6187878686866040518663ffffffff1660e01b81526004016107b39594939291906111f1565b6020604051808303816000875af19250505080156107ef57506040513d601f19601f820116820180604052508101906107ec91906112a3565b60015b610873573d806000811461081f576040519150601f19603f3d011682016040523d82523d6000602084013e610824565b606091505b50600081510361086b57846040517f57f447ce0000000000000000000000000000000000000000000000000000000081526004016108629190610cb9565b60405180910390fd5b805181602001fd5b63f23a6e6160e01b7bffffffffffffffffffffffffffffffffffffffffffffffffffffffff1916817bffffffffffffffffffffffffffffffffffffffffffffffffffffffff1916146108fc57846040517f57f447ce0000000000000000000000000000000000000000000000000000000081526004016108f39190610cb9565b60405180910390fd5b505b505050505050565b60008473ffffffffffffffffffffffffffffffffffffffff163b1115610ab2578373ffffffffffffffffffffffffffffffffffffffff1663bc197c8187878686866040518663ffffffff1660e01b81526004016109679594939291906112d0565b6020604051808303816000875af19250505080156109a357506040513d601f19601f820116820180604052508101906109a091906112a3565b60015b610a27573d80600081146109d3576040519150601f19603f3d011682016040523d82523d6000602084013e6109d8565b606091505b506000815103610a1f57846040517f57f447ce000000000000000000000000000000000000000000000000000000008152600401610a169190610cb9565b60405180910390fd5b805181602001fd5b63bc197c8160e01b7bffffffffffffffffffffffffffffffffffffffffffffffffffffffff1916817bffffffffffffffffffffffffffffffffffffffffffffffffffffffff191614610ab057846040517f57f447ce000000000000000000000000000000000000000000000000000000008152600401610aa79190610cb9565b60405180910390fd5b505b505050505050565b6000604051905090565b600080fd5b600080fd5b600080fd5b600080fd5b6000601f19601f8301169050919050565b7f4e487b7100000000000000000000000000000000000000000000000000000000600052604160045260246000fd5b610b2182610ad8565b810181811067ffffffffffffffff82111715610b4057610b3f610ae9565b5b80604052505050565b6000610b53610aba565b9050610b5f8282610b18565b919050565b600067ffffffffffffffff821115610b7f57610b7e610ae9565b5b610b8882610ad8565b9050602081019050919050565b60005b83811015610bb3578082015181840152602081019050610b98565b60008484015250505050565b6000610bd2610bcd84610b64565b610b49565b905082815260208101848484011115610bee57610bed610ad3565b5b610bf9848285610b95565b509392505050565b600082601f830112610c1657610c15610ace565b5b8151610c26848260208601610bbf565b91505092915050565b600060208284031215610c4557610c44610ac4565b5b600082015167ffffffffffffffff811115610c6357610c62610ac9565b5b610c6f84828501610c01565b91505092915050565b600073ffffffffffffffffffffffffffffffffffffffff82169050919050565b6000610ca382610c78565b9050919050565b610cb381610c98565b82525050565b6000602082019050610cce6000830184610caa565b92915050565b600081519050919050565b7f4e487b7100000000000000000000000000000000000000000000000000000000600052602260045260246000fd5b60006002820490506001821680610d2657607f821691505b602082108103610d3957610d38610cdf565b5b50919050565b60008190508160005260206000209050919050565b60006020601f8301049050919050565b600082821b905092915050565b600060088302610da17fffffffffffffffffffffffffffffffffffffffffffffffffffffffffffffffff82610d64565b610dab8683610d64565b95508019841693508086168417925050509392505050565b6000819050919050565b6000819050919050565b6000610df2610ded610de884610dc3565b610dcd565b610dc3565b9050919050565b6000819050919050565b610e0c83610dd7565b610e20610e1882610df9565b848454610d71565b825550505050565b600090565b610e35610e28565b610e40818484610e03565b505050565b5b81811015610e6457610e59600082610e2d565b600181019050610e46565b5050565b601f821115610ea957610e7a81610d3f565b610e8384610d54565b81016020851015610e92578190505b610ea6610e9e85610d54565b830182610e45565b50505b505050565b600082821c905092915050565b6000610ecc60001984600802610eae565b1980831691505092915050565b6000610ee58383610ebb565b9150826002028217905092915050565b610efe82610cd4565b67ffffffffffffffff811115610f1757610f16610ae9565b5b610f218254610d0e565b610f2c828285610e68565b600060209050601f831160018114610f5f5760008415610f4d578287015190505b610f578582610ed9565b865550610fbf565b601f198416610f6d86610d3f565b60005b82811015610f9557848901518255600182019150602085019450602081019050610f70565b86831015610fb25784890151610fae601f891682610ebb565b8355505b6001600288020188555050505b505050505050565b610fd081610dc3565b82525050565b6000604082019050610feb6000830185610fc7565b610ff86020830184610fc7565b9392505050565b60006080820190506110146000830187610caa565b6110216020830186610fc7565b61102e6040830185610fc7565b61103b6060830184610fc7565b95945050505050565b7f4e487b7100000000000000000000000000000000000000000000000000000000600052601160045260246000fd5b600061107e82610dc3565b915061108983610dc3565b92508282019050808211156110a1576110a0611044565b5b92915050565b600081519050919050565b600082825260208201905092915050565b6000819050602082019050919050565b6110dc81610dc3565b82525050565b60006110ee83836110d3565b60208301905092915050565b6000602082019050919050565b6000611112826110a7565b61111c81856110b2565b9350611127836110c3565b8060005b8381101561115857815161113f88826110e2565b975061114a836110fa565b92505060018101905061112b565b5085935050505092915050565b6000604082019050818103600083015261117f8185611107565b905081810360208301526111938184611107565b90509392505050565b600081519050919050565b600082825260208201905092915050565b60006111c38261119c565b6111cd81856111a7565b93506111dd818560208601610b95565b6111e681610ad8565b840191505092915050565b600060a0820190506112066000830188610caa565b6112136020830187610caa565b6112206040830186610fc7565b61122d6060830185610fc7565b818103608083015261123f81846111b8565b90509695505050505050565b60007fffffffff0000000000000000000000000000000000000000000000000000000082169050919050565b6112808161124b565b811461128b57600080fd5b50565b60008151905061129d81611277565b92915050565b6000602082840312156112b9576112b8610ac4565b5b60006112c78482850161128e565b91505092915050565b600060a0820190506112e56000830188610caa565b6112f26020830187610caa565b81810360408301526113048186611107565b905081810360608301526113188185611107565b9050818103608083015261132c81846111b8565b90509695505050505050565b612a82806113476000396000f3fe608060405234801561001057600080fd5b50600436106100e95760003560e01c8063715018a61161008c578063e8a3d48511610066578063e8a3d48514610246578063e985e9c514610264578063f242432a14610294578063f2fde38b146102b0576100e9565b8063715018a6146102025780638da5cb5b1461020c578063a22cb4651461022a576100e9565b80630e89341c116100c85780630e89341c1461016a578063156e29f61461019a5780632eb2c2d6146101b65780634e1273f4146101d2576100e9565b8062fdd58e146100ee57806301ffc9a71461011e57806302fe53051461014e575b600080fd5b6101086004803603810190610103919061191c565b6102cc565b604051610115919061196b565b60405180910390f35b610138600480360381019061013391906119de565b610326565b6040516101459190611a26565b60405180910390f35b61016860048036038101906101639190611b87565b610408565b005b610184600480360381019061017f9190611bd0565b610423565b6040516101919190611c7c565b60405180910390f35b6101b460048036038101906101af9190611c9e565b610457565b005b6101d060048036038101906101cb9190611e5a565b61047f565b005b6101ec60048036038101906101e79190611fec565b610527565b6040516101f99190612122565b60405180910390f35b61020a610630565b005b610214610644565b6040516102219190612153565b60405180910390f35b610244600480360381019061023f919061219a565b61066e565b005b61024e610684565b60405161025b9190611c7c565b60405180910390f35b61027e600480360381019061027991906121da565b6106ac565b60405161028b9190611a26565b60405180910390f35b6102ae60048036038101906102a9919061221a565b610740565b005b6102ca60048036038101906102c591906122b1565b6107e8565b005b600080600083815260200190815260200160002060008473ffffffffffffffffffffffffffffffffffffffff1673ffffffffffffffffffffffffffffffffffffffff16815260200190815260200160002054905092915050565b60007fd9b67a26000000000000000000000000000000000000000000000000000000007bffffffffffffffffffffffffffffffffffffffffffffffffffffffff1916827bffffffffffffffffffffffffffffffffffffffffffffffffffffffff191614806103f157507f0e89341c000000000000000000000000000000000000000000000000000000007bffffffffffffffffffffffffffffffffffffffffffffffffffffffff1916827bffffffffffffffffffffffffffffffffffffffffffffffffffffffff1916145b8061040157506104008261086e565b5b9050919050565b6104106108d8565b806004908161041f91906124ea565b5050565b606060046104308361095f565b6040516020016104419291906126c7565b6040516020818303038152906040529050919050565b61045f6108d8565b61047a83838360405180602001604052806000815250610a2d565b505050565b6000610489610ac6565b90508073ffffffffffffffffffffffffffffffffffffffff168673ffffffffffffffffffffffffffffffffffffffff16141580156104ce57506104cc86826106ac565b155b156105125780866040517fe237d9220000000000000000000000000000000000000000000000000000000081526004016105099291906126f6565b60405180910390fd5b61051f8686868686610ace565b505050505050565b6060815183511461057357815183516040517f5b05999100000000000000000000000000000000000000000000000000000000815260040161056a92919061271f565b60405180910390fd5b6000835167ffffffffffffffff8111156105905761058f611a5c565b5b6040519080825280602002602001820160405280156105be5781602001602082028036833780820191505090505b50905060005b8451811015610625576105fb6105e38287610bc690919063ffffffff16565b6105f68387610bda90919063ffffffff16565b6102cc565b82828151811061060e5761060d612748565b5b6020026020010181815250508060010190506105c4565b508091505092915050565b6106386108d8565b6106426000610bee565b565b6000600360009054906101000a900473ffffffffffffffffffffffffffffffffffffffff16905090565b610680610679610ac6565b8383610cb4565b5050565b6060600460405160200161069891906127c3565b604051602081830303815290604052905090565b6000600160008473ffffffffffffffffffffffffffffffffffffffff1673ffffffffffffffffffffffffffffffffffffffff16815260200190815260200160002060008373ffffffffffffffffffffffffffffffffffffffff1673ffffffffffffffffffffffffffffffffffffffff16815260200190815260200160002060009054906101000a900460ff16905092915050565b600061074a610ac6565b90508073ffffffffffffffffffffffffffffffffffffffff168673ffffffffffffffffffffffffffffffffffffffff161415801561078f575061078d86826106ac565b155b156107d35780866040517fe237d9220000000000000000000000000000000000000000000000000000000081526004016107ca9291906126f6565b60405180910390fd5b6107e08686868686610e24565b505050505050565b6107f06108d8565b600073ffffffffffffffffffffffffffffffffffffffff168173ffffffffffffffffffffffffffffffffffffffff16036108625760006040517f1e4fbdf70000000000000000000000000000000000000000000000000000000081526004016108599190612153565b60405180910390fd5b61086b81610bee565b50565b60007f01ffc9a7000000000000000000000000000000000000000000000000000000007bffffffffffffffffffffffffffffffffffffffffffffffffffffffff1916827bffffffffffffffffffffffffffffffffffffffffffffffffffffffff1916149050919050565b6108e0610ac6565b73ffffffffffffffffffffffffffffffffffffffff166108fe610644565b73ffffffffffffffffffffffffffffffffffffffff161461095d57610921610ac6565b6040517f118cdaa70000000000000000000000000000000000000000000000000000000081526004016109549190612153565b60405180910390fd5b565b60606000600161096e84610f2f565b01905060008167ffffffffffffffff81111561098d5761098c611a5c565b5b6040519080825280601f01601f1916602001820160405280156109bf5781602001600182028036833780820191505090505b509050600082602001820190505b600115610a22578080600190039150507f3031323334353637383961626364656600000000000000000000000000000000600a86061a8153600a8581610a1657610a156127e5565b5b049450600085036109cd575b819350505050919050565b600073ffffffffffffffffffffffffffffffffffffffff168473ffffffffffffffffffffffffffffffffffffffff1603610a9f5760006040517f57f447ce000000000000000000000000000000000000000000000000000000008152600401610a969190612153565b60405180910390fd5b600080610aac8585611082565b91509150610abe6000878484876110b2565b505050505050565b600033905090565b600073ffffffffffffffffffffffffffffffffffffffff168473ffffffffffffffffffffffffffffffffffffffff1603610b405760006040517f57f447ce000000000000000000000000000000000000000000000000000000008152600401610b379190612153565b60405180910390fd5b600073ffffffffffffffffffffffffffffffffffffffff168573ffffffffffffffffffffffffffffffffffffffff1603610bb25760006040517f01a83514000000000000000000000000000000000000000000000000000000008152600401610ba99190612153565b60405180910390fd5b610bbf85858585856110b2565b5050505050565b600060208202602084010151905092915050565b600060208202602084010151905092915050565b6000600360009054906101000a900473ffffffffffffffffffffffffffffffffffffffff16905081600360006101000a81548173ffffffffffffffffffffffffffffffffffffffff021916908373ffffffffffffffffffffffffffffffffffffffff1602179055508173ffffffffffffffffffffffffffffffffffffffff168173ffffffffffffffffffffffffffffffffffffffff167f8be0079c531659141344cd1fd0a4f28419497f9722a3daafe3b4186f6b6457e060405160405180910390a35050565b600073ffffffffffffffffffffffffffffffffffffffff168273ffffffffffffffffffffffffffffffffffffffff1603610d265760006040517fced3e100000000000000000000000000000000000000000000000000000000008152600401610d1d9190612153565b60405180910390fd5b80600160008573ffffffffffffffffffffffffffffffffffffffff1673ffffffffffffffffffffffffffffffffffffffff16815260200190815260200160002060008473ffffffffffffffffffffffffffffffffffffffff1673ffffffffffffffffffffffffffffffffffffffff16815260200190815260200160002060006101000a81548160ff0219169083151502179055508173ffffffffffffffffffffffffffffffffffffffff168373ffffffffffffffffffffffffffffffffffffffff167f17307eab39ab6107e8899845ad3d59bd9653f200f220920489ca2b5937696c3183604051610e179190611a26565b60405180910390a3505050565b600073ffffffffffffffffffffffffffffffffffffffff168473ffffffffffffffffffffffffffffffffffffffff1603610e965760006040517f57f447ce000000000000000000000000000000000000000000000000000000008152600401610e8d9190612153565b60405180910390fd5b600073ffffffffffffffffffffffffffffffffffffffff168573ffffffffffffffffffffffffffffffffffffffff1603610f085760006040517f01a83514000000000000000000000000000000000000000000000000000000008152600401610eff9190612153565b60405180910390fd5b600080610f158585611082565b91509150610f2687878484876110b2565b50505050505050565b600080600090507a184f03e93ff9f4daa797ed6e38ed64bf6a1f0100000000000000008310610f8d577a184f03e93ff9f4daa797ed6e38ed64bf6a1f0100000000000000008381610f8357610f826127e5565b5b0492506040810190505b6d04ee2d6d415b85acef81000000008310610fca576d04ee2d6d415b85acef81000000008381610fc057610fbf6127e5565b5b0492506020810190505b662386f26fc100008310610ff957662386f26fc100008381610fef57610fee6127e5565b5b0492506010810190505b6305f5e1008310611022576305f5e1008381611018576110176127e5565b5b0492506008810190505b612710831061104757612710838161103d5761103c6127e5565b5b0492506004810190505b6064831061106a57606483816110605761105f6127e5565b5b0492506002810190505b600a8310611079576001810190505b80915050919050565b60608060405191506001825283602083015260408201905060018152826020820152604081016040529250929050565b6110be85858585611164565b600073ffffffffffffffffffffffffffffffffffffffff168473ffffffffffffffffffffffffffffffffffffffff161461115d5760006110fc610ac6565b9050600184510361114c57600061111d600086610bda90919063ffffffff16565b90506000611135600086610bda90919063ffffffff16565b905061114583898985858961150c565b505061115b565b61115a8187878787876116c0565b5b505b5050505050565b80518251146111ae57815181516040517f5b0599910000000000000000000000000000000000000000000000000000000081526004016111a592919061271f565b60405180910390fd5b60006111b8610ac6565b905060005b83518110156113c75760006111db8286610bda90919063ffffffff16565b905060006111f28386610bda90919063ffffffff16565b9050600073ffffffffffffffffffffffffffffffffffffffff168873ffffffffffffffffffffffffffffffffffffffff161461131f57600080600084815260200190815260200160002060008a73ffffffffffffffffffffffffffffffffffffffff1673ffffffffffffffffffffffffffffffffffffffff168152602001908152602001600020549050818110156112c757888183856040517f03dee4c50000000000000000000000000000000000000000000000000000000081526004016112be9493929190612814565b60405180910390fd5b81810360008085815260200190815260200160002060008b73ffffffffffffffffffffffffffffffffffffffff1673ffffffffffffffffffffffffffffffffffffffff16815260200190815260200160002081905550505b600073ffffffffffffffffffffffffffffffffffffffff168773ffffffffffffffffffffffffffffffffffffffff16146113ba578060008084815260200190815260200160002060008973ffffffffffffffffffffffffffffffffffffffff1673ffffffffffffffffffffffffffffffffffffffff16815260200190815260200160002060008282546113b29190612888565b925050819055505b50508060010190506111bd565b5060018351036114865760006113e7600085610bda90919063ffffffff16565b905060006113ff600085610bda90919063ffffffff16565b90508573ffffffffffffffffffffffffffffffffffffffff168773ffffffffffffffffffffffffffffffffffffffff168473ffffffffffffffffffffffffffffffffffffffff167fc3d58168c5ae7397731d063d5bbf3d657854427343f4c083240f7aacaa2d0f62858560405161147792919061271f565b60405180910390a45050611505565b8373ffffffffffffffffffffffffffffffffffffffff168573ffffffffffffffffffffffffffffffffffffffff168273ffffffffffffffffffffffffffffffffffffffff167f4a39dc06d4c0dbc64b70af90fd698a233a518aa5d07e595d983b8c0526c8f7fb86866040516114fc9291906128bc565b60405180910390a45b5050505050565b60008473ffffffffffffffffffffffffffffffffffffffff163b11156116b8578373ffffffffffffffffffffffffffffffffffffffff1663f23a6e6187878686866040518663ffffffff1660e01b815260040161156d959493929190612948565b6020604051808303816000875af19250505080156115a957506040513d601f19601f820116820180604052508101906115a691906129b7565b60015b61162d573d80600081146115d9576040519150601f19603f3d011682016040523d82523d6000602084013e6115de565b606091505b50600081510361162557846040517f57f447ce00000000000000000000000000000000000000000000000000000000815260040161161c9190612153565b60405180910390fd5b805181602001fd5b63f23a6e6160e01b7bffffffffffffffffffffffffffffffffffffffffffffffffffffffff1916817bffffffffffffffffffffffffffffffffffffffffffffffffffffffff1916146116b657846040517f57f447ce0000000000000000000000000000000000000000000000000000000081526004016116ad9190612153565b60405180910390fd5b505b505050505050565b60008473ffffffffffffffffffffffffffffffffffffffff163b111561186c578373ffffffffffffffffffffffffffffffffffffffff1663bc197c8187878686866040518663ffffffff1660e01b81526004016117219594939291906129e4565b6020604051808303816000875af192505050801561175d57506040513d601f19601f8201168201806040525081019061175a91906129b7565b60015b6117e1573d806000811461178d576040519150601f19603f3d011682016040523d82523d6000602084013e611792565b606091505b5060008151036117d957846040517f57f447ce0000000000000000000000000000000000000000000000000000000081526004016117d09190612153565b60405180910390fd5b805181602001fd5b63bc197c8160e01b7bffffffffffffffffffffffffffffffffffffffffffffffffffffffff1916817bffffffffffffffffffffffffffffffffffffffffffffffffffffffff19161461186a57846040517f57f447ce0000000000000000000000000000000000000000000000000000000081526004016118619190612153565b60405180910390fd5b505b505050505050565b6000604051905090565b600080fd5b600080fd5b600073ffffffffffffffffffffffffffffffffffffffff82169050919050565b60006118b382611888565b9050919050565b6118c3816118a8565b81146118ce57600080fd5b50565b6000813590506118e0816118ba565b92915050565b6000819050919050565b6118f9816118e6565b811461190457600080fd5b50565b600081359050611916816118f0565b92915050565b600080604083850312156119335761193261187e565b5b6000611941858286016118d1565b925050602061195285828601611907565b9150509250929050565b611965816118e6565b82525050565b6000602082019050611980600083018461195c565b92915050565b60007fffffffff0000000000000000000000000000000000000000000000000000000082169050919050565b6119bb81611986565b81146119c657600080fd5b50565b6000813590506119d8816119b2565b92915050565b6000602082840312156119f4576119f361187e565b5b6000611a02848285016119c9565b91505092915050565b60008115159050919050565b611a2081611a0b565b82525050565b6000602082019050611a3b6000830184611a17565b92915050565b600080fd5b600080fd5b6000601f19601f8301169050919050565b7f4e487b7100000000000000000000000000000000000000000000000000000000600052604160045260246000fd5b611a9482611a4b565b810181811067ffffffffffffffff82111715611ab357611ab2611a5c565b5b80604052505050565b6000611ac6611874565b9050611ad28282611a8b565b919050565b600067ffffffffffffffff821115611af257611af1611a5c565b5b611afb82611a4b565b9050602081019050919050565b82818337600083830152505050565b6000611b2a611b2584611ad7565b611abc565b905082815260208101848484011115611b4657611b45611a46565b5b611b51848285611b08565b509392505050565b600082601f830112611b6e57611b6d611a41565b5b8135611b7e848260208601611b17565b91505092915050565b600060208284031215611b9d57611b9c61187e565b5b600082013567ffffffffffffffff811115611bbb57611bba611883565b5b611bc784828501611b59565b91505092915050565b600060208284031215611be657611be561187e565b5b6000611bf484828501611907565b91505092915050565b600081519050919050565b600082825260208201905092915050565b60005b83811015611c37578082015181840152602081019050611c1c565b60008484015250505050565b6000611c4e82611bfd565b611c588185611c08565b9350611c68818560208601611c19565b611c7181611a4b565b840191505092915050565b60006020820190508181036000830152611c968184611c43565b905092915050565b600080600060608486031215611cb757611cb661187e565b5b6000611cc5868287016118d1565b9350506020611cd686828701611907565b9250506040611ce786828701611907565b9150509250925092565b600067ffffffffffffffff821115611d0c57611d0b611a5c565b5b602082029050602081019050919050565b600080fd5b6000611d35611d3084611cf1565b611abc565b90508083825260208201905060208402830185811115611d5857611d57611d1d565b5b835b81811015611d815780611d6d8882611907565b845260208401935050602081019050611d5a565b5050509392505050565b600082601f830112611da057611d9f611a41565b5b8135611db0848260208601611d22565b91505092915050565b600067ffffffffffffffff821115611dd457611dd3611a5c565b5b611ddd82611a4b565b9050602081019050919050565b6000611dfd611df884611db9565b611abc565b905082815260208101848484011115611e1957611e18611a46565b5b611e24848285611b08565b509392505050565b600082601f830112611e4157611e40611a41565b5b8135611e51848260208601611dea565b91505092915050565b600080600080600060a08688031215611e7657611e7561187e565b5b6000611e84888289016118d1565b9550506020611e95888289016118d1565b945050604086013567ffffffffffffffff811115611eb657611eb5611883565b5b611ec288828901611d8b565b935050606086013567ffffffffffffffff811115611ee357611ee2611883565b5b611eef88828901611d8b565b925050608086013567ffffffffffffffff811115611f1057611f0f611883565b5b611f1c88828901611e2c565b9150509295509295909350565b600067ffffffffffffffff821115611f4457611f43611a5c565b5b602082029050602081019050919050565b6000611f68611f6384611f29565b611abc565b90508083825260208201905060208402830185811115611f8b57611f8a611d1d565b5b835b81811015611fb45780611fa088826118d1565b845260208401935050602081019050611f8d565b5050509392505050565b600082601f830112611fd357611fd2611a41565b5b8135611fe3848260208601611f55565b91505092915050565b600080604083850312156120035761200261187e565b5b600083013567ffffffffffffffff81111561202157612020611883565b5b61202d85828601611fbe565b925050602083013567ffffffffffffffff81111561204e5761204d611883565b5b61205a85828601611d8b565b9150509250929050565b600081519050919050565b600082825260208201905092915050565b6000819050602082019050919050565b612099816118e6565b82525050565b60006120ab8383612090565b60208301905092915050565b6000602082019050919050565b60006120cf82612064565b6120d9818561206f565b93506120e483612080565b8060005b838110156121155781516120fc888261209f565b9750612107836120b7565b9250506001810190506120e8565b5085935050505092915050565b6000602082019050818103600083015261213c81846120c4565b905092915050565b61214d816118a8565b82525050565b60006020820190506121686000830184612144565b92915050565b61217781611a0b565b811461218257600080fd5b50565b6000813590506121948161216e565b92915050565b600080604083850312156121b1576121b061187e565b5b60006121bf858286016118d1565b92505060206121d085828601612185565b9150509250929050565b600080604083850312156121f1576121f061187e565b5b60006121ff858286016118d1565b9250506020612210858286016118d1565b9150509250929050565b600080600080600060a086880312156122365761223561187e565b5b6000612244888289016118d1565b9550506020612255888289016118d1565b945050604061226688828901611907565b935050606061227788828901611907565b925050608086013567ffffffffffffffff81111561229857612297611883565b5b6122a488828901611e2c565b9150509295509295909350565b6000602082840312156122c7576122c661187e565b5b60006122d5848285016118d1565b91505092915050565b7f4e487b7100000000000000000000000000000000000000000000000000000000600052602260045260246000fd5b6000600282049050600182168061232557607f821691505b602082108103612338576123376122de565b5b50919050565b60008190508160005260206000209050919050565b60006020601f8301049050919050565b600082821b905092915050565b6000600883026123a07fffffffffffffffffffffffffffffffffffffffffffffffffffffffffffffffff82612363565b6123aa8683612363565b95508019841693508086168417925050509392505050565b6000819050919050565b60006123e76123e26123dd846118e6565b6123c2565b6118e6565b9050919050565b6000819050919050565b612401836123cc565b61241561240d826123ee565b848454612370565b825550505050565b600090565b61242a61241d565b6124358184846123f8565b505050565b5b818110156124595761244e600082612422565b60018101905061243b565b5050565b601f82111561249e5761246f8161233e565b61247884612353565b81016020851015612487578190505b61249b61249385612353565b83018261243a565b50505b505050565b600082821c905092915050565b60006124c1600019846008026124a3565b1980831691505092915050565b60006124da83836124b0565b9150826002028217905092915050565b6124f382611bfd565b67ffffffffffffffff81111561250c5761250b611a5c565b5b612516825461230d565b61252182828561245d565b600060209050601f8311600181146125545760008415612542578287015190505b61254c85826124ce565b8655506125b4565b601f1984166125628661233e565b60005b8281101561258a57848901518255600182019150602085019450602081019050612565565b868310156125a757848901516125a3601f8916826124b0565b8355505b6001600288020188555050505b505050505050565b600081905092915050565b600081546125d48161230d565b6125de81866125bc565b945060018216600081146125f9576001811461260e57612641565b60ff1983168652811515820286019350612641565b6126178561233e565b60005b838110156126395781548189015260018201915060208101905061261a565b838801955050505b50505092915050565b600061265582611bfd565b61265f81856125bc565b935061266f818560208601611c19565b80840191505092915050565b7f2e6a736f6e000000000000000000000000000000000000000000000000000000600082015250565b60006126b16005836125bc565b91506126bc8261267b565b600582019050919050565b60006126d382856125c7565b91506126df828461264a565b91506126ea826126a4565b91508190509392505050565b600060408201905061270b6000830185612144565b6127186020830184612144565b9392505050565b6000604082019050612734600083018561195c565b612741602083018461195c565b9392505050565b7f4e487b7100000000000000000000000000000000000000000000000000000000600052603260045260246000fd5b7f636f6c6c656374696f6e2e6a736f6e0000000000000000000000000000000000600082015250565b60006127ad600f836125bc565b91506127b882612777565b600f82019050919050565b60006127cf82846125c7565b91506127da826127a0565b915081905092915050565b7f4e487b7100000000000000000000000000000000000000000000000000000000600052601260045260246000fd5b60006080820190506128296000830187612144565b612836602083018661195c565b612843604083018561195c565b612850606083018461195c565b95945050505050565b7f4e487b7100000000000000000000000000000000000000000000000000000000600052601160045260246000fd5b6000612893826118e6565b915061289e836118e6565b92508282019050808211156128b6576128b5612859565b5b92915050565b600060408201905081810360008301526128d681856120c4565b905081810360208301526128ea81846120c4565b90509392505050565b600081519050919050565b600082825260208201905092915050565b600061291a826128f3565b61292481856128fe565b9350612934818560208601611c19565b61293d81611a4b565b840191505092915050565b600060a08201905061295d6000830188612144565b61296a6020830187612144565b612977604083018661195c565b612984606083018561195c565b8181036080830152612996818461290f565b90509695505050505050565b6000815190506129b1816119b2565b92915050565b6000602082840312156129cd576129cc61187e565b5b60006129db848285016129a2565b91505092915050565b600060a0820190506129f96000830188612144565b612a066020830187612144565b8181036040830152612a1881866120c4565b90508181036060830152612a2c81856120c4565b90508181036080830152612a40818461290f565b9050969550505050505056fea2646970667358221220c2759e2b35234cf822ee0efabcd88b38a35aa672a8cb69cdecb976b2a31cb6c364736f6c634300081c0033",
  "linkReferences": {},
  "deployedLinkReferences": {}
}