{"contracts/nft.sol":{"MyToken":{"abi":[{"inputs":[{"internalType":"string","name":"_uri","type":"string"}],"stateMutability":"nonpayable","type":"constructor"},{"inputs":[{"internalType":"address","name":"sender","type":"address"},{"internalType":"uint256","name":"balance","type":"uint256"},{"internalType":"uint256","name":"needed","type":"uint256"},{"internalType":"uint256","name":"tokenId","type":"uint256"}],"name":"ERC1155InsufficientBalance","type":"error"},{"inputs":[{"internalType":"address","name":"approver","type":"address"}],"name":"ERC1155InvalidApprover","type":"error"},{"inputs":[{"internalType":"uint256","name":"idsLength","type":"uint256"},{"internalType":"uint256","name":"valuesLength","type":"uint256"}],"name":"ERC1155InvalidArrayLength","type":"error"},{"inputs":[{"internalType":"address","name":"operator","type":"address"}],"name":"ERC1155InvalidOperator","type":"error"},{"inputs":[{"internalType":"address","name":"receiver","type":"address"}],"name":"ERC1155InvalidReceiver","type":"error"},{"inputs":[{"internalType":"address","name":"sender","type":"address"}],"name":"ERC1155InvalidSender","type":"error"},{"inputs":[{"internalType":"address","name":"operator","type":"address"},{"internalType":"address","name":"owner","type":"address"}],"name":"ERC1155MissingApprovalForAll","type":"error"},{"inputs":[{"internalType":"address","name":"owner","type":"address"}],"name":"OwnableInvalidOwner","type":"error"},{"inputs":[{"internalType":"address","name":"account","type":"address"}],"name":"OwnableUnauthorizedAccount","type":"error"},{"anonymous":false,"inputs":[{"indexed":true,"internalType":"address","name":"account","type":"address"},{"indexed":true,"internalType":"address","name":"operator","type":"address"},{"indexed":false,"internalType":"bool","name":"approved","type":"bool"}],"name":"ApprovalForAll","type":"event"},{"anonymous":false,"inputs":[{"indexed":true,"internalType":"address","name":"previousOwner","type":"address"},{"indexed":true,"internalType":"address","name":"newOwner","type":"address"}],"name":"OwnershipTransferred","type":"event"},{"anonymous":false,"inputs":[{"indexed":true,"internalType":"address","name":"operator","type":"address"},{"indexed":true,"internalType":"address","name":"from","type":"address"},{"indexed":true,"internalType":"address","name":"to","type":"address"},{"indexed":false,"internalType":"uint256[]","name":"ids","type":"uint256[]"},{"indexed":false,"internalType":"uint256[]","name":"values","type":"uint256[]"}],"name":"TransferBatch","type":"event"},{"anonymous":false,"inputs":[{"indexed":true,"internalType":"address","name":"operator","type":"address"},{"indexed":true,"internalType":"address","name":"from","type":"address"},{"indexed":true,"internalType":"address","name":"to","type":"address"},{"indexed":false,"internalType":"uint256","name":"id","type":"uint256"},{"indexed":false,"internalType":"uint256","name":"value","type":"uint256"}],"name":"TransferSingle","type":"event"},{"anonymous":false,"inputs":[{"indexed":false,"internalType":"string","name":"value","type":"string"},{"indexed":true,"internalType":"uint256","name":"id","type":"uint256"}],"name":"URI","type":"event"},{"inputs":[{"internalType":"address","name":"account","type":"address"},{"internalType":"uint256","name":"id","type":"uint256"}],"name":"balanceOf","outputs":[{"internalType":"uint256","name":"","type":"uint256"}],"stateMutability":"view","type":"function"},{"inputs":[{"internalType":"address[]","name":"accounts","type":"address[]"},{"internalType":"uint256[]","name":"ids","type":"uint256[]"}],"name":"balanceOfBatch","outputs":[{"internalType":"uint256[]","name":"","type":"uint256[]"}],"stateMutability":"view","type":"function"},{"inputs":[],"name":"contractURI","outputs":[{"internalType":"string","name":"","type":"string"}],"stateMutability":"view","type":"function"},{"inputs":[{"internalType":"address","name":"account","type":"address"},{"internalType":"address","name":"operator","type":"address"}],"name":"isApprovedForAll","outputs":[{"internalType":"bool","name":"","type":"bool"}],"stateMutability":"view","type":"function"},{"inputs":[{"internalType":"address","name":"account","type":"address"},{"internalType":"uint256","name":"id","type":"uint256"},{"internalType":"uint256","name":"amount","type":"uint256"}],"name":"mint","outputs":[],"stateMutability":"nonpayable","type":"function"},{"inputs":[],"name":"owner","outputs":[{"internalType":"address","name":"","type":"address"}],"stateMutability":"view","type":"function"},{"inputs":[],"name":"renounceOwnership","outputs":[],"stateMutability":"nonpayable","type":"function"},{"inputs":[{"internalType":"address","name":"from","type":"address"},{"internalType":"address","name":"to","type":"address"},{"internalType":"uint256[]","name":"ids","type":"uint256[]"},{"internalType":"uint256[]","name":"values","type":"uint256[]"},{"internalType":"bytes","name":"data","type":"bytes"}],"name":"safeBatchTransferFrom","outputs":[],"stateMutability":"nonpayable","type":"function"},{"inputs":[{"internalType":"address","name":"from","type":"address"},{"internalType":"address","name":"to","type":"address"},{"internalType":"uint256","name":"id","type":"uint256"},{"internalType":"uint256","name":"value","type":"uint256"},{"internalType":"bytes","name":"data","type":"bytes"}],"name":"safeTransferFrom","outputs":[],"stateMutability":"nonpayable","type":"function"},{"inputs":[{"internalType":"address","name":"operator","type":"address"},{"internalType":"bool","name":"approved","type":"bool"}],"name":"setApprovalForAll","outputs":[],"stateMutability":"nonpayable","type":"function"},{"inputs":[{"internalType":"string","name":"newuri","type":"string"}],"name":"setURI","outputs":[],"stateMutability":"nonpayable","type":"function"},{"inputs":[{"internalType":"bytes4","name":"interfaceId","type":"bytes4"}],"name":"supportsInterface","outputs":[{"internalType":"bool","name":"","type":"bool"}],"stateMutability":"view","type":"function"},{"inputs":[{"internalType":"address","name":"newOwner","type":"address"}],"name":"transferOwnership","outputs":[],"stateMutability":"nonpayable","type":"function"},{"inputs":[{"internalType":"uint256","name":"tokenId","type":"uint256"}],"name":"uri","outputs":[{"internalType":"string","name":"","type":"string"}],"stateMutability":"view","type":"function"}],"evm":{"bytecode":{"linkReferences":{},"object":"608060405234801561001057600080fd5b50604051613dc9380380613dc983398181016040528101906100329190610c2f565b33604051806020016040528060008152506100528161011060201b60201c565b50600073ffffffffffffffffffffffffffffffffffffffff168173ffffffffffffffffffffffffffffffffffffffff16036100c55760006040517f1e4fbdf70000000000000000000000000000000000000000000000000000000081526004016100bc9190610cb9565b60405180910390fd5b6100d48161012360201b60201c565b5080600490816100e49190610ef5565b5061010a336000620186a0604051806020016040528060008152506101e960201b60201c565b50611338565b806002908161011f9190610ef5565b5050565b6000600360009054906101000a900473ffffffffffffffffffffffffffffffffffffffff16905081600360006101000a81548173ffffffffffffffffffffffffffffffffffffffff021916908373ffffffffffffffffffffffffffffffffffffffff1602179055508173ffffffffffffffffffffffffffffffffffffffff168173ffffffffffffffffffffffffffffffffffffffff167f8be0079c531659141344cd1fd0a4f28419497f9722a3daafe3b4186f6b6457e060405160405180910390a35050565b600073ffffffffffffffffffffffffffffffffffffffff168473ffffffffffffffffffffffffffffffffffffffff160361025b5760006040517f57f447ce0000000000000000000000000000000000000000000000000000000081526004016102529190610cb9565b60405180910390fd5b60008061026e858561028e60201b60201c565b915091506102866000878484876102be60201b60201c565b505050505050565b60608060405191506001825283602083015260408201905060018152826020820152604081016040529250929050565b6102d08585858561038860201b60201c565b600073ffffffffffffffffffffffffffffffffffffffff168473ffffffffffffffffffffffffffffffffffffffff161461038157600061031461073660201b60201c565b9050600184510361036a57600061033560008661073e60201b90919060201c565b9050600061034d60008661073e60201b90919060201c565b905061036383898985858961075260201b60201c565b505061037f565b61037e81878787878761090660201b60201c565b5b505b5050505050565b80518251146103d257815181516040517f5b0599910000000000000000000000000000000000000000000000000000000081526004016103c9929190610fd6565b60405180910390fd5b60006103e261073660201b60201c565b905060005b83518110156105f1576000610405828661073e60201b90919060201c565b9050600061041c838661073e60201b90919060201c565b9050600073ffffffffffffffffffffffffffffffffffffffff168873ffffffffffffffffffffffffffffffffffffffff161461054957600080600084815260200190815260200160002060008a73ffffffffffffffffffffffffffffffffffffffff1673ffffffffffffffffffffffffffffffffffffffff168152602001908152602001600020549050818110156104f157888183856040517f03dee4c50000000000000000000000000000000000000000000000000000000081526004016104e89493929190610fff565b60405180910390fd5b81810360008085815260200190815260200160002060008b73ffffffffffffffffffffffffffffffffffffffff1673ffffffffffffffffffffffffffffffffffffffff16815260200190815260200160002081905550505b600073ffffffffffffffffffffffffffffffffffffffff168773ffffffffffffffffffffffffffffffffffffffff16146105e4578060008084815260200190815260200160002060008973ffffffffffffffffffffffffffffffffffffffff1673ffffffffffffffffffffffffffffffffffffffff16815260200190815260200160002060008282546105dc9190611073565b925050819055505b50508060010190506103e7565b5060018351036106b057600061061160008561073e60201b90919060201c565b9050600061062960008561073e60201b90919060201c565b90508573ffffffffffffffffffffffffffffffffffffffff168773ffffffffffffffffffffffffffffffffffffffff168473ffffffffffffffffffffffffffffffffffffffff167fc3d58168c5ae7397731d063d5bbf3d657854427343f4c083240f7aacaa2d0f6285856040516106a1929190610fd6565b60405180910390a4505061072f565b8373ffffffffffffffffffffffffffffffffffffffff168573ffffffffffffffffffffffffffffffffffffffff168273ffffffffffffffffffffffffffffffffffffffff167f4a39dc06d4c0dbc64b70af90fd698a233a518aa5d07e595d983b8c0526c8f7fb8686604051610726929190611165565b60405180910390a45b5050505050565b600033905090565b600060208202602084010151905092915050565b60008473ffffffffffffffffffffffffffffffffffffffff163b11156108fe578373ffffffffffffffffffffffffffffffffffffffff1663f23a6e6187878686866040518663ffffffff1660e01b81526004016107b39594939291906111f1565b6020604051808303816000875af19250505080156107ef57506040513d601f19601f820116820180604052508101906107ec91906112a3565b60015b610873573d806000811461081f576040519150601f19603f3d011682016040523d82523d6000602084013e610824565b606091505b50600081510361086b57846040517f57f447ce0000000000000000000000000000000000000000000000000000000081526004016108629190610cb9565b60405180910390fd5b805181602001fd5b63f23a6e6160e01b7bffffffffffffffffffffffffffffffffffffffffffffffffffffffff1916817bffffffffffffffffffffffffffffffffffffffffffffffffffffffff1916146108fc57846040517f57f447ce0000000000000000000000000000000000000000000000000000000081526004016108f39190610cb9565b60405180910390fd5b505b505050505050565b60008473ffffffffffffffffffffffffffffffffffffffff163b1115610ab2578373ffffffffffffffffffffffffffffffffffffffff1663bc197c8187878686866040518663ffffffff1660e01b81526004016109679594939291906112d0565b6020604051808303816000875af19250505080156109a357506040513d601f19601f820116820180604052508101906109a091906112a3565b60015b610a27573d80600081146109d3576040519150601f19603f3d011682016040523d82523d6000602084013e6109d8565b606091505b506000815103610a1f57846040517f57f447ce000000000000000000000000000000000000000000000000000000008152600401610a169190610cb9565b60405180910390fd5b805181602001fd5b63bc197c8160e01b7bffffffffffffffffffffffffffffffffffffffffffffffffffffffff1916817bffffffffffffffffffffffffffffffffffffffffffffffffffffffff191614610ab057846040517f57f447ce000000000000000000000000000000000000000000000000000000008152600401610aa79190610cb9565b60405180910390fd5b505b505050505050565b6000604051905090565b600080fd5b600080fd5b600080fd5b600080fd5b6000601f19601f8301169050919050565b7f4e487b7100000000000000000000000000000000000000000000000000000000600052604160045260246000fd5b610b2182610ad8565b810181811067ffffffffffffffff82111715610b4057610b3f610ae9565b5b80604052505050565b6000610b53610aba565b9050610b5f8282610b18565b919050565b600067ffffffffffffffff821115610b7f57610b7e610ae9565b5b610b8882610ad8565b9050602081019050919050565b60005b83811015610bb3578082015181840152602081019050610b98565b60008484015250505050565b6000610bd2610bcd84610b64565b610b49565b905082815260208101848484011115610bee57610bed610ad3565b5b610bf9848285610b95565b509392505050565b600082601f830112610c1657610c15610ace565b5b8151610c26848260208601610bbf565b91505092915050565b600060208284031215610c4557610c44610ac4565b5b600082015167ffffffffffffffff811115610c6357610c62610ac9565b5b610c6f84828501610c01565b91505092915050565b600073ffffffffffffffffffffffffffffffffffffffff82169050919050565b6000610ca382610c78565b9050919050565b610cb381610c98565b82525050565b6000602082019050610cce6000830184610caa565b92915050565b600081519050919050565b7f4e487b7100000000000000000000000000000000000000000000000000000000600052602260045260246000fd5b60006002820490506001821680610d2657607f821691505b602082108103610d3957610d38610cdf565b5b50919050565b60008190508160005260206000209050919050565b60006020601f8301049050919050565b600082821b905092915050565b600060088302610da17fffffffffffffffffffffffffffffffffffffffffffffffffffffffffffffffff82610d64565b610dab8683610d64565b95508019841693508086168417925050509392505050565b6000819050919050565b6000819050919050565b6000610df2610ded610de884610dc3565b610dcd565b610dc3565b9050919050565b6000819050919050565b610e0c83610dd7565b610e20610e1882610df9565b848454610d71565b825550505050565b600090565b610e35610e28565b610e40818484610e03565b505050565b5b81811015610e6457610e59600082610e2d565b600181019050610e46565b5050565b601f821115610ea957610e7a81610d3f565b610e8384610d54565b81016020851015610e92578190505b610ea6610e9e85610d54565b830182610e45565b50505b505050565b600082821c905092915050565b6000610ecc60001984600802610eae565b1980831691505092915050565b6000610ee58383610ebb565b9150826002028217905092915050565b610efe82610cd4565b67ffffffffffffffff811115610f1757610f16610ae9565b5b610f218254610d0e565b610f2c828285610e68565b600060209050601f831160018114610f5f5760008415610f4d578287015190505b610f578582610ed9565b865550610fbf565b601f198416610f6d86610d3f565b60005b82811015610f9557848901518255600182019150602085019450602081019050610f70565b86831015610fb25784890151610fae601f891682610ebb565b8355505b6001600288020188555050505b505050505050565b610fd081610dc3565b82525050565b6000604082019050610feb6000830185610fc7565b610ff86020830184610fc7565b9392505050565b60006080820190506110146000830187610caa565b6110216020830186610fc7565b61102e6040830185610fc7565b61103b6060830184610fc7565b95945050505050565b7f4e487b7100000000000000000000000000000000000000000000000000000000600052601160045260246000fd5b600061107e82610dc3565b915061108983610dc3565b92508282019050808211156110a1576110a0611044565b5b92915050565b600081519050919050565b600082825260208201905092915050565b6000819050602082019050919050565b6110dc81610dc3565b82525050565b60006110ee83836110d3565b60208301905092915050565b6000602082019050919050565b6000611112826110a7565b61111c81856110b2565b9350611127836110c3565b8060005b8381101561115857815161113f88826110e2565b975061114a836110fa565b92505060018101905061112b565b5085935050505092915050565b6000604082019050818103600083015261117f8185611107565b905081810360208301526111938184611107565b90509392505050565b600081519050919050565b600082825260208201905092915050565b60006111c38261119c565b6111cd81856111a7565b93506111dd818560208601610b95565b6111e681610ad8565b840191505092915050565b600060a0820190506112066000830188610caa565b6112136020830187610caa565b6112206040830186610fc7565b61122d6060830185610fc7565b818103608083015261123f81846111b8565b90509695505050505050565b60007fffffffff0000000000000000000000000000000000000000000000000000000082169050919050565b6112808161124b565b811461128b57600080fd5b50565b60008151905061129d81611277565b92915050565b6000602082840312156112b9576112b8610ac4565b5b60006112c78482850161128e565b91505092915050565b600060a0820190506112e56000830188610caa565b6112f26020830187610caa565b81810360408301526113048186611107565b905081810360608301526113188185611107565b9050818103608083015261132c81846111b8565b90509695505050505050565b612a82806113476000396000f3fe608060405234801561001057600080fd5b50600436106100e95760003560e01c8063715018a61161008c578063e8a3d48511610066578063e8a3d48514610246578063e985e9c514610264578063f242432a14610294578063f2fde38b146102b0576100e9565b8063715018a6146102025780638da5cb5b1461020c578063a22cb4651461022a576100e9565b80630e89341c116100c85780630e89341c1461016a578063156e29f61461019a5780632eb2c2d6146101b65780634e1273f4146101d2576100e9565b8062fdd58e146100ee57806301ffc9a71461011e57806302fe53051461014e575b600080fd5b6101086004803603810190610103919061191c565b6102cc565b604051610115919061196b565b60405180910390f35b610138600480360381019061013391906119de565b610326565b6040516101459190611a26565b60405180910390f35b61016860048036038101906101639190611b87565b610408565b005b610184600480360381019061017f9190611bd0565b610423565b6040516101919190611c7c565b60405180910390f35b6101b460048036038101906101af9190611c9e565b610457565b005b6101d060048036038101906101cb9190611e5a565b61047f565b005b6101ec60048036038101906101e79190611fec565b610527565b6040516101f99190612122565b60405180910390f35b61020a610630565b005b610214610644565b6040516102219190612153565b60405180910390f35b610244600480360381019061023f919061219a565b61066e565b005b61024e610684565b60405161025b9190611c7c565b60405180910390f35b61027e600480360381019061027991906121da565b6106ac565b60405161028b9190611a26565b60405180910390f35b6102ae60048036038101906102a9919061221a565b610740565b005b6102ca60048036038101906102c591906122b1565b6107e8565b005b600080600083815260200190815260200160002060008473ffffffffffffffffffffffffffffffffffffffff1673ffffffffffffffffffffffffffffffffffffffff16815260200190815260200160002054905092915050565b60007fd9b67a26000000000000000000000000000000000000000000000000000000007bffffffffffffffffffffffffffffffffffffffffffffffffffffffff1916827bffffffffffffffffffffffffffffffffffffffffffffffffffffffff191614806103f157507f0e89341c000000000000000000000000000000000000000000000000000000007bffffffffffffffffffffffffffffffffffffffffffffffffffffffff1916827bffffffffffffffffffffffffffffffffffffffffffffffffffffffff1916145b8061040157506104008261086e565b5b9050919050565b6104106108d8565b806004908161041f91906124ea565b5050565b606060046104308361095f565b6040516020016104419291906126c7565b6040516020818303038152906040529050919050565b61045f6108d8565b61047a83838360405180602001604052806000815250610a2d565b505050565b6000610489610ac6565b90508073ffffffffffffffffffffffffffffffffffffffff168673ffffffffffffffffffffffffffffffffffffffff16141580156104ce57506104cc86826106ac565b155b156105125780866040517fe237d9220000000000000000000000000000000000000000000000000000000081526004016105099291906126f6565b60405180910390fd5b61051f8686868686610ace565b505050505050565b6060815183511461057357815183516040517f5b05999100000000000000000000000000000000000000000000000000000000815260040161056a92919061271f565b60405180910390fd5b6000835167ffffffffffffffff8111156105905761058f611a5c565b5b6040519080825280602002602001820160405280156105be5781602001602082028036833780820191505090505b50905060005b8451811015610625576105fb6105e38287610bc690919063ffffffff16565b6105f68387610bda90919063ffffffff16565b6102cc565b82828151811061060e5761060d612748565b5b6020026020010181815250508060010190506105c4565b508091505092915050565b6106386108d8565b6106426000610bee565b565b6000600360009054906101000a900473ffffffffffffffffffffffffffffffffffffffff16905090565b610680610679610ac6565b8383610cb4565b5050565b6060600460405160200161069891906127c3565b604051602081830303815290604052905090565b6000600160008473ffffffffffffffffffffffffffffffffffffffff1673ffffffffffffffffffffffffffffffffffffffff16815260200190815260200160002060008373ffffffffffffffffffffffffffffffffffffffff1673ffffffffffffffffffffffffffffffffffffffff16815260200190815260200160002060009054906101000a900460ff16905092915050565b600061074a610ac6565b90508073ffffffffffffffffffffffffffffffffffffffff168673ffffffffffffffffffffffffffffffffffffffff161415801561078f575061078d86826106ac565b155b156107d35780866040517fe237d9220000000000000000000000000000000000000000000000000000000081526004016107ca9291906126f6565b60405180910390fd5b6107e08686868686610e24565b505050505050565b6107f06108d8565b600073ffffffffffffffffffffffffffffffffffffffff168173ffffffffffffffffffffffffffffffffffffffff16036108625760006040517f1e4fbdf70000000000000000000000000000000000000000000000000000000081526004016108599190612153565b60405180910390fd5b61086b81610bee565b50565b60007f01ffc9a7000000000000000000000000000000000000000000000000000000007bffffffffffffffffffffffffffffffffffffffffffffffffffffffff1916827bffffffffffffffffffffffffffffffffffffffffffffffffffffffff1916149050919050565b6108e0610ac6565b73ffffffffffffffffffffffffffffffffffffffff166108fe610644565b73ffffffffffffffffffffffffffffffffffffffff161461095d57610921610ac6565b6040517f118cdaa70000000000000000000000000000000000000000000000000000000081526004016109549190612153565b60405180910390fd5b565b60606000600161096e84610f2f565b01905060008167ffffffffffffffff81111561098d5761098c611a5c565b5b6040519080825280601f01601f1916602001820160405280156109bf5781602001600182028036833780820191505090505b509050600082602001820190505b600115610a22578080600190039150507f3031323334353637383961626364656600000000000000000000000000000000600a86061a8153600a8581610a1657610a156127e5565b5b049450600085036109cd575b819350505050919050565b600073ffffffffffffffffffffffffffffffffffffffff168473ffffffffffffffffffffffffffffffffffffffff1603610a9f5760006040517f57f447ce000000000000000000000000000000000000000000000000000000008152600401610a969190612153565b60405180910390fd5b600080610aac8585611082565b91509150610abe6000878484876110b2565b505050505050565b600033905090565b600073ffffffffffffffffffffffffffffffffffffffff168473ffffffffffffffffffffffffffffffffffffffff1603610b405760006040517f57f447ce000000000000000000000000000000000000000000000000000000008152600401610b379190612153565b60405180910390fd5b600073ffffffffffffffffffffffffffffffffffffffff168573ffffffffffffffffffffffffffffffffffffffff1603610bb25760006040517f01a83514000000000000000000000000000000000000000000000000000000008152600401610ba99190612153565b60405180910390fd5b610bbf85858585856110b2565b5050505050565b600060208202602084010151905092915050565b600060208202602084010151905092915050565b6000600360009054906101000a900473ffffffffffffffffffffffffffffffffffffffff16905081600360006101000a81548173ffffffffffffffffffffffffffffffffffffffff021916908373ffffffffffffffffffffffffffffffffffffffff1602179055508173ffffffffffffffffffffffffffffffffffffffff168173ffffffffffffffffffffffffffffffffffffffff167f8be0079c531659141344cd1fd0a4f28419497f9722a3daafe3b4186f6b6457e060405160405180910390a35050565b600073ffffffffffffffffffffffffffffffffffffffff168273ffffffffffffffffffffffffffffffffffffffff1603610d265760006040517fced3e100000000000000000000000000000000000000000000000000000000008152600401610d1d9190612153565b60405180910390fd5b80600160008573ffffffffffffffffffffffffffffffffffffffff1673ffffffffffffffffffffffffffffffffffffffff16815260200190815260200160002060008473ffffffffffffffffffffffffffffffffffffffff1673ffffffffffffffffffffffffffffffffffffffff16815260200190815260200160002060006101000a81548160ff0219169083151502179055508173ffffffffffffffffffffffffffffffffffffffff168373ffffffffffffffffffffffffffffffffffffffff167f17307eab39ab6107e8899845ad3d59bd9653f200f220920489ca2b5937696c3183604051610e179190611a26565b60405180910390a3505050565b600073ffffffffffffffffffffffffffffffffffffffff168473ffffffffffffffffffffffffffffffffffffffff1603610e965760006040517f57f447ce000000000000000000000000000000000000000000000000000000008152600401610e8d9190612153565b60405180910390fd5b600073ffffffffffffffffffffffffffffffffffffffff168573ffffffffffffffffffffffffffffffffffffffff1603610f085760006040517f01a83514000000000000000000000000000000000000000000000000000000008152600401610eff9190612153565b60405180910390fd5b600080610f158585611082565b91509150610f2687878484876110b2565b50505050505050565b600080600090507a184f03e93ff9f4daa797ed6e38ed64bf6a1f0100000000000000008310610f8d577a184f03e93ff9f4daa797ed6e38ed64bf6a1f0100000000000000008381610f8357610f826127e5565b5b0492506040810190505b6d04ee2d6d415b85acef81000000008310610fca576d04ee2d6d415b85acef81000000008381610fc057610fbf6127e5565b5b0492506020810190505b662386f26fc100008310610ff957662386f26fc100008381610fef57610fee6127e5565b5b0492506010810190505b6305f5e1008310611022576305f5e1008381611018576110176127e5565b5b0492506008810190505b612710831061104757612710838161103d5761103c6127e5565b5b0492506004810190505b6064831061106a57606483816110605761105f6127e5565b5b0492506002810190505b600a8310611079576001810190505b80915050919050565b60608060405191506001825283602083015260408201905060018152826020820152604081016040529250929050565b6110be85858585611164565b600073ffffffffffffffffffffffffffffffffffffffff168473ffffffffffffffffffffffffffffffffffffffff161461115d5760006110fc610ac6565b9050600184510361114c57600061111d600086610bda90919063ffffffff16565b90506000611135600086610bda90919063ffffffff16565b905061114583898985858961150c565b505061115b565b61115a8187878787876116c0565b5b505b5050505050565b80518251146111ae57815181516040517f5b0599910000000000000000000000000000000000000000000000000000000081526004016111a592919061271f565b60405180910390fd5b60006111b8610ac6565b905060005b83518110156113c75760006111db8286610bda90919063ffffffff16565b905060006111f28386610bda90919063ffffffff16565b9050600073ffffffffffffffffffffffffffffffffffffffff168873ffffffffffffffffffffffffffffffffffffffff161461131f57600080600084815260200190815260200160002060008a73ffffffffffffffffffffffffffffffffffffffff1673ffffffffffffffffffffffffffffffffffffffff168152602001908152602001600020549050818110156112c757888183856040517f03dee4c50000000000000000000000000000000000000000000000000000000081526004016112be9493929190612814565b60405180910390fd5b81810360008085815260200190815260200160002060008b73ffffffffffffffffffffffffffffffffffffffff1673ffffffffffffffffffffffffffffffffffffffff16815260200190815260200160002081905550505b600073ffffffffffffffffffffffffffffffffffffffff168773ffffffffffffffffffffffffffffffffffffffff16146113ba578060008084815260200190815260200160002060008973ffffffffffffffffffffffffffffffffffffffff1673ffffffffffffffffffffffffffffffffffffffff16815260200190815260200160002060008282546113b29190612888565b925050819055505b50508060010190506111bd565b5060018351036114865760006113e7600085610bda90919063ffffffff16565b905060006113ff600085610bda90919063ffffffff16565b90508573ffffffffffffffffffffffffffffffffffffffff168773ffffffffffffffffffffffffffffffffffffffff168473ffffffffffffffffffffffffffffffffffffffff167fc3d58168c5ae7397731d063d5bbf3d657854427343f4c083240f7aacaa2d0f62858560405161147792919061271f565b60405180910390a45050611505565b8373ffffffffffffffffffffffffffffffffffffffff168573ffffffffffffffffffffffffffffffffffffffff168273ffffffffffffffffffffffffffffffffffffffff167f4a39dc06d4c0dbc64b70af90fd698a233a518aa5d07e595d983b8c0526c8f7fb86866040516114fc9291906128bc565b60405180910390a45b5050505050565b60008473ffffffffffffffffffffffffffffffffffffffff163b11156116b8578373ffffffffffffffffffffffffffffffffffffffff1663f23a6e6187878686866040518663ffffffff1660e01b815260040161156d959493929190612948565b6020604051808303816000875af19250505080156115a957506040513d601f19601f820116820180604052508101906115a691906129b7565b60015b61162d573d80600081146115d9576040519150601f19603f3d011682016040523d82523d6000602084013e6115de565b606091505b50600081510361162557846040517f57f447ce00000000000000000000000000000000000000000000000000000000815260040161161c9190612153565b60405180910390fd5b805181602001fd5b63f23a6e6160e01b7bffffffffffffffffffffffffffffffffffffffffffffffffffffffff1916817bffffffffffffffffffffffffffffffffffffffffffffffffffffffff1916146116b657846040517f57f447ce0000000000000000000000000000000000000000000000000000000081526004016116ad9190612153565b60405180910390fd5b505b505050505050565b60008473ffffffffffffffffffffffffffffffffffffffff163b111561186c578373ffffffffffffffffffffffffffffffffffffffff1663bc197c8187878686866040518663ffffffff1660e01b81526004016117219594939291906129e4565b6020604051808303816000875af192505050801561175d57506040513d601f19601f8201168201806040525081019061175a91906129b7565b60015b6117e1573d806000811461178d576040519150601f19603f3d011682016040523d82523d6000602084013e611792565b606091505b5060008151036117d957846040517f57f447ce0000000000000000000000000000000000000000000000000000000081526004016117d09190612153565b60405180910390fd5b805181602001fd5b63bc197c8160e01b7bffffffffffffffffffffffffffffffffffffffffffffffffffffffff1916817bffffffffffffffffffffffffffffffffffffffffffffffffffffffff19161461186a57846040517f57f447ce0000000000000000000000000000000000000000000000000000000081526004016118619190612153565b60405180910390fd5b505b505050505050565b6000604051905090565b600080fd5b600080fd5b600073ffffffffffffffffffffffffffffffffffffffff82169050919050565b60006118b382611888565b9050919050565b6118c3816118a8565b81146118ce57600080fd5b50565b6000813590506118e0816118ba565b92915050565b6000819050919050565b6118f9816118e6565b811461190457600080fd5b50565b600081359050611916816118f0565b92915050565b600080604083850312156119335761193261187e565b5b6000611941858286016118d1565b925050602061195285828601611907565b9150509250929050565b611965816118e6565b82525050565b6000602082019050611980600083018461195c565b92915050565b60007fffffffff0000000000000000000000000000000000000000000000000000000082169050919050565b6119bb81611986565b81146119c657600080fd5b50565b6000813590506119d8816119b2565b92915050565b6000602082840312156119f4576119f361187e565b5b6000611a02848285016119c9565b91505092915050565b60008115159050919050565b611a2081611a0b565b82525050565b6000602082019050611a3b6000830184611a17565b92915050565b600080fd5b600080fd5b6000601f19601f8301169050919050565b7f4e487b7100000000000000000000000000000000000000000000000000000000600052604160045260246000fd5b611a9482611a4b565b810181811067ffffffffffffffff82111715611ab357611ab2611a5c565b5b80604052505050565b6000611ac6611874565b9050611ad28282611a8b565b919050565b600067ffffffffffffffff821115611af257611af1611a5c565b5b611afb82611a4b565b9050602081019050919050565b82818337600083830152505050565b6000611b2a611b2584611ad7565b611abc565b905082815260208101848484011115611b4657611b45611a46565b5b611b51848285611b08565b509392505050565b600082601f830112611b6e57611b6d611a41565b5b8135611b7e848260208601611b17565b91505092915050565b600060208284031215611b9d57611b9c61187e565b5b600082013567ffffffffffffffff811115611bbb57611bba611883565b5b611bc784828501611b59565b91505092915050565b600060208284031215611be657611be561187e565b5b6000611bf484828501611907565b91505092915050565b600081519050919050565b600082825260208201905092915050565b60005b83811015611c37578082015181840152602081019050611c1c565b60008484015250505050565b6000611c4e82611bfd565b611c588185611c08565b9350611c68818560208601611c19565b611c7181611a4b565b840191505092915050565b60006020820190508181036000830152611c968184611c43565b905092915050565b600080600060608486031215611cb757611cb661187e565b5b6000611cc5868287016118d1565b9350506020611cd686828701611907565b9250506040611ce786828701611907565b9150509250925092565b600067ffffffffffffffff821115611d0c57611d0b611a5c565b5b602082029050602081019050919050565b600080fd5b6000611d35611d3084611cf1565b611abc565b90508083825260208201905060208402830185811115611d5857611d57611d1d565b5b835b81811015611d815780611d6d8882611907565b845260208401935050602081019050611d5a565b5050509392505050565b600082601f830112611da057611d9f611a41565b5b8135611db0848260208601611d22565b91505092915050565b600067ffffffffffffffff821115611dd457611dd3611a5c565b5b611ddd82611a4b565b9050602081019050919050565b6000611dfd611df884611db9565b611abc565b905082815260208101848484011115611e1957611e18611a46565b5b611e24848285611b08565b509392505050565b600082601f830112611e4157611e40611a41565b5b8135611e51848260208601611dea565b91505092915050565b600080600080600060a08688031215611e7657611e7561187e565b5b6000611e84888289016118d1565b9550506020611e95888289016118d1565b945050604086013567ffffffffffffffff811115611eb657611eb5611883565b5b611ec288828901611d8b565b935050606086013567ffffffffffffffff811115611ee357611ee2611883565b5b611eef88828901611d8b565b925050608086013567ffffffffffffffff811115611f1057611f0f611883565b5b611f1c88828901611e2c565b9150509295509295909350565b600067ffffffffffffffff821115611f4457611f43611a5c565b5b602082029050602081019050919050565b6000611f68611f6384611f29565b611abc565b90508083825260208201905060208402830185811115611f8b57611f8a611d1d565b5b835b81811015611fb45780611fa088826118d1565b845260208401935050602081019050611f8d565b5050509392505050565b600082601f830112611fd357611fd2611a41565b5b8135611fe3848260208601611f55565b91505092915050565b600080604083850312156120035761200261187e565b5b600083013567ffffffffffffffff81111561202157612020611883565b5b61202d85828601611fbe565b925050602083013567ffffffffffffffff81111561204e5761204d611883565b5b61205a85828601611d8b565b9150509250929050565b600081519050919050565b600082825260208201905092915050565b6000819050602082019050919050565b612099816118e6565b82525050565b60006120ab8383612090565b60208301905092915050565b6000602082019050919050565b60006120cf82612064565b6120d9818561206f565b93506120e483612080565b8060005b838110156121155781516120fc888261209f565b9750612107836120b7565b9250506001810190506120e8565b5085935050505092915050565b6000602082019050818103600083015261213c81846120c4565b905092915050565b61214d816118a8565b82525050565b60006020820190506121686000830184612144565b92915050565b61217781611a0b565b811461218257600080fd5b50565b6000813590506121948161216e565b92915050565b600080604083850312156121b1576121b061187e565b5b60006121bf858286016118d1565b92505060206121d085828601612185565b9150509250929050565b600080604083850312156121f1576121f061187e565b5b60006121ff858286016118d1565b9250506020612210858286016118d1565b9150509250929050565b600080600080600060a086880312156122365761223561187e565b5b6000612244888289016118d1565b9550506020612255888289016118d1565b945050604061226688828901611907565b935050606061227788828901611907565b925050608086013567ffffffffffffffff81111561229857612297611883565b5b6122a488828901611e2c565b9150509295509295909350565b6000602082840312156122c7576122c661187e565b5b60006122d5848285016118d1565b91505092915050565b7f4e487b7100000000000000000000000000000000000000000000000000000000600052602260045260246000fd5b6000600282049050600182168061232557607f821691505b602082108103612338576123376122de565b5b50919050565b60008190508160005260206000209050919050565b60006020601f8301049050919050565b600082821b905092915050565b6000600883026123a07fffffffffffffffffffffffffffffffffffffffffffffffffffffffffffffffff82612363565b6123aa8683612363565b95508019841693508086168417925050509392505050565b6000819050919050565b60006123e76123e26123dd846118e6565b6123c2565b6118e6565b9050919050565b6000819050919050565b612401836123cc565b61241561240d826123ee565b848454612370565b825550505050565b600090565b61242a61241d565b6124358184846123f8565b505050565b5b818110156124595761244e600082612422565b60018101905061243b565b5050565b601f82111561249e5761246f8161233e565b61247884612353565b81016020851015612487578190505b61249b61249385612353565b83018261243a565b50505b505050565b600082821c905092915050565b60006124c1600019846008026124a3565b1980831691505092915050565b60006124da83836124b0565b9150826002028217905092915050565b6124f382611bfd565b67ffffffffffffffff81111561250c5761250b611a5c565b5b612516825461230d565b61252182828561245d565b600060209050601f8311600181146125545760008415612542578287015190505b61254c85826124ce565b8655506125b4565b601f1984166125628661233e565b60005b8281101561258a57848901518255600182019150602085019450602081019050612565565b868310156125a757848901516125a3601f8916826124b0565b8355505b6001600288020188555050505b505050505050565b600081905092915050565b600081546125d48161230d565b6125de81866125bc565b945060018216600081146125f9576001811461260e57612641565b60ff1983168652811515820286019350612641565b6126178561233e565b60005b838110156126395781548189015260018201915060208101905061261a565b838801955050505b50505092915050565b600061265582611bfd565b61265f81856125bc565b935061266f818560208601611c19565b80840191505092915050565b7f2e6a736f6e000000000000000000000000000000000000000000000000000000600082015250565b60006126b16005836125bc565b91506126bc8261267b565b600582019050919050565b60006126d382856125c7565b91506126df828461264a565b91506126ea826126a4565b91508190509392505050565b600060408201905061270b6000830185612144565b6127186020830184612144565b9392505050565b6000604082019050612734600083018561195c565b612741602083018461195c565b9392505050565b7f4e487b7100000000000000000000000000000000000000000000000000000000600052603260045260246000fd5b7f636f6c6c656374696f6e2e6a736f6e0000000000000000000000000000000000600082015250565b60006127ad600f836125bc565b91506127b882612777565b600f82019050919050565b60006127cf82846125c7565b91506127da826127a0565b915081905092915050565b7f4e487b7100000000000000000000000000000000000000000000000000000000600052601260045260246000fd5b60006080820190506128296000830187612144565b612836602083018661195c565b612843604083018561195c565b612850606083018461195c565b95945050505050565b7f4e487b7100000000000000000000000000000000000000000000000000000000600052601160045260246000fd5b6000612893826118e6565b915061289e836118e6565b92508282019050808211156128b6576128b5612859565b5b92915050565b600060408201905081810360008301526128d681856120c4565b905081810360208301526128ea81846120c4565b90509392505050565b600081519050919050565b600082825260208201905092915050565b600061291a826128f3565b61292481856128fe565b9350612934818560208601611c19565b61293d81611a4b565b840191505092915050565b600060a08201905061295d6000830188612144565b61296a6020830187612144565b612977604083018661195c565b612984606083018561195c565b8181036080830152612996818461290f565b90509695505050505050565b6000815190506129b1816119b2565b92915050565b6000602082840312156129cd576129cc61187e565b5b60006129db848285016129a2565b91505092915050565b600060a0820190506129f96000830188612144565b612a066020830187612144565b8181036040830152612a1881866120c4565b90508181036060830152612a2c81856120c4565b90508181036080830152612a40818461290f565b9050969550505050505056fea2646970667358221220c2759e2b35234cf822ee0efabcd88b38a35aa672a8cb69cdecb976b2a31cb6c364736f6c634300081c0033","opcodes":"PUSH1 0x80 PUSH1 0x40 MSTORE CALLVALUE DUP1 ISZERO PUSH2 0x10 JUMPI PUSH1 0x0 DUP1 REVERT JUMPDEST POP PUSH1 0x40 MLOAD PUSH2 0x3DC9 CODESIZE SUB DUP1 PUSH2 0x3DC9 DUP4 CODECOPY DUP2 DUP2 ADD PUSH1 0x40 MSTORE DUP2 ADD SWAP1 PUSH2 0x32 SWAP2 SWAP1 PUSH2 0xC2F JUMP JUMPDEST CALLER PUSH1 0x40 MLOAD DUP1 PUSH1 0x20 ADD PUSH1 0x40 MSTORE DUP1 PUSH1 0x0 DUP2 MSTORE POP PUSH2 0x52 DUP2 PUSH2 0x110 PUSH1 0x20 SHL PUSH1 0x20 SHR JUMP JUMPDEST POP PUSH1 0x0 PUSH20 0xFFFFFFFFFFFFFFFFFFFFFFFFFFFFFFFFFFFFFFFF AND DUP2 PUSH20 0xFFFFFFFFFFFFFFFFFFFFFFFFFFFFFFFFFFFFFFFF AND SUB PUSH2 0xC5 JUMPI PUSH1 0x0 PUSH1 0x40 MLOAD PUSH32 0x1E4FBDF700000000000000000000000000000000000000000000000000000000 DUP2 MSTORE PUSH1 0x4 ADD PUSH2 0xBC SWAP2 SWAP1 PUSH2 0xCB9 JUMP JUMPDEST PUSH1 0x40 MLOAD DUP1 SWAP2 SUB SWAP1 REVERT JUMPDEST PUSH2 0xD4 DUP2 PUSH2 0x123 PUSH1 0x20 SHL PUSH1 0x20 SHR JUMP JUMPDEST POP DUP1 PUSH1 0x4 SWAP1 DUP2 PUSH2 0xE4 SWAP2 SWAP1 PUSH2 0xEF5 JUMP JUMPDEST POP PUSH2 0x10A CALLER PUSH1 0x0 PUSH3 0x186A0 PUSH1 0x40 MLOAD DUP1 PUSH1 0x20 ADD PUSH1 0x40 MSTORE DUP1 PUSH1 0x0 DUP2 MSTORE POP PUSH2 0x1E9 PUSH1 0x20 SHL PUSH1 0x20 SHR JUMP JUMPDEST POP PUSH2 0x1338 JUMP JUMPDEST DUP1 PUSH1 0x2 SWAP1 DUP2 PUSH2 0x11F SWAP2 SWAP1 PUSH2 0xEF5 JUMP JUMPDEST POP POP JUMP JUMPDEST PUSH1 0x0 PUSH1 0x3 PUSH1 0x0 SWAP1 SLOAD SWAP1 PUSH2 0x100 EXP SWAP1 DIV PUSH20 0xFFFFFFFFFFFFFFFFFFFFFFFFFFFFFFFFFFFFFFFF AND SWAP1 POP DUP2 PUSH1 0x3 PUSH1 0x0 PUSH2 0x100 EXP DUP2 SLOAD DUP2 PUSH20 0xFFFFFFFFFFFFFFFFFFFFFFFFFFFFFFFFFFFFFFFF MUL NOT AND SWAP1 DUP4 PUSH20 0xFFFFFFFFFFFFFFFFFFFFFFFFFFFFFFFFFFFFFFFF AND MUL OR SWAP1 SSTORE POP DUP2 PUSH20 0xFFFFFFFFFFFFFFFFFFFFFFFFFFFFFFFFFFFFFFFF AND DUP2 PUSH20 0xFFFFFFFFFFFFFFFFFFFFFFFFFFFFFFFFFFFFFFFF AND PUSH32 0x8BE0079C531659141344CD1FD0A4F28419497F9722A3DAAFE3B4186F6B6457E0 PUSH1 0x40 MLOAD PUSH1 0x40 MLOAD DUP1 SWAP2 SUB SWAP1 LOG3 POP POP JUMP JUMPDEST PUSH1 0x0 PUSH20 0xFFFFFFFFFFFFFFFFFFFFFFFFFFFFFFFFFFFFFFFF AND DUP5 PUSH20 0xFFFFFFFFFFFFFFFFFFFFFFFFFFFFFFFFFFFFFFFF AND SUB PUSH2 0x25B JUMPI PUSH1 0x0 PUSH1 0x40 MLOAD PUSH32 0x57F447CE00000000000000000000000000000000000000000000000000000000 DUP2 MSTORE PUSH1 0x4 ADD PUSH2 0x252 SWAP2 SWAP1 PUSH2 0xCB9 JUMP JUMPDEST PUSH1 0x40 MLOAD DUP1 SWAP2 SUB SWAP1 REVERT JUMPDEST PUSH1 0x0 DUP1 PUSH2 0x26E DUP6 DUP6 PUSH2 0x28E PUSH1 0x20 SHL PUSH1 0x20 SHR JUMP JUMPDEST SWAP2 POP SWAP2 POP PUSH2 0x286 PUSH1 0x0 DUP8 DUP5 DUP5 DUP8 PUSH2 0x2BE PUSH1 0x20 SHL PUSH1 0x20 SHR JUMP JUMPDEST POP POP POP POP POP POP JUMP JUMPDEST PUSH1 0x60 DUP1 PUSH1 0x40 MLOAD SWAP2 POP PUSH1 0x1 DUP3 MSTORE DUP4 PUSH1 0x20 DUP4 ADD MSTORE PUSH1 0x40 DUP3 ADD SWAP1 POP PUSH1 0x1 DUP2 MSTORE DUP3 PUSH1 0x20 DUP3 ADD MSTORE PUSH1 0x40 DUP2 ADD PUSH1 0x40 MSTORE SWAP3 POP SWAP3 SWAP1 POP JUMP JUMPDEST PUSH2 0x2D0 DUP6 DUP6 DUP6 DUP6 PUSH2 0x388 PUSH1 0x20 SHL PUSH1 0x20 SHR JUMP JUMPDEST PUSH1 0x0 PUSH20 0xFFFFFFFFFFFFFFFFFFFFFFFFFFFFFFFFFFFFFFFF AND DUP5 PUSH20 0xFFFFFFFFFFFFFFFFFFFFFFFFFFFFFFFFFFFFFFFF AND EQ PUSH2 0x381 JUMPI PUSH1 0x0 PUSH2 0x314 PUSH2 0x736 PUSH1 0x20 SHL PUSH1 0x20 SHR JUMP JUMPDEST SWAP1 POP PUSH1 0x1 DUP5 MLOAD SUB PUSH2 0x36A JUMPI PUSH1 0x0 PUSH2 0x335 PUSH1 0x0 DUP7 PUSH2 0x73E PUSH1 0x20 SHL SWAP1 SWAP2 SWAP1 PUSH1 0x20 SHR JUMP JUMPDEST SWAP1 POP PUSH1 0x0 PUSH2 0x34D PUSH1 0x0 DUP7 PUSH2 0x73E PUSH1 0x20 SHL SWAP1 SWAP2 SWAP1 PUSH1 0x20 SHR JUMP JUMPDEST SWAP1 POP PUSH2 0x363 DUP4 DUP10 DUP10 DUP6 DUP6 DUP10 PUSH2 0x752 PUSH1 0x20 SHL PUSH1 0x20 SHR JUMP JUMPDEST POP POP PUSH2 0x37F JUMP JUMPDEST PUSH2 0x37E DUP2 DUP8 DUP8 DUP8 DUP8 DUP8 PUSH2 0x906 PUSH1 0x20 SHL PUSH1 0x20 SHR JUMP JUMPDEST JUMPDEST POP JUMPDEST POP POP POP POP POP JUMP JUMPDEST DUP1 MLOAD DUP3 MLOAD EQ PUSH2 0x3D2 JUMPI DUP2 MLOAD DUP2 MLOAD PUSH1 0x40 MLOAD PUSH32 0x5B05999100000000000000000000000000000000000000000000000000000000 DUP2 MSTORE PUSH1 0x4 ADD PUSH2 0x3C9 SWAP3 SWAP2 SWAP1 PUSH2 0xFD6 JUMP JUMPDEST PUSH1 0x40 MLOAD DUP1 SWAP2 SUB SWAP1 REVERT JUMPDEST PUSH1 0x0 PUSH2 0x3E2 PUSH2 0x736 PUSH1 0x20 SHL PUSH1 0x20 SHR JUMP JUMPDEST SWAP1 POP PUSH1 0x0 JUMPDEST DUP4 MLOAD DUP2 LT ISZERO PUSH2 0x5F1 JUMPI PUSH1 0x0 PUSH2 0x405 DUP3 DUP7 PUSH2 0x73E PUSH1 0x20 SHL SWAP1 SWAP2 SWAP1 PUSH1 0x20 SHR JUMP JUMPDEST SWAP1 POP PUSH1 0x0 PUSH2 0x41C DUP4 DUP7 PUSH2 0x73E PUSH1 0x20 SHL SWAP1 SWAP2 SWAP1 PUSH1 0x20 SHR JUMP JUMPDEST SWAP1 POP PUSH1 0x0 PUSH20 0xFFFFFFFFFFFFFFFFFFFFFFFFFFFFFFFFFFFFFFFF AND DUP9 PUSH20 0xFFFFFFFFFFFFFFFFFFFFFFFFFFFFFFFFFFFFFFFF AND EQ PUSH2 0x549 JUMPI PUSH1 0x0 DUP1 PUSH1 0x0 DUP5 DUP2 MSTORE PUSH1 0x20 ADD SWAP1 DUP2 MSTORE PUSH1 0x20 ADD PUSH1 0x0 KECCAK256 PUSH1 0x0 DUP11 PUSH20 0xFFFFFFFFFFFFFFFFFFFFFFFFFFFFFFFFFFFFFFFF AND PUSH20 0xFFFFFFFFFFFFFFFFFFFFFFFFFFFFFFFFFFFFFFFF AND DUP2 MSTORE PUSH1 0x20 ADD SWAP1 DUP2 MSTORE PUSH1 0x20 ADD PUSH1 0x0 KECCAK256 SLOAD SWAP1 POP DUP2 DUP2 LT ISZERO PUSH2 0x4F1 JUMPI DUP9 DUP2 DUP4 DUP6 PUSH1 0x40 MLOAD PUSH32 0x3DEE4C500000000000000000000000000000000000000000000000000000000 DUP2 MSTORE PUSH1 0x4 ADD PUSH2 0x4E8 SWAP5 SWAP4 SWAP3 SWAP2 SWAP1 PUSH2 0xFFF JUMP JUMPDEST PUSH1 0x40 MLOAD DUP1 SWAP2 SUB SWAP1 REVERT JUMPDEST DUP2 DUP2 SUB PUSH1 0x0 DUP1 DUP6 DUP2 MSTORE PUSH1 0x20 ADD SWAP1 DUP2 MSTORE PUSH1 0x20 ADD PUSH1 0x0 KECCAK256 PUSH1 0x0 DUP12 PUSH20 0xFFFFFFFFFFFFFFFFFFFFFFFFFFFFFFFFFFFFFFFF AND PUSH20 0xFFFFFFFFFFFFFFFFFFFFFFFFFFFFFFFFFFFFFFFF AND DUP2 MSTORE PUSH1 0x20 ADD SWAP1 DUP2 MSTORE PUSH1 0x20 ADD PUSH1 0x0 KECCAK256 DUP2 SWAP1 SSTORE POP POP JUMPDEST PUSH1 0x0 PUSH20 0xFFFFFFFFFFFFFFFFFFFFFFFFFFFFFFFFFFFFFFFF AND DUP8 PUSH20 0xFFFFFFFFFFFFFFFFFFFFFFFFFFFFFFFFFFFFFFFF AND EQ PUSH2 0x5E4 JUMPI DUP1 PUSH1 0x0 DUP1 DUP5 DUP2 MSTORE PUSH1 0x20 ADD SWAP1 DUP2 MSTORE PUSH1 0x20 ADD PUSH1 0x0 KECCAK256 PUSH1 0x0 DUP10 PUSH20 0xFFFFFFFFFFFFFFFFFFFFFFFFFFFFFFFFFFFFFFFF AND PUSH20 0xFFFFFFFFFFFFFFFFFFFFFFFFFFFFFFFFFFFFFFFF AND DUP2 MSTORE PUSH1 0x20 ADD SWAP1 DUP2 MSTORE PUSH1 0x20 ADD PUSH1 0x0 KECCAK256 PUSH1 0x0 DUP3 DUP3 SLOAD PUSH2 0x5DC SWAP2 SWAP1 PUSH2 0x1073 JUMP JUMPDEST SWAP3 POP POP DUP2 SWAP1 SSTORE POP JUMPDEST POP POP DUP1 PUSH1 0x1 ADD SWAP1 POP PUSH2 0x3E7 JUMP JUMPDEST POP PUSH1 0x1 DUP4 MLOAD SUB PUSH2 0x6B0 JUMPI PUSH1 0x0 PUSH2 0x611 PUSH1 0x0 DUP6 PUSH2 0x73E PUSH1 0x20 SHL SWAP1 SWAP2 SWAP1 PUSH1 0x20 SHR JUMP JUMPDEST SWAP1 POP PUSH1 0x0 PUSH2 0x629 PUSH1 0x0 DUP6 PUSH2 0x73E PUSH1 0x20 SHL SWAP1 SWAP2 SWAP1 PUSH1 0x20 SHR JUMP JUMPDEST SWAP1 POP DUP6 PUSH20 0xFFFFFFFFFFFFFFFFFFFFFFFFFFFFFFFFFFFFFFFF AND DUP8 PUSH20 0xFFFFFFFFFFFFFFFFFFFFFFFFFFFFFFFFFFFFFFFF AND DUP5 PUSH20 0xFFFFFFFFFFFFFFFFFFFFFFFFFFFFFFFFFFFFFFFF AND PUSH32 0xC3D58168C5AE7397731D063D5BBF3D657854427343F4C083240F7AACAA2D0F62 DUP6 DUP6 PUSH1 0x40 MLOAD PUSH2 0x6A1 SWAP3 SWAP2 SWAP1 PUSH2 0xFD6 JUMP JUMPDEST PUSH1 0x40 MLOAD DUP1 SWAP2 SUB SWAP1 LOG4 POP POP PUSH2 0x72F JUMP JUMPDEST DUP4 PUSH20 0xFFFFFFFFFFFFFFFFFFFFFFFFFFFFFFFFFFFFFFFF AND DUP6 PUSH20 0xFFFFFFFFFFFFFFFFFFFFFFFFFFFFFFFFFFFFFFFF AND DUP3 PUSH20 0xFFFFFFFFFFFFFFFFFFFFFFFFFFFFFFFFFFFFFFFF AND PUSH32 0x4A39DC06D4C0DBC64B70AF90FD698A233A518AA5D07E595D983B8C0526C8F7FB DUP7 DUP7 PUSH1 0x40 MLOAD PUSH2 0x726 SWAP3 SWAP2 SWAP1 PUSH2 0x1165 JUMP JUMPDEST PUSH1 0x40 MLOAD DUP1 SWAP2 SUB SWAP1 LOG4 JUMPDEST POP POP POP POP POP JUMP JUMPDEST PUSH1 0x0 CALLER SWAP1 POP SWAP1 JUMP JUMPDEST PUSH1 0x0 PUSH1 0x20 DUP3 MUL PUSH1 0x20 DUP5 ADD ADD MLOAD SWAP1 POP SWAP3 SWAP2 POP POP JUMP JUMPDEST PUSH1 0x0 DUP5 PUSH20 0xFFFFFFFFFFFFFFFFFFFFFFFFFFFFFFFFFFFFFFFF AND EXTCODESIZE GT ISZERO PUSH2 0x8FE JUMPI DUP4 PUSH20 0xFFFFFFFFFFFFFFFFFFFFFFFFFFFFFFFFFFFFFFFF AND PUSH4 0xF23A6E61 DUP8 DUP8 DUP7 DUP7 DUP7 PUSH1 0x40 MLOAD DUP7 PUSH4 0xFFFFFFFF AND PUSH1 0xE0 SHL DUP2 MSTORE PUSH1 0x4 ADD PUSH2 0x7B3 SWAP6 SWAP5 SWAP4 SWAP3 SWAP2 SWAP1 PUSH2 0x11F1 JUMP JUMPDEST PUSH1 0x20 PUSH1 0x40 MLOAD DUP1 DUP4 SUB DUP2 PUSH1 0x0 DUP8 GAS CALL SWAP3 POP POP POP DUP1 ISZERO PUSH2 0x7EF JUMPI POP PUSH1 0x40 MLOAD RETURNDATASIZE PUSH1 0x1F NOT PUSH1 0x1F DUP3 ADD AND DUP3 ADD DUP1 PUSH1 0x40 MSTORE POP DUP2 ADD SWAP1 PUSH2 0x7EC SWAP2 SWAP1 PUSH2 0x12A3 JUMP JUMPDEST PUSH1 0x1 JUMPDEST PUSH2 0x873 JUMPI RETURNDATASIZE DUP1 PUSH1 0x0 DUP2 EQ PUSH2 0x81F JUMPI PUSH1 0x40 MLOAD SWAP2 POP PUSH1 0x1F NOT PUSH1 0x3F RETURNDATASIZE ADD AND DUP3 ADD PUSH1 0x40 MSTORE RETURNDATASIZE DUP3 MSTORE RETURNDATASIZE PUSH1 0x0 PUSH1 0x20 DUP5 ADD RETURNDATACOPY PUSH2 0x824 JUMP JUMPDEST PUSH1 0x60 SWAP2 POP JUMPDEST POP PUSH1 0x0 DUP2 MLOAD SUB PUSH2 0x86B JUMPI DUP5 PUSH1 0x40 MLOAD PUSH32 0x57F447CE00000000000000000000000000000000000000000000000000000000 DUP2 MSTORE PUSH1 0x4 ADD PUSH2 0x862 SWAP2 SWAP1 PUSH2 0xCB9 JUMP JUMPDEST PUSH1 0x40 MLOAD DUP1 SWAP2 SUB SWAP1 REVERT JUMPDEST DUP1 MLOAD DUP2 PUSH1 0x20 ADD REVERT JUMPDEST PUSH4 0xF23A6E61 PUSH1 0xE0 SHL PUSH28 0xFFFFFFFFFFFFFFFFFFFFFFFFFFFFFFFFFFFFFFFFFFFFFFFFFFFFFFFF NOT AND DUP2 PUSH28 0xFFFFFFFFFFFFFFFFFFFFFFFFFFFFFFFFFFFFFFFFFFFFFFFFFFFFFFFF NOT AND EQ PUSH2 0x8FC JUMPI DUP5 PUSH1 0x40 MLOAD PUSH32 0x57F447CE00000000000000000000000000000000000000000000000000000000 DUP2 MSTORE PUSH1 0x4 ADD PUSH2 0x8F3 SWAP2 SWAP1 PUSH2 0xCB9 JUMP JUMPDEST PUSH1 0x40 MLOAD DUP1 SWAP2 SUB SWAP1 REVERT JUMPDEST POP JUMPDEST POP POP POP POP POP POP JUMP JUMPDEST PUSH1 0x0 DUP5 PUSH20 0xFFFFFFFFFFFFFFFFFFFFFFFFFFFFFFFFFFFFFFFF AND EXTCODESIZE GT ISZERO PUSH2 0xAB2 JUMPI DUP4 PUSH20 0xFFFFFFFFFFFFFFFFFFFFFFFFFFFFFFFFFFFFFFFF AND PUSH4 0xBC197C81 DUP8 DUP8 DUP7 DUP7 DUP7 PUSH1 0x40 MLOAD DUP7 PUSH4 0xFFFFFFFF AND PUSH1 0xE0 SHL DUP2 MSTORE PUSH1 0x4 ADD PUSH2 0x967 SWAP6 SWAP5 SWAP4 SWAP3 SWAP2 SWAP1 PUSH2 0x12D0 JUMP JUMPDEST PUSH1 0x20 PUSH1 0x40 MLOAD DUP1 DUP4 SUB DUP2 PUSH1 0x0 DUP8 GAS CALL SWAP3 POP POP POP DUP1 ISZERO PUSH2 0x9A3 JUMPI POP PUSH1 0x40 MLOAD RETURNDATASIZE PUSH1 0x1F NOT PUSH1 0x1F DUP3 ADD AND DUP3 ADD DUP1 PUSH1 0x40 MSTORE POP DUP2 ADD SWAP1 PUSH2 0x9A0 SWAP2 SWAP1 PUSH2 0x12A3 JUMP JUMPDEST PUSH1 0x1 JUMPDEST PUSH2 0xA27 JUMPI RETURNDATASIZE DUP1 PUSH1 0x0 DUP2 EQ PUSH2 0x9D3 JUMPI PUSH1 0x40 MLOAD SWAP2 POP PUSH1 0x1F NOT PUSH1 0x3F RETURNDATASIZE ADD AND DUP3 ADD PUSH1 0x40 MSTORE RETURNDATASIZE DUP3 MSTORE RETURNDATASIZE PUSH1 0x0 PUSH1 0x20 DUP5 ADD RETURNDATACOPY PUSH2 0x9D8 JUMP JUMPDEST PUSH1 0x60 SWAP2 POP JUMPDEST POP PUSH1 0x0 DUP2 MLOAD SUB PUSH2 0xA1F JUMPI DUP5 PUSH1 0x40 MLOAD PUSH32 0x57F447CE00000000000000000000000000000000000000000000000000000000 DUP2 MSTORE PUSH1 0x4 ADD PUSH2 0xA16 SWAP2 SWAP1 PUSH2 0xCB9 JUMP JUMPDEST PUSH1 0x40 MLOAD DUP1 SWAP2 SUB SWAP1 REVERT JUMPDEST DUP1 MLOAD DUP2 PUSH1 0x20 ADD REVERT JUMPDEST PUSH4 0xBC197C81 PUSH1 0xE0 SHL PUSH28 0xFFFFFFFFFFFFFFFFFFFFFFFFFFFFFFFFFFFFFFFFFFFFFFFFFFFFFFFF NOT AND DUP2 PUSH28 0xFFFFFFFFFFFFFFFFFFFFFFFFFFFFFFFFFFFFFFFFFFFFFFFFFFFFFFFF NOT AND EQ PUSH2 0xAB0 JUMPI DUP5 PUSH1 0x40 MLOAD PUSH32 0x57F447CE00000000000000000000000000000000000000000000000000000000 DUP2 MSTORE PUSH1 0x4 ADD PUSH2 0xAA7 SWAP2 SWAP1 PUSH2 0xCB9 JUMP JUMPDEST PUSH1 0x40 MLOAD DUP1 SWAP2 SUB SWAP1 REVERT JUMPDEST POP JUMPDEST POP POP POP POP POP POP JUMP JUMPDEST PUSH1 0x0 PUSH1 0x40 MLOAD SWAP1 POP SWAP1 JUMP JUMPDEST PUSH1 0x0 DUP1 REVERT JUMPDEST PUSH1 0x0 DUP1 REVERT JUMPDEST PUSH1 0x0 DUP1 REVERT JUMPDEST PUSH1 0x0 DUP1 REVERT JUMPDEST PUSH1 0x0 PUSH1 0x1F NOT PUSH1 0x1F DUP4 ADD AND SWAP1 POP SWAP2 SWAP1 POP JUMP JUMPDEST PUSH32 0x4E487B7100000000000000000000000000000000000000000000000000000000 PUSH1 0x0 MSTORE PUSH1 0x41 PUSH1 0x4 MSTORE PUSH1 0x24 PUSH1 0x0 REVERT JUMPDEST PUSH2 0xB21 DUP3 PUSH2 0xAD8 JUMP JUMPDEST DUP2 ADD DUP2 DUP2 LT PUSH8 0xFFFFFFFFFFFFFFFF DUP3 GT OR ISZERO PUSH2 0xB40 JUMPI PUSH2 0xB3F PUSH2 0xAE9 JUMP JUMPDEST JUMPDEST DUP1 PUSH1 0x40 MSTORE POP POP POP JUMP JUMPDEST PUSH1 0x0 PUSH2 0xB53 PUSH2 0xABA JUMP JUMPDEST SWAP1 POP PUSH2 0xB5F DUP3 DUP3 PUSH2 0xB18 JUMP JUMPDEST SWAP2 SWAP1 POP JUMP JUMPDEST PUSH1 0x0 PUSH8 0xFFFFFFFFFFFFFFFF DUP3 GT ISZERO PUSH2 0xB7F JUMPI PUSH2 0xB7E PUSH2 0xAE9 JUMP JUMPDEST JUMPDEST PUSH2 0xB88 DUP3 PUSH2 0xAD8 JUMP JUMPDEST SWAP1 POP PUSH1 0x20 DUP2 ADD SWAP1 POP SWAP2 SWAP1 POP JUMP JUMPDEST PUSH1 0x0 JUMPDEST DUP4 DUP2 LT ISZERO PUSH2 0xBB3 JUMPI DUP1 DUP3 ADD MLOAD DUP2 DUP5 ADD MSTORE PUSH1 0x20 DUP2 ADD SWAP1 POP PUSH2 0xB98 JUMP JUMPDEST PUSH1 0x0 DUP5 DUP5 ADD MSTORE POP POP POP POP JUMP JUMPDEST PUSH1 0x0 PUSH2 0xBD2 PUSH2 0xBCD DUP5 PUSH2 0xB64 JUMP JUMPDEST PUSH2 0xB49 JUMP JUMPDEST SWAP1 POP DUP3 DUP2 MSTORE PUSH1 0x20 DUP2 ADD DUP5 DUP5 DUP5 ADD GT ISZERO PUSH2 0xBEE JUMPI PUSH2 0xBED PUSH2 0xAD3 JUMP JUMPDEST JUMPDEST PUSH2 0xBF9 DUP5 DUP3 DUP6 PUSH2 0xB95 JUMP JUMPDEST POP SWAP4 SWAP3 POP POP POP JUMP JUMPDEST PUSH1 0x0 DUP3 PUSH1 0x1F DUP4 ADD SLT PUSH2 0xC16 JUMPI PUSH2 0xC15 PUSH2 0xACE JUMP JUMPDEST JUMPDEST DUP2 MLOAD PUSH2 0xC26 DUP5 DUP3 PUSH1 0x20 DUP7 ADD PUSH2 0xBBF JUMP JUMPDEST SWAP2 POP POP SWAP3 SWAP2 POP POP JUMP JUMPDEST PUSH1 0x0 PUSH1 0x20 DUP3 DUP5 SUB SLT ISZERO PUSH2 0xC45 JUMPI PUSH2 0xC44 PUSH2 0xAC4 JUMP JUMPDEST JUMPDEST PUSH1 0x0 DUP3 ADD MLOAD PUSH8 0xFFFFFFFFFFFFFFFF DUP2 GT ISZERO PUSH2 0xC63 JUMPI PUSH2 0xC62 PUSH2 0xAC9 JUMP JUMPDEST JUMPDEST PUSH2 0xC6F DUP5 DUP3 DUP6 ADD PUSH2 0xC01 JUMP JUMPDEST SWAP2 POP POP SWAP3 SWAP2 POP POP JUMP JUMPDEST PUSH1 0x0 PUSH20 0xFFFFFFFFFFFFFFFFFFFFFFFFFFFFFFFFFFFFFFFF DUP3 AND SWAP1 POP SWAP2 SWAP1 POP JUMP JUMPDEST PUSH1 0x0 PUSH2 0xCA3 DUP3 PUSH2 0xC78 JUMP JUMPDEST SWAP1 POP SWAP2 SWAP1 POP JUMP JUMPDEST PUSH2 0xCB3 DUP2 PUSH2 0xC98 JUMP JUMPDEST DUP3 MSTORE POP POP JUMP JUMPDEST PUSH1 0x0 PUSH1 0x20 DUP3 ADD SWAP1 POP PUSH2 0xCCE PUSH1 0x0 DUP4 ADD DUP5 PUSH2 0xCAA JUMP JUMPDEST SWAP3 SWAP2 POP POP JUMP JUMPDEST PUSH1 0x0 DUP2 MLOAD SWAP1 POP SWAP2 SWAP1 POP JUMP JUMPDEST PUSH32 0x4E487B7100000000000000000000000000000000000000000000000000000000 PUSH1 0x0 MSTORE PUSH1 0x22 PUSH1 0x4 MSTORE PUSH1 0x24 PUSH1 0x0 REVERT JUMPDEST PUSH1 0x0 PUSH1 0x2 DUP3 DIV SWAP1 POP PUSH1 0x1 DUP3 AND DUP1 PUSH2 0xD26 JUMPI PUSH1 0x7F DUP3 AND SWAP2 POP JUMPDEST PUSH1 0x20 DUP3 LT DUP2 SUB PUSH2 0xD39 JUMPI PUSH2 0xD38 PUSH2 0xCDF JUMP JUMPDEST JUMPDEST POP SWAP2 SWAP1 POP JUMP JUMPDEST PUSH1 0x0 DUP2 SWAP1 POP DUP2 PUSH1 0x0 MSTORE PUSH1 0x20 PUSH1 0x0 KECCAK256 SWAP1 POP SWAP2 SWAP1 POP JUMP JUMPDEST PUSH1 0x0 PUSH1 0x20 PUSH1 0x1F DUP4 ADD DIV SWAP1 POP SWAP2 SWAP1 POP JUMP JUMPDEST PUSH1 0x0 DUP3 DUP3 SHL SWAP1 POP SWAP3 SWAP2 POP POP JUMP JUMPDEST PUSH1 0x0 PUSH1 0x8 DUP4 MUL PUSH2 0xDA1 PUSH32 0xFFFFFFFFFFFFFFFFFFFFFFFFFFFFFFFFFFFFFFFFFFFFFFFFFFFFFFFFFFFFFFFF DUP3 PUSH2 0xD64 JUMP JUMPDEST PUSH2 0xDAB DUP7 DUP4 PUSH2 0xD64 JUMP JUMPDEST SWAP6 POP DUP1 NOT DUP5 AND SWAP4 POP DUP1 DUP7 AND DUP5 OR SWAP3 POP POP POP SWAP4 SWAP3 POP POP POP JUMP JUMPDEST PUSH1 0x0 DUP2 SWAP1 POP SWAP2 SWAP1 POP JUMP JUMPDEST PUSH1 0x0 DUP2 SWAP1 POP SWAP2 SWAP1 POP JUMP JUMPDEST PUSH1 0x0 PUSH2 0xDF2 PUSH2 0xDED PUSH2 0xDE8 DUP5 PUSH2 0xDC3 JUMP JUMPDEST PUSH2 0xDCD JUMP JUMPDEST PUSH2 0xDC3 JUMP JUMPDEST SWAP1 POP SWAP2 SWAP1 POP JUMP JUMPDEST PUSH1 0x0 DUP2 SWAP1 POP SWAP2 SWAP1 POP JUMP JUMPDEST PUSH2 0xE0C DUP4 PUSH2 0xDD7 JUMP JUMPDEST PUSH2 0xE20 PUSH2 0xE18 DUP3 PUSH2 0xDF9 JUMP JUMPDEST DUP5 DUP5 SLOAD PUSH2 0xD71 JUMP JUMPDEST DUP3 SSTORE POP POP POP POP JUMP JUMPDEST PUSH1 0x0 SWAP1 JUMP JUMPDEST PUSH2 0xE35 PUSH2 0xE28 JUMP JUMPDEST PUSH2 0xE40 DUP2 DUP5 DUP5 PUSH2 0xE03 JUMP JUMPDEST POP POP POP JUMP JUMPDEST JUMPDEST DUP2 DUP2 LT ISZERO PUSH2 0xE64 JUMPI PUSH2 0xE59 PUSH1 0x0 DUP3 PUSH2 0xE2D JUMP JUMPDEST PUSH1 0x1 DUP2 ADD SWAP1 POP PUSH2 0xE46 JUMP JUMPDEST POP POP JUMP JUMPDEST PUSH1 0x1F DUP3 GT ISZERO PUSH2 0xEA9 JUMPI PUSH2 0xE7A DUP2 PUSH2 0xD3F JUMP JUMPDEST PUSH2 0xE83 DUP5 PUSH2 0xD54 JUMP JUMPDEST DUP2 ADD PUSH1 0x20 DUP6 LT ISZERO PUSH2 0xE92 JUMPI DUP2 SWAP1 POP JUMPDEST PUSH2 0xEA6 PUSH2 0xE9E DUP6 PUSH2 0xD54 JUMP JUMPDEST DUP4 ADD DUP3 PUSH2 0xE45 JUMP JUMPDEST POP POP JUMPDEST POP POP POP JUMP JUMPDEST PUSH1 0x0 DUP3 DUP3 SHR SWAP1 POP SWAP3 SWAP2 POP POP JUMP JUMPDEST PUSH1 0x0 PUSH2 0xECC PUSH1 0x0 NOT DUP5 PUSH1 0x8 MUL PUSH2 0xEAE JUMP JUMPDEST NOT DUP1 DUP4 AND SWAP2 POP POP SWAP3 SWAP2 POP POP JUMP JUMPDEST PUSH1 0x0 PUSH2 0xEE5 DUP4 DUP4 PUSH2 0xEBB JUMP JUMPDEST SWAP2 POP DUP3 PUSH1 0x2 MUL DUP3 OR SWAP1 POP SWAP3 SWAP2 POP POP JUMP JUMPDEST PUSH2 0xEFE DUP3 PUSH2 0xCD4 JUMP JUMPDEST PUSH8 0xFFFFFFFFFFFFFFFF DUP2 GT ISZERO PUSH2 0xF17 JUMPI PUSH2 0xF16 PUSH2 0xAE9 JUMP JUMPDEST JUMPDEST PUSH2 0xF21 DUP3 SLOAD PUSH2 0xD0E JUMP JUMPDEST PUSH2 0xF2C DUP3 DUP3 DUP6 PUSH2 0xE68 JUMP JUMPDEST PUSH1 0x0 PUSH1 0x20 SWAP1 POP PUSH1 0x1F DUP4 GT PUSH1 0x1 DUP2 EQ PUSH2 0xF5F JUMPI PUSH1 0x0 DUP5 ISZERO PUSH2 0xF4D JUMPI DUP3 DUP8 ADD MLOAD SWAP1 POP JUMPDEST PUSH2 0xF57 DUP6 DUP3 PUSH2 0xED9 JUMP JUMPDEST DUP7 SSTORE POP PUSH2 0xFBF JUMP JUMPDEST PUSH1 0x1F NOT DUP5 AND PUSH2 0xF6D DUP7 PUSH2 0xD3F JUMP JUMPDEST PUSH1 0x0 JUMPDEST DUP3 DUP2 LT ISZERO PUSH2 0xF95 JUMPI DUP5 DUP10 ADD MLOAD DUP3 SSTORE PUSH1 0x1 DUP3 ADD SWAP2 POP PUSH1 0x20 DUP6 ADD SWAP5 POP PUSH1 0x20 DUP2 ADD SWAP1 POP PUSH2 0xF70 JUMP JUMPDEST DUP7 DUP4 LT ISZERO PUSH2 0xFB2 JUMPI DUP5 DUP10 ADD MLOAD PUSH2 0xFAE PUSH1 0x1F DUP10 AND DUP3 PUSH2 0xEBB JUMP JUMPDEST DUP4 SSTORE POP JUMPDEST PUSH1 0x1 PUSH1 0x2 DUP9 MUL ADD DUP9 SSTORE POP POP POP JUMPDEST POP POP POP POP POP POP JUMP JUMPDEST PUSH2 0xFD0 DUP2 PUSH2 0xDC3 JUMP JUMPDEST DUP3 MSTORE POP POP JUMP JUMPDEST PUSH1 0x0 PUSH1 0x40 DUP3 ADD SWAP1 POP PUSH2 0xFEB PUSH1 0x0 DUP4 ADD DUP6 PUSH2 0xFC7 JUMP JUMPDEST PUSH2 0xFF8 PUSH1 0x20 DUP4 ADD DUP5 PUSH2 0xFC7 JUMP JUMPDEST SWAP4 SWAP3 POP POP POP JUMP JUMPDEST PUSH1 0x0 PUSH1 0x80 DUP3 ADD SWAP1 POP PUSH2 0x1014 PUSH1 0x0 DUP4 ADD DUP8 PUSH2 0xCAA JUMP JUMPDEST PUSH2 0x1021 PUSH1 0x20 DUP4 ADD DUP7 PUSH2 0xFC7 JUMP JUMPDEST PUSH2 0x102E PUSH1 0x40 DUP4 ADD DUP6 PUSH2 0xFC7 JUMP JUMPDEST PUSH2 0x103B PUSH1 0x60 DUP4 ADD DUP5 PUSH2 0xFC7 JUMP JUMPDEST SWAP6 SWAP5 POP POP POP POP POP JUMP JUMPDEST PUSH32 0x4E487B7100000000000000000000000000000000000000000000000000000000 PUSH1 0x0 MSTORE PUSH1 0x11 PUSH1 0x4 MSTORE PUSH1 0x24 PUSH1 0x0 REVERT JUMPDEST PUSH1 0x0 PUSH2 0x107E DUP3 PUSH2 0xDC3 JUMP JUMPDEST SWAP2 POP PUSH2 0x1089 DUP4 PUSH2 0xDC3 JUMP JUMPDEST SWAP3 POP DUP3 DUP3 ADD SWAP1 POP DUP1 DUP3 GT ISZERO PUSH2 0x10A1 JUMPI PUSH2 0x10A0 PUSH2 0x1044 JUMP JUMPDEST JUMPDEST SWAP3 SWAP2 POP POP JUMP JUMPDEST PUSH1 0x0 DUP2 MLOAD SWAP1 POP SWAP2 SWAP1 POP JUMP JUMPDEST PUSH1 0x0 DUP3 DUP3 MSTORE PUSH1 0x20 DUP3 ADD SWAP1 POP SWAP3 SWAP2 POP POP JUMP JUMPDEST PUSH1 0x0 DUP2 SWAP1 POP PUSH1 0x20 DUP3 ADD SWAP1 POP SWAP2 SWAP1 POP JUMP JUMPDEST PUSH2 0x10DC DUP2 PUSH2 0xDC3 JUMP JUMPDEST DUP3 MSTORE POP POP JUMP JUMPDEST PUSH1 0x0 PUSH2 0x10EE DUP4 DUP4 PUSH2 0x10D3 JUMP JUMPDEST PUSH1 0x20 DUP4 ADD SWAP1 POP SWAP3 SWAP2 POP POP JUMP JUMPDEST PUSH1 0x0 PUSH1 0x20 DUP3 ADD SWAP1 POP SWAP2 SWAP1 POP JUMP JUMPDEST PUSH1 0x0 PUSH2 0x1112 DUP3 PUSH2 0x10A7 JUMP JUMPDEST PUSH2 0x111C DUP2 DUP6 PUSH2 0x10B2 JUMP JUMPDEST SWAP4 POP PUSH2 0x1127 DUP4 PUSH2 0x10C3 JUMP JUMPDEST DUP1 PUSH1 0x0 JUMPDEST DUP4 DUP2 LT ISZERO PUSH2 0x1158 JUMPI DUP2 MLOAD PUSH2 0x113F DUP9 DUP3 PUSH2 0x10E2 JUMP JUMPDEST SWAP8 POP PUSH2 0x114A DUP4 PUSH2 0x10FA JUMP JUMPDEST SWAP3 POP POP PUSH1 0x1 DUP2 ADD SWAP1 POP PUSH2 0x112B JUMP JUMPDEST POP DUP6 SWAP4 POP POP POP POP SWAP3 SWAP2 POP POP JUMP JUMPDEST PUSH1 0x0 PUSH1 0x40 DUP3 ADD SWAP1 POP DUP2 DUP2 SUB PUSH1 0x0 DUP4 ADD MSTORE PUSH2 0x117F DUP2 DUP6 PUSH2 0x1107 JUMP JUMPDEST SWAP1 POP DUP2 DUP2 SUB PUSH1 0x20 DUP4 ADD MSTORE PUSH2 0x1193 DUP2 DUP5 PUSH2 0x1107 JUMP JUMPDEST SWAP1 POP SWAP4 SWAP3 POP POP POP JUMP JUMPDEST PUSH1 0x0 DUP2 MLOAD SWAP1 POP SWAP2 SWAP1 POP JUMP JUMPDEST PUSH1 0x0 DUP3 DUP3 MSTORE PUSH1 0x20 DUP3 ADD SWAP1 POP SWAP3 SWAP2 POP POP JUMP JUMPDEST PUSH1 0x0 PUSH2 0x11C3 DUP3 PUSH2 0x119C JUMP JUMPDEST PUSH2 0x11CD DUP2 DUP6 PUSH2 0x11A7 JUMP JUMPDEST SWAP4 POP PUSH2 0x11DD DUP2 DUP6 PUSH1 0x20 DUP7 ADD PUSH2 0xB95 JUMP JUMPDEST PUSH2 0x11E6 DUP2 PUSH2 0xAD8 JUMP JUMPDEST DUP5 ADD SWAP2 POP POP SWAP3 SWAP2 POP POP JUMP JUMPDEST PUSH1 0x0 PUSH1 0xA0 DUP3 ADD SWAP1 POP PUSH2 0x1206 PUSH1 0x0 DUP4 ADD DUP9 PUSH2 0xCAA JUMP JUMPDEST PUSH2 0x1213 PUSH1 0x20 DUP4 ADD DUP8 PUSH2 0xCAA JUMP JUMPDEST PUSH2 0x1220 PUSH1 0x40 DUP4 ADD DUP7 PUSH2 0xFC7 JUMP JUMPDEST PUSH2 0x122D PUSH1 0x60 DUP4 ADD DUP6 PUSH2 0xFC7 JUMP JUMPDEST DUP2 DUP2 SUB PUSH1 0x80 DUP4 ADD MSTORE PUSH2 0x123F DUP2 DUP5 PUSH2 0x11B8 JUMP JUMPDEST SWAP1 POP SWAP7 SWAP6 POP POP POP POP POP POP JUMP JUMPDEST PUSH1 0x0 PUSH32 0xFFFFFFFF00000000000000000000000000000000000000000000000000000000 DUP3 AND SWAP1 POP SWAP2 SWAP1 POP JUMP JUMPDEST PUSH2 0x1280 DUP2 PUSH2 0x124B JUMP JUMPDEST DUP2 EQ PUSH2 0x128B JUMPI PUSH1 0x0 DUP1 REVERT JUMPDEST POP JUMP JUMPDEST PUSH1 0x0 DUP2 MLOAD SWAP1 POP PUSH2 0x129D DUP2 PUSH2 0x1277 JUMP JUMPDEST SWAP3 SWAP2 POP POP JUMP JUMPDEST PUSH1 0x0 PUSH1 0x20 DUP3 DUP5 SUB SLT ISZERO PUSH2 0x12B9 JUMPI PUSH2 0x12B8 PUSH2 0xAC4 JUMP JUMPDEST JUMPDEST PUSH1 0x0 PUSH2 0x12C7 DUP5 DUP3 DUP6 ADD PUSH2 0x128E JUMP JUMPDEST SWAP2 POP POP SWAP3 SWAP2 POP POP JUMP JUMPDEST PUSH1 0x0 PUSH1 0xA0 DUP3 ADD SWAP1 POP PUSH2 0x12E5 PUSH1 0x0 DUP4 ADD DUP9 PUSH2 0xCAA JUMP JUMPDEST PUSH2 0x12F2 PUSH1 0x20 DUP4 ADD DUP8 PUSH2 0xCAA JUMP JUMPDEST DUP2 DUP2 SUB PUSH1 0x40 DUP4 ADD MSTORE PUSH2 0x1304 DUP2 DUP7 PUSH2 0x1107 JUMP JUMPDEST SWAP1 POP DUP2 DUP2 SUB PUSH1 0x60 DUP4 ADD MSTORE PUSH2 0x1318 DUP2 DUP6 PUSH2 0x1107 JUMP JUMPDEST SWAP1 POP DUP2 DUP2 SUB PUSH1 0x80 DUP4 ADD MSTORE PUSH2 0x132C DUP2 DUP5 PUSH2 0x11B8 JUMP JUMPDEST SWAP1 POP SWAP7 SWAP6 POP POP POP POP POP POP JUMP JUMPDEST PUSH2 0x2A82 DUP1 PUSH2 0x1347 PUSH1 0x0 CODECOPY PUSH1 0x0 RETURN INVALID PUSH1 0x80 PUSH1 0x40 MSTORE CALLVALUE DUP1 ISZERO PUSH2 0x10 JUMPI PUSH1 0x0 DUP1 REVERT JUMPDEST POP PUSH1 0x4 CALLDATASIZE LT PUSH2 0xE9 JUMPI PUSH1 0x0 CALLDATALOAD PUSH1 0xE0 SHR DUP1 PUSH4 0x715018A6 GT PUSH2 0x8C JUMPI DUP1 PUSH4 0xE8A3D485 GT PUSH2 0x66 JUMPI DUP1 PUSH4 0xE8A3D485 EQ PUSH2 0x246 JUMPI DUP1 PUSH4 0xE985E9C5 EQ PUSH2 0x264 JUMPI DUP1 PUSH4 0xF242432A EQ PUSH2 0x294 JUMPI DUP1 PUSH4 0xF2FDE38B EQ PUSH2 0x2B0 JUMPI PUSH2 0xE9 JUMP JUMPDEST DUP1 PUSH4 0x715018A6 EQ PUSH2 0x202 JUMPI DUP1 PUSH4 0x8DA5CB5B EQ PUSH2 0x20C JUMPI DUP1 PUSH4 0xA22CB465 EQ PUSH2 0x22A JUMPI PUSH2 0xE9 JUMP JUMPDEST DUP1 PUSH4 0xE89341C GT PUSH2 0xC8 JUMPI DUP1 PUSH4 0xE89341C EQ PUSH2 0x16A JUMPI DUP1 PUSH4 0x156E29F6 EQ PUSH2 0x19A JUMPI DUP1 PUSH4 0x2EB2C2D6 EQ PUSH2 0x1B6 JUMPI DUP1 PUSH4 0x4E1273F4 EQ PUSH2 0x1D2 JUMPI PUSH2 0xE9 JUMP JUMPDEST DUP1 PUSH3 0xFDD58E EQ PUSH2 0xEE JUMPI DUP1 PUSH4 0x1FFC9A7 EQ PUSH2 0x11E JUMPI DUP1 PUSH4 0x2FE5305 EQ PUSH2 0x14E JUMPI JUMPDEST PUSH1 0x0 DUP1 REVERT JUMPDEST PUSH2 0x108 PUSH1 0x4 DUP1 CALLDATASIZE SUB DUP2 ADD SWAP1 PUSH2 0x103 SWAP2 SWAP1 PUSH2 0x191C JUMP JUMPDEST PUSH2 0x2CC JUMP JUMPDEST PUSH1 0x40 MLOAD PUSH2 0x115 SWAP2 SWAP1 PUSH2 0x196B JUMP JUMPDEST PUSH1 0x40 MLOAD DUP1 SWAP2 SUB SWAP1 RETURN JUMPDEST PUSH2 0x138 PUSH1 0x4 DUP1 CALLDATASIZE SUB DUP2 ADD SWAP1 PUSH2 0x133 SWAP2 SWAP1 PUSH2 0x19DE JUMP JUMPDEST PUSH2 0x326 JUMP JUMPDEST PUSH1 0x40 MLOAD PUSH2 0x145 SWAP2 SWAP1 PUSH2 0x1A26 JUMP JUMPDEST PUSH1 0x40 MLOAD DUP1 SWAP2 SUB SWAP1 RETURN JUMPDEST PUSH2 0x168 PUSH1 0x4 DUP1 CALLDATASIZE SUB DUP2 ADD SWAP1 PUSH2 0x163 SWAP2 SWAP1 PUSH2 0x1B87 JUMP JUMPDEST PUSH2 0x408 JUMP JUMPDEST STOP JUMPDEST PUSH2 0x184 PUSH1 0x4 DUP1 CALLDATASIZE SUB DUP2 ADD SWAP1 PUSH2 0x17F SWAP2 SWAP1 PUSH2 0x1BD0 JUMP JUMPDEST PUSH2 0x423 JUMP JUMPDEST PUSH1 0x40 MLOAD PUSH2 0x191 SWAP2 SWAP1 PUSH2 0x1C7C JUMP JUMPDEST PUSH1 0x40 MLOAD DUP1 SWAP2 SUB SWAP1 RETURN JUMPDEST PUSH2 0x1B4 PUSH1 0x4 DUP1 CALLDATASIZE SUB DUP2 ADD SWAP1 PUSH2 0x1AF SWAP2 SWAP1 PUSH2 0x1C9E JUMP JUMPDEST PUSH2 0x457 JUMP JUMPDEST STOP JUMPDEST PUSH2 0x1D0 PUSH1 0x4 DUP1 CALLDATASIZE SUB DUP2 ADD SWAP1 PUSH2 0x1CB SWAP2 SWAP1 PUSH2 0x1E5A JUMP JUMPDEST PUSH2 0x47F JUMP JUMPDEST STOP JUMPDEST PUSH2 0x1EC PUSH1 0x4 DUP1 CALLDATASIZE SUB DUP2 ADD SWAP1 PUSH2 0x1E7 SWAP2 SWAP1 PUSH2 0x1FEC JUMP JUMPDEST PUSH2 0x527 JUMP JUMPDEST PUSH1 0x40 MLOAD PUSH2 0x1F9 SWAP2 SWAP1 PUSH2 0x2122 JUMP JUMPDEST PUSH1 0x40 MLOAD DUP1 SWAP2 SUB SWAP1 RETURN JUMPDEST PUSH2 0x20A PUSH2 0x630 JUMP JUMPDEST STOP JUMPDEST PUSH2 0x214 PUSH2 0x644 JUMP JUMPDEST PUSH1 0x40 MLOAD PUSH2 0x221 SWAP2 SWAP1 PUSH2 0x2153 JUMP JUMPDEST PUSH1 0x40 MLOAD DUP1 SWAP2 SUB SWAP1 RETURN JUMPDEST PUSH2 0x244 PUSH1 0x4 DUP1 CALLDATASIZE SUB DUP2 ADD SWAP1 PUSH2 0x23F SWAP2 SWAP1 PUSH2 0x219A JUMP JUMPDEST PUSH2 0x66E JUMP JUMPDEST STOP JUMPDEST PUSH2 0x24E PUSH2 0x684 JUMP JUMPDEST PUSH1 0x40 MLOAD PUSH2 0x25B SWAP2 SWAP1 PUSH2 0x1C7C JUMP JUMPDEST PUSH1 0x40 MLOAD DUP1 SWAP2 SUB SWAP1 RETURN JUMPDEST PUSH2 0x27E PUSH1 0x4 DUP1 CALLDATASIZE SUB DUP2 ADD SWAP1 PUSH2 0x279 SWAP2 SWAP1 PUSH2 0x21DA JUMP JUMPDEST PUSH2 0x6AC JUMP JUMPDEST PUSH1 0x40 MLOAD PUSH2 0x28B SWAP2 SWAP1 PUSH2 0x1A26 JUMP JUMPDEST PUSH1 0x40 MLOAD DUP1 SWAP2 SUB SWAP1 RETURN JUMPDEST PUSH2 0x2AE PUSH1 0x4 DUP1 CALLDATASIZE SUB DUP2 ADD SWAP1 PUSH2 0x2A9 SWAP2 SWAP1 PUSH2 0x221A JUMP JUMPDEST PUSH2 0x740 JUMP JUMPDEST STOP JUMPDEST PUSH2 0x2CA PUSH1 0x4 DUP1 CALLDATASIZE SUB DUP2 ADD SWAP1 PUSH2 0x2C5 SWAP2 SWAP1 PUSH2 0x22B1 JUMP JUMPDEST PUSH2 0x7E8 JUMP JUMPDEST STOP JUMPDEST PUSH1 0x0 DUP1 PUSH1 0x0 DUP4 DUP2 MSTORE PUSH1 0x20 ADD SWAP1 DUP2 MSTORE PUSH1 0x20 ADD PUSH1 0x0 KECCAK256 PUSH1 0x0 DUP5 PUSH20 0xFFFFFFFFFFFFFFFFFFFFFFFFFFFFFFFFFFFFFFFF AND PUSH20 0xFFFFFFFFFFFFFFFFFFFFFFFFFFFFFFFFFFFFFFFF AND DUP2 MSTORE PUSH1 0x20 ADD SWAP1 DUP2 MSTORE PUSH1 0x20 ADD PUSH1 0x0 KECCAK256 SLOAD SWAP1 POP SWAP3 SWAP2 POP POP JUMP JUMPDEST PUSH1 0x0 PUSH32 0xD9B67A2600000000000000000000000000000000000000000000000000000000 PUSH28 0xFFFFFFFFFFFFFFFFFFFFFFFFFFFFFFFFFFFFFFFFFFFFFFFFFFFFFFFF NOT AND DUP3 PUSH28 0xFFFFFFFFFFFFFFFFFFFFFFFFFFFFFFFFFFFFFFFFFFFFFFFFFFFFFFFF NOT AND EQ DUP1 PUSH2 0x3F1 JUMPI POP PUSH32 0xE89341C00000000000000000000000000000000000000000000000000000000 PUSH28 0xFFFFFFFFFFFFFFFFFFFFFFFFFFFFFFFFFFFFFFFFFFFFFFFFFFFFFFFF NOT AND DUP3 PUSH28 0xFFFFFFFFFFFFFFFFFFFFFFFFFFFFFFFFFFFFFFFFFFFFFFFFFFFFFFFF NOT AND EQ JUMPDEST DUP1 PUSH2 0x401 JUMPI POP PUSH2 0x400 DUP3 PUSH2 0x86E JUMP JUMPDEST JUMPDEST SWAP1 POP SWAP2 SWAP1 POP JUMP JUMPDEST PUSH2 0x410 PUSH2 0x8D8 JUMP JUMPDEST DUP1 PUSH1 0x4 SWAP1 DUP2 PUSH2 0x41F SWAP2 SWAP1 PUSH2 0x24EA JUMP JUMPDEST POP POP JUMP JUMPDEST PUSH1 0x60 PUSH1 0x4 PUSH2 0x430 DUP4 PUSH2 0x95F JUMP JUMPDEST PUSH1 0x40 MLOAD PUSH1 0x20 ADD PUSH2 0x441 SWAP3 SWAP2 SWAP1 PUSH2 0x26C7 JUMP JUMPDEST PUSH1 0x40 MLOAD PUSH1 0x20 DUP2 DUP4 SUB SUB DUP2 MSTORE SWAP1 PUSH1 0x40 MSTORE SWAP1 POP SWAP2 SWAP1 POP JUMP JUMPDEST PUSH2 0x45F PUSH2 0x8D8 JUMP JUMPDEST PUSH2 0x47A DUP4 DUP4 DUP4 PUSH1 0x40 MLOAD DUP1 PUSH1 0x20 ADD PUSH1 0x40 MSTORE DUP1 PUSH1 0x0 DUP2 MSTORE POP PUSH2 0xA2D JUMP JUMPDEST POP POP POP JUMP JUMPDEST PUSH1 0x0 PUSH2 0x489 PUSH2 0xAC6 JUMP JUMPDEST SWAP1 POP DUP1 PUSH20 0xFFFFFFFFFFFFFFFFFFFFFFFFFFFFFFFFFFFFFFFF AND DUP7 PUSH20 0xFFFFFFFFFFFFFFFFFFFFFFFFFFFFFFFFFFFFFFFF AND EQ ISZERO DUP1 ISZERO PUSH2 0x4CE JUMPI POP PUSH2 0x4CC DUP7 DUP3 PUSH2 0x6AC JUMP JUMPDEST ISZERO JUMPDEST ISZERO PUSH2 0x512 JUMPI DUP1 DUP7 PUSH1 0x40 MLOAD PUSH32 0xE237D92200000000000000000000000000000000000000000000000000000000 DUP2 MSTORE PUSH1 0x4 ADD PUSH2 0x509 SWAP3 SWAP2 SWAP1 PUSH2 0x26F6 JUMP JUMPDEST PUSH1 0x40 MLOAD DUP1 SWAP2 SUB SWAP1 REVERT JUMPDEST PUSH2 0x51F DUP7 DUP7 DUP7 DUP7 DUP7 PUSH2 0xACE JUMP JUMPDEST POP POP POP POP POP POP JUMP JUMPDEST PUSH1 0x60 DUP2 MLOAD DUP4 MLOAD EQ PUSH2 0x573 JUMPI DUP2 MLOAD DUP4 MLOAD PUSH1 0x40 MLOAD PUSH32 0x5B05999100000000000000000000000000000000000000000000000000000000 DUP2 MSTORE PUSH1 0x4 ADD PUSH2 0x56A SWAP3 SWAP2 SWAP1 PUSH2 0x271F JUMP JUMPDEST PUSH1 0x40 MLOAD DUP1 SWAP2 SUB SWAP1 REVERT JUMPDEST PUSH1 0x0 DUP4 MLOAD PUSH8 0xFFFFFFFFFFFFFFFF DUP2 GT ISZERO PUSH2 0x590 JUMPI PUSH2 0x58F PUSH2 0x1A5C JUMP JUMPDEST JUMPDEST PUSH1 0x40 MLOAD SWAP1 DUP1 DUP3 MSTORE DUP1 PUSH1 0x20 MUL PUSH1 0x20 ADD DUP3 ADD PUSH1 0x40 MSTORE DUP1 ISZERO PUSH2 0x5BE JUMPI DUP2 PUSH1 0x20 ADD PUSH1 0x20 DUP3 MUL DUP1 CALLDATASIZE DUP4 CALLDATACOPY DUP1 DUP3 ADD SWAP2 POP POP SWAP1 POP JUMPDEST POP SWAP1 POP PUSH1 0x0 JUMPDEST DUP5 MLOAD DUP2 LT ISZERO PUSH2 0x625 JUMPI PUSH2 0x5FB PUSH2 0x5E3 DUP3 DUP8 PUSH2 0xBC6 SWAP1 SWAP2 SWAP1 PUSH4 0xFFFFFFFF AND JUMP JUMPDEST PUSH2 0x5F6 DUP4 DUP8 PUSH2 0xBDA SWAP1 SWAP2 SWAP1 PUSH4 0xFFFFFFFF AND JUMP JUMPDEST PUSH2 0x2CC JUMP JUMPDEST DUP3 DUP3 DUP2 MLOAD DUP2 LT PUSH2 0x60E JUMPI PUSH2 0x60D PUSH2 0x2748 JUMP JUMPDEST JUMPDEST PUSH1 0x20 MUL PUSH1 0x20 ADD ADD DUP2 DUP2 MSTORE POP POP DUP1 PUSH1 0x1 ADD SWAP1 POP PUSH2 0x5C4 JUMP JUMPDEST POP DUP1 SWAP2 POP POP SWAP3 SWAP2 POP POP JUMP JUMPDEST PUSH2 0x638 PUSH2 0x8D8 JUMP JUMPDEST PUSH2 0x642 PUSH1 0x0 PUSH2 0xBEE JUMP JUMPDEST JUMP JUMPDEST PUSH1 0x0 PUSH1 0x3 PUSH1 0x0 SWAP1 SLOAD SWAP1 PUSH2 0x100 EXP SWAP1 DIV PUSH20 0xFFFFFFFFFFFFFFFFFFFFFFFFFFFFFFFFFFFFFFFF AND SWAP1 POP SWAP1 JUMP JUMPDEST PUSH2 0x680 PUSH2 0x679 PUSH2 0xAC6 JUMP JUMPDEST DUP4 DUP4 PUSH2 0xCB4 JUMP JUMPDEST POP POP JUMP JUMPDEST PUSH1 0x60 PUSH1 0x4 PUSH1 0x40 MLOAD PUSH1 0x20 ADD PUSH2 0x698 SWAP2 SWAP1 PUSH2 0x27C3 JUMP JUMPDEST PUSH1 0x40 MLOAD PUSH1 0x20 DUP2 DUP4 SUB SUB DUP2 MSTORE SWAP1 PUSH1 0x40 MSTORE SWAP1 POP SWAP1 JUMP JUMPDEST PUSH1 0x0 PUSH1 0x1 PUSH1 0x0 DUP5 PUSH20 0xFFFFFFFFFFFFFFFFFFFFFFFFFFFFFFFFFFFFFFFF AND PUSH20 0xFFFFFFFFFFFFFFFFFFFFFFFFFFFFFFFFFFFFFFFF AND DUP2 MSTORE PUSH1 0x20 ADD SWAP1 DUP2 MSTORE PUSH1 0x20 ADD PUSH1 0x0 KECCAK256 PUSH1 0x0 DUP4 PUSH20 0xFFFFFFFFFFFFFFFFFFFFFFFFFFFFFFFFFFFFFFFF AND PUSH20 0xFFFFFFFFFFFFFFFFFFFFFFFFFFFFFFFFFFFFFFFF AND DUP2 MSTORE PUSH1 0x20 ADD SWAP1 DUP2 MSTORE PUSH1 0x20 ADD PUSH1 0x0 KECCAK256 PUSH1 0x0 SWAP1 SLOAD SWAP1 PUSH2 0x100 EXP SWAP1 DIV PUSH1 0xFF AND SWAP1 POP SWAP3 SWAP2 POP POP JUMP JUMPDEST PUSH1 0x0 PUSH2 0x74A PUSH2 0xAC6 JUMP JUMPDEST SWAP1 POP DUP1 PUSH20 0xFFFFFFFFFFFFFFFFFFFFFFFFFFFFFFFFFFFFFFFF AND DUP7 PUSH20 0xFFFFFFFFFFFFFFFFFFFFFFFFFFFFFFFFFFFFFFFF AND EQ ISZERO DUP1 ISZERO PUSH2 0x78F JUMPI POP PUSH2 0x78D DUP7 DUP3 PUSH2 0x6AC JUMP JUMPDEST ISZERO JUMPDEST ISZERO PUSH2 0x7D3 JUMPI DUP1 DUP7 PUSH1 0x40 MLOAD PUSH32 0xE237D92200000000000000000000000000000000000000000000000000000000 DUP2 MSTORE PUSH1 0x4 ADD PUSH2 0x7CA SWAP3 SWAP2 SWAP1 PUSH2 0x26F6 JUMP JUMPDEST PUSH1 0x40 MLOAD DUP1 SWAP2 SUB SWAP1 REVERT JUMPDEST PUSH2 0x7E0 DUP7 DUP7 DUP7 DUP7 DUP7 PUSH2 0xE24 JUMP JUMPDEST POP POP POP POP POP POP JUMP JUMPDEST PUSH2 0x7F0 PUSH2 0x8D8 JUMP JUMPDEST PUSH1 0x0 PUSH20 0xFFFFFFFFFFFFFFFFFFFFFFFFFFFFFFFFFFFFFFFF AND DUP2 PUSH20 0xFFFFFFFFFFFFFFFFFFFFFFFFFFFFFFFFFFFFFFFF AND SUB PUSH2 0x862 JUMPI PUSH1 0x0 PUSH1 0x40 MLOAD PUSH32 0x1E4FBDF700000000000000000000000000000000000000000000000000000000 DUP2 MSTORE PUSH1 0x4 ADD PUSH2 0x859 SWAP2 SWAP1 PUSH2 0x2153 JUMP JUMPDEST PUSH1 0x40 MLOAD DUP1 SWAP2 SUB SWAP1 REVERT JUMPDEST PUSH2 0x86B DUP2 PUSH2 0xBEE JUMP JUMPDEST POP JUMP JUMPDEST PUSH1 0x0 PUSH32 0x1FFC9A700000000000000000000000000000000000000000000000000000000 PUSH28 0xFFFFFFFFFFFFFFFFFFFFFFFFFFFFFFFFFFFFFFFFFFFFFFFFFFFFFFFF NOT AND DUP3 PUSH28 0xFFFFFFFFFFFFFFFFFFFFFFFFFFFFFFFFFFFFFFFFFFFFFFFFFFFFFFFF NOT AND EQ SWAP1 POP SWAP2 SWAP1 POP JUMP JUMPDEST PUSH2 0x8E0 PUSH2 0xAC6 JUMP JUMPDEST PUSH20 0xFFFFFFFFFFFFFFFFFFFFFFFFFFFFFFFFFFFFFFFF AND PUSH2 0x8FE PUSH2 0x644 JUMP JUMPDEST PUSH20 0xFFFFFFFFFFFFFFFFFFFFFFFFFFFFFFFFFFFFFFFF AND EQ PUSH2 0x95D JUMPI PUSH2 0x921 PUSH2 0xAC6 JUMP JUMPDEST PUSH1 0x40 MLOAD PUSH32 0x118CDAA700000000000000000000000000000000000000000000000000000000 DUP2 MSTORE PUSH1 0x4 ADD PUSH2 0x954 SWAP2 SWAP1 PUSH2 0x2153 JUMP JUMPDEST PUSH1 0x40 MLOAD DUP1 SWAP2 SUB SWAP1 REVERT JUMPDEST JUMP JUMPDEST PUSH1 0x60 PUSH1 0x0 PUSH1 0x1 PUSH2 0x96E DUP5 PUSH2 0xF2F JUMP JUMPDEST ADD SWAP1 POP PUSH1 0x0 DUP2 PUSH8 0xFFFFFFFFFFFFFFFF DUP2 GT ISZERO PUSH2 0x98D JUMPI PUSH2 0x98C PUSH2 0x1A5C JUMP JUMPDEST JUMPDEST PUSH1 0x40 MLOAD SWAP1 DUP1 DUP3 MSTORE DUP1 PUSH1 0x1F ADD PUSH1 0x1F NOT AND PUSH1 0x20 ADD DUP3 ADD PUSH1 0x40 MSTORE DUP1 ISZERO PUSH2 0x9BF JUMPI DUP2 PUSH1 0x20 ADD PUSH1 0x1 DUP3 MUL DUP1 CALLDATASIZE DUP4 CALLDATACOPY DUP1 DUP3 ADD SWAP2 POP POP SWAP1 POP JUMPDEST POP SWAP1 POP PUSH1 0x0 DUP3 PUSH1 0x20 ADD DUP3 ADD SWAP1 POP JUMPDEST PUSH1 0x1 ISZERO PUSH2 0xA22 JUMPI DUP1 DUP1 PUSH1 0x1 SWAP1 SUB SWAP2 POP POP PUSH32 0x3031323334353637383961626364656600000000000000000000000000000000 PUSH1 0xA DUP7 MOD BYTE DUP2 MSTORE8 PUSH1 0xA DUP6 DUP2 PUSH2 0xA16 JUMPI PUSH2 0xA15 PUSH2 0x27E5 JUMP JUMPDEST JUMPDEST DIV SWAP5 POP PUSH1 0x0 DUP6 SUB PUSH2 0x9CD JUMPI JUMPDEST DUP2 SWAP4 POP POP POP POP SWAP2 SWAP1 POP JUMP JUMPDEST PUSH1 0x0 PUSH20 0xFFFFFFFFFFFFFFFFFFFFFFFFFFFFFFFFFFFFFFFF AND DUP5 PUSH20 0xFFFFFFFFFFFFFFFFFFFFFFFFFFFFFFFFFFFFFFFF AND SUB PUSH2 0xA9F JUMPI PUSH1 0x0 PUSH1 0x40 MLOAD PUSH32 0x57F447CE00000000000000000000000000000000000000000000000000000000 DUP2 MSTORE PUSH1 0x4 ADD PUSH2 0xA96 SWAP2 SWAP1 PUSH2 0x2153 JUMP JUMPDEST PUSH1 0x40 MLOAD DUP1 SWAP2 SUB SWAP1 REVERT JUMPDEST PUSH1 0x0 DUP1 PUSH2 0xAAC DUP6 DUP6 PUSH2 0x1082 JUMP JUMPDEST SWAP2 POP SWAP2 POP PUSH2 0xABE PUSH1 0x0 DUP8 DUP5 DUP5 DUP8 PUSH2 0x10B2 JUMP JUMPDEST POP POP POP POP POP POP JUMP JUMPDEST PUSH1 0x0 CALLER SWAP1 POP SWAP1 JUMP JUMPDEST PUSH1 0x0 PUSH20 0xFFFFFFFFFFFFFFFFFFFFFFFFFFFFFFFFFFFFFFFF AND DUP5 PUSH20 0xFFFFFFFFFFFFFFFFFFFFFFFFFFFFFFFFFFFFFFFF AND SUB PUSH2 0xB40 JUMPI PUSH1 0x0 PUSH1 0x40 MLOAD PUSH32 0x57F447CE00000000000000000000000000000000000000000000000000000000 DUP2 MSTORE PUSH1 0x4 ADD PUSH2 0xB37 SWAP2 SWAP1 PUSH2 0x2153 JUMP JUMPDEST PUSH1 0x40 MLOAD DUP1 SWAP2 SUB SWAP1 REVERT JUMPDEST PUSH1 0x0 PUSH20 0xFFFFFFFFFFFFFFFFFFFFFFFFFFFFFFFFFFFFFFFF AND DUP6 PUSH20 0xFFFFFFFFFFFFFFFFFFFFFFFFFFFFFFFFFFFFFFFF AND SUB PUSH2 0xBB2 JUMPI PUSH1 0x0 PUSH1 0x40 MLOAD PUSH32 0x1A8351400000000000000000000000000000000000000000000000000000000 DUP2 MSTORE PUSH1 0x4 ADD PUSH2 0xBA9 SWAP2 SWAP1 PUSH2 0x2153 JUMP JUMPDEST PUSH1 0x40 MLOAD DUP1 SWAP2 SUB SWAP1 REVERT JUMPDEST PUSH2 0xBBF DUP6 DUP6 DUP6 DUP6 DUP6 PUSH2 0x10B2 JUMP JUMPDEST POP POP POP POP POP JUMP JUMPDEST PUSH1 0x0 PUSH1 0x20 DUP3 MUL PUSH1 0x20 DUP5 ADD ADD MLOAD SWAP1 POP SWAP3 SWAP2 POP POP JUMP JUMPDEST PUSH1 0x0 PUSH1 0x20 DUP3 MUL PUSH1 0x20 DUP5 ADD ADD MLOAD SWAP1 POP SWAP3 SWAP2 POP POP JUMP JUMPDEST PUSH1 0x0 PUSH1 0x3 PUSH1 0x0 SWAP1 SLOAD SWAP1 PUSH2 0x100 EXP SWAP1 DIV PUSH20 0xFFFFFFFFFFFFFFFFFFFFFFFFFFFFFFFFFFFFFFFF AND SWAP1 POP DUP2 PUSH1 0x3 PUSH1 0x0 PUSH2 0x100 EXP DUP2 SLOAD DUP2 PUSH20 0xFFFFFFFFFFFFFFFFFFFFFFFFFFFFFFFFFFFFFFFF MUL NOT AND SWAP1 DUP4 PUSH20 0xFFFFFFFFFFFFFFFFFFFFFFFFFFFFFFFFFFFFFFFF AND MUL OR SWAP1 SSTORE POP DUP2 PUSH20 0xFFFFFFFFFFFFFFFFFFFFFFFFFFFFFFFFFFFFFFFF AND DUP2 PUSH20 0xFFFFFFFFFFFFFFFFFFFFFFFFFFFFFFFFFFFFFFFF AND PUSH32 0x8BE0079C531659141344CD1FD0A4F28419497F9722A3DAAFE3B4186F6B6457E0 PUSH1 0x40 MLOAD PUSH1 0x40 MLOAD DUP1 SWAP2 SUB SWAP1 LOG3 POP POP JUMP JUMPDEST PUSH1 0x0 PUSH20 0xFFFFFFFFFFFFFFFFFFFFFFFFFFFFFFFFFFFFFFFF AND DUP3 PUSH20 0xFFFFFFFFFFFFFFFFFFFFFFFFFFFFFFFFFFFFFFFF AND SUB PUSH2 0xD26 JUMPI PUSH1 0x0 PUSH1 0x40 MLOAD PUSH32 0xCED3E10000000000000000000000000000000000000000000000000000000000 DUP2 MSTORE PUSH1 0x4 ADD PUSH2 0xD1D SWAP2 SWAP1 PUSH2 0x2153 JUMP JUMPDEST PUSH1 0x40 MLOAD DUP1 SWAP2 SUB SWAP1 REVERT JUMPDEST DUP1 PUSH1 0x1 PUSH1 0x0 DUP6 PUSH20 0xFFFFFFFFFFFFFFFFFFFFFFFFFFFFFFFFFFFFFFFF AND PUSH20 0xFFFFFFFFFFFFFFFFFFFFFFFFFFFFFFFFFFFFFFFF AND DUP2 MSTORE PUSH1 0x20 ADD SWAP1 DUP2 MSTORE PUSH1 0x20 ADD PUSH1 0x0 KECCAK256 PUSH1 0x0 DUP5 PUSH20 0xFFFFFFFFFFFFFFFFFFFFFFFFFFFFFFFFFFFFFFFF AND PUSH20 0xFFFFFFFFFFFFFFFFFFFFFFFFFFFFFFFFFFFFFFFF AND DUP2 MSTORE PUSH1 0x20 ADD SWAP1 DUP2 MSTORE PUSH1 0x20 ADD PUSH1 0x0 KECCAK256 PUSH1 0x0 PUSH2 0x100 EXP DUP2 SLOAD DUP2 PUSH1 0xFF MUL NOT AND SWAP1 DUP4 ISZERO ISZERO MUL OR SWAP1 SSTORE POP DUP2 PUSH20 0xFFFFFFFFFFFFFFFFFFFFFFFFFFFFFFFFFFFFFFFF AND DUP4 PUSH20 0xFFFFFFFFFFFFFFFFFFFFFFFFFFFFFFFFFFFFFFFF AND PUSH32 0x17307EAB39AB6107E8899845AD3D59BD9653F200F220920489CA2B5937696C31 DUP4 PUSH1 0x40 MLOAD PUSH2 0xE17 SWAP2 SWAP1 PUSH2 0x1A26 JUMP JUMPDEST PUSH1 0x40 MLOAD DUP1 SWAP2 SUB SWAP1 LOG3 POP POP POP JUMP JUMPDEST PUSH1 0x0 PUSH20 0xFFFFFFFFFFFFFFFFFFFFFFFFFFFFFFFFFFFFFFFF AND DUP5 PUSH20 0xFFFFFFFFFFFFFFFFFFFFFFFFFFFFFFFFFFFFFFFF AND SUB PUSH2 0xE96 JUMPI PUSH1 0x0 PUSH1 0x40 MLOAD PUSH32 0x57F447CE00000000000000000000000000000000000000000000000000000000 DUP2 MSTORE PUSH1 0x4 ADD PUSH2 0xE8D SWAP2 SWAP1 PUSH2 0x2153 JUMP JUMPDEST PUSH1 0x40 MLOAD DUP1 SWAP2 SUB SWAP1 REVERT JUMPDEST PUSH1 0x0 PUSH20 0xFFFFFFFFFFFFFFFFFFFFFFFFFFFFFFFFFFFFFFFF AND DUP6 PUSH20 0xFFFFFFFFFFFFFFFFFFFFFFFFFFFFFFFFFFFFFFFF AND SUB PUSH2 0xF08 JUMPI PUSH1 0x0 PUSH1 0x40 MLOAD PUSH32 0x1A8351400000000000000000000000000000000000000000000000000000000 DUP2 MSTORE PUSH1 0x4 ADD PUSH2 0xEFF SWAP2 SWAP1 PUSH2 0x2153 JUMP JUMPDEST PUSH1 0x40 MLOAD DUP1 SWAP2 SUB SWAP1 REVERT JUMPDEST PUSH1 0x0 DUP1 PUSH2 0xF15 DUP6 DUP6 PUSH2 0x1082 JUMP JUMPDEST SWAP2 POP SWAP2 POP PUSH2 0xF26 DUP8 DUP8 DUP5 DUP5 DUP8 PUSH2 0x10B2 JUMP JUMPDEST POP POP POP POP POP POP POP JUMP JUMPDEST PUSH1 0x0 DUP1 PUSH1 0x0 SWAP1 POP PUSH27 0x184F03E93FF9F4DAA797ED6E38ED64BF6A1F010000000000000000 DUP4 LT PUSH2 0xF8D JUMPI PUSH27 0x184F03E93FF9F4DAA797ED6E38ED64BF6A1F010000000000000000 DUP4 DUP2 PUSH2 0xF83 JUMPI PUSH2 0xF82 PUSH2 0x27E5 JUMP JUMPDEST JUMPDEST DIV SWAP3 POP PUSH1 0x40 DUP2 ADD SWAP1 POP JUMPDEST PUSH14 0x4EE2D6D415B85ACEF8100000000 DUP4 LT PUSH2 0xFCA JUMPI PUSH14 0x4EE2D6D415B85ACEF8100000000 DUP4 DUP2 PUSH2 0xFC0 JUMPI PUSH2 0xFBF PUSH2 0x27E5 JUMP JUMPDEST JUMPDEST DIV SWAP3 POP PUSH1 0x20 DUP2 ADD SWAP1 POP JUMPDEST PUSH7 0x2386F26FC10000 DUP4 LT PUSH2 0xFF9 JUMPI PUSH7 0x2386F26FC10000 DUP4 DUP2 PUSH2 0xFEF JUMPI PUSH2 0xFEE PUSH2 0x27E5 JUMP JUMPDEST JUMPDEST DIV SWAP3 POP PUSH1 0x10 DUP2 ADD SWAP1 POP JUMPDEST PUSH4 0x5F5E100 DUP4 LT PUSH2 0x1022 JUMPI PUSH4 0x5F5E100 DUP4 DUP2 PUSH2 0x1018 JUMPI PUSH2 0x1017 PUSH2 0x27E5 JUMP JUMPDEST JUMPDEST DIV SWAP3 POP PUSH1 0x8 DUP2 ADD SWAP1 POP JUMPDEST PUSH2 0x2710 DUP4 LT PUSH2 0x1047 JUMPI PUSH2 0x2710 DUP4 DUP2 PUSH2 0x103D JUMPI PUSH2 0x103C PUSH2 0x27E5 JUMP JUMPDEST JUMPDEST DIV SWAP3 POP PUSH1 0x4 DUP2 ADD SWAP1 POP JUMPDEST PUSH1 0x64 DUP4 LT PUSH2 0x106A JUMPI PUSH1 0x64 DUP4 DUP2 PUSH2 0x1060 JUMPI PUSH2 0x105F PUSH2 0x27E5 JUMP JUMPDEST JUMPDEST DIV SWAP3 POP PUSH1 0x2 DUP2 ADD SWAP1 POP JUMPDEST PUSH1 0xA DUP4 LT PUSH2 0x1079 JUMPI PUSH1 0x1 DUP2 ADD SWAP1 POP JUMPDEST DUP1 SWAP2 POP POP SWAP2 SWAP1 POP JUMP JUMPDEST PUSH1 0x60 DUP1 PUSH1 0x40 MLOAD SWAP2 POP PUSH1 0x1 DUP3 MSTORE DUP4 PUSH1 0x20 DUP4 ADD MSTORE PUSH1 0x40 DUP3 ADD SWAP1 POP PUSH1 0x1 DUP2 MSTORE DUP3 PUSH1 0x20 DUP3 ADD MSTORE PUSH1 0x40 DUP2 ADD PUSH1 0x40 MSTORE SWAP3 POP SWAP3 SWAP1 POP JUMP JUMPDEST PUSH2 0x10BE DUP6 DUP6 DUP6 DUP6 PUSH2 0x1164 JUMP JUMPDEST PUSH1 0x0 PUSH20 0xFFFFFFFFFFFFFFFFFFFFFFFFFFFFFFFFFFFFFFFF AND DUP5 PUSH20 0xFFFFFFFFFFFFFFFFFFFFFFFFFFFFFFFFFFFFFFFF AND EQ PUSH2 0x115D JUMPI PUSH1 0x0 PUSH2 0x10FC PUSH2 0xAC6 JUMP JUMPDEST SWAP1 POP PUSH1 0x1 DUP5 MLOAD SUB PUSH2 0x114C JUMPI PUSH1 0x0 PUSH2 0x111D PUSH1 0x0 DUP7 PUSH2 0xBDA SWAP1 SWAP2 SWAP1 PUSH4 0xFFFFFFFF AND JUMP JUMPDEST SWAP1 POP PUSH1 0x0 PUSH2 0x1135 PUSH1 0x0 DUP7 PUSH2 0xBDA SWAP1 SWAP2 SWAP1 PUSH4 0xFFFFFFFF AND JUMP JUMPDEST SWAP1 POP PUSH2 0x1145 DUP4 DUP10 DUP10 DUP6 DUP6 DUP10 PUSH2 0x150C JUMP JUMPDEST POP POP PUSH2 0x115B JUMP JUMPDEST PUSH2 0x115A DUP2 DUP8 DUP8 DUP8 DUP8 DUP8 PUSH2 0x16C0 JUMP JUMPDEST JUMPDEST POP JUMPDEST POP POP POP POP POP JUMP JUMPDEST DUP1 MLOAD DUP3 MLOAD EQ PUSH2 0x11AE JUMPI DUP2 MLOAD DUP2 MLOAD PUSH1 0x40 MLOAD PUSH32 0x5B05999100000000000000000000000000000000000000000000000000000000 DUP2 MSTORE PUSH1 0x4 ADD PUSH2 0x11A5 SWAP3 SWAP2 SWAP1 PUSH2 0x271F JUMP JUMPDEST PUSH1 0x40 MLOAD DUP1 SWAP2 SUB SWAP1 REVERT JUMPDEST PUSH1 0x0 PUSH2 0x11B8 PUSH2 0xAC6 JUMP JUMPDEST SWAP1 POP PUSH1 0x0 JUMPDEST DUP4 MLOAD DUP2 LT ISZERO PUSH2 0x13C7 JUMPI PUSH1 0x0 PUSH2 0x11DB DUP3 DUP7 PUSH2 0xBDA SWAP1 SWAP2 SWAP1 PUSH4 0xFFFFFFFF AND JUMP JUMPDEST SWAP1 POP PUSH1 0x0 PUSH2 0x11F2 DUP4 DUP7 PUSH2 0xBDA SWAP1 SWAP2 SWAP1 PUSH4 0xFFFFFFFF AND JUMP JUMPDEST SWAP1 POP PUSH1 0x0 PUSH20 0xFFFFFFFFFFFFFFFFFFFFFFFFFFFFFFFFFFFFFFFF AND DUP9 PUSH20 0xFFFFFFFFFFFFFFFFFFFFFFFFFFFFFFFFFFFFFFFF AND EQ PUSH2 0x131F JUMPI PUSH1 0x0 DUP1 PUSH1 0x0 DUP5 DUP2 MSTORE PUSH1 0x20 ADD SWAP1 DUP2 MSTORE PUSH1 0x20 ADD PUSH1 0x0 KECCAK256 PUSH1 0x0 DUP11 PUSH20 0xFFFFFFFFFFFFFFFFFFFFFFFFFFFFFFFFFFFFFFFF AND PUSH20 0xFFFFFFFFFFFFFFFFFFFFFFFFFFFFFFFFFFFFFFFF AND DUP2 MSTORE PUSH1 0x20 ADD SWAP1 DUP2 MSTORE PUSH1 0x20 ADD PUSH1 0x0 KECCAK256 SLOAD SWAP1 POP DUP2 DUP2 LT ISZERO PUSH2 0x12C7 JUMPI DUP9 DUP2 DUP4 DUP6 PUSH1 0x40 MLOAD PUSH32 0x3DEE4C500000000000000000000000000000000000000000000000000000000 DUP2 MSTORE PUSH1 0x4 ADD PUSH2 0x12BE SWAP5 SWAP4 SWAP3 SWAP2 SWAP1 PUSH2 0x2814 JUMP JUMPDEST PUSH1 0x40 MLOAD DUP1 SWAP2 SUB SWAP1 REVERT JUMPDEST DUP2 DUP2 SUB PUSH1 0x0 DUP1 DUP6 DUP2 MSTORE PUSH1 0x20 ADD SWAP1 DUP2 MSTORE PUSH1 0x20 ADD PUSH1 0x0 KECCAK256 PUSH1 0x0 DUP12 PUSH20 0xFFFFFFFFFFFFFFFFFFFFFFFFFFFFFFFFFFFFFFFF AND PUSH20 0xFFFFFFFFFFFFFFFFFFFFFFFFFFFFFFFFFFFFFFFF AND DUP2 MSTORE PUSH1 0x20 ADD SWAP1 DUP2 MSTORE PUSH1 0x20 ADD PUSH1 0x0 KECCAK256 DUP2 SWAP1 SSTORE POP POP JUMPDEST PUSH1 0x0 PUSH20 0xFFFFFFFFFFFFFFFFFFFFFFFFFFFFFFFFFFFFFFFF AND DUP8 PUSH20 0xFFFFFFFFFFFFFFFFFFFFFFFFFFFFFFFFFFFFFFFF AND EQ PUSH2 0x13BA JUMPI DUP1 PUSH1 0x0 DUP1 DUP5 DUP2 MSTORE PUSH1 0x20 ADD SWAP1 DUP2 MSTORE PUSH1 0x20 ADD PUSH1 0x0 KECCAK256 PUSH1 0x0 DUP10 PUSH20 0xFFFFFFFFFFFFFFFFFFFFFFFFFFFFFFFFFFFFFFFF AND PUSH20 0xFFFFFFFFFFFFFFFFFFFFFFFFFFFFFFFFFFFFFFFF AND DUP2 MSTORE PUSH1 0x20 ADD SWAP1 DUP2 MSTORE PUSH1 0x20 ADD PUSH1 0x0 KECCAK256 PUSH1 0x0 DUP3 DUP3 SLOAD PUSH2 0x13B2 SWAP2 SWAP1 PUSH2 0x2888 JUMP JUMPDEST SWAP3 POP POP DUP2 SWAP1 SSTORE POP JUMPDEST POP POP DUP1 PUSH1 0x1 ADD SWAP1 POP PUSH2 0x11BD JUMP JUMPDEST POP PUSH1 0x1 DUP4 MLOAD SUB PUSH2 0x1486 JUMPI PUSH1 0x0 PUSH2 0x13E7 PUSH1 0x0 DUP6 PUSH2 0xBDA SWAP1 SWAP2 SWAP1 PUSH4 0xFFFFFFFF AND JUMP JUMPDEST SWAP1 POP PUSH1 0x0 PUSH2 0x13FF PUSH1 0x0 DUP6 PUSH2 0xBDA SWAP1 SWAP2 SWAP1 PUSH4 0xFFFFFFFF AND JUMP JUMPDEST SWAP1 POP DUP6 PUSH20 0xFFFFFFFFFFFFFFFFFFFFFFFFFFFFFFFFFFFFFFFF AND DUP8 PUSH20 0xFFFFFFFFFFFFFFFFFFFFFFFFFFFFFFFFFFFFFFFF AND DUP5 PUSH20 0xFFFFFFFFFFFFFFFFFFFFFFFFFFFFFFFFFFFFFFFF AND PUSH32 0xC3D58168C5AE7397731D063D5BBF3D657854427343F4C083240F7AACAA2D0F62 DUP6 DUP6 PUSH1 0x40 MLOAD PUSH2 0x1477 SWAP3 SWAP2 SWAP1 PUSH2 0x271F JUMP JUMPDEST PUSH1 0x40 MLOAD DUP1 SWAP2 SUB SWAP1 LOG4 POP POP PUSH2 0x1505 JUMP JUMPDEST DUP4 PUSH20 0xFFFFFFFFFFFFFFFFFFFFFFFFFFFFFFFFFFFFFFFF AND DUP6 PUSH20 0xFFFFFFFFFFFFFFFFFFFFFFFFFFFFFFFFFFFFFFFF AND DUP3 PUSH20 0xFFFFFFFFFFFFFFFFFFFFFFFFFFFFFFFFFFFFFFFF AND PUSH32 0x4A39DC06D4C0DBC64B70AF90FD698A233A518AA5D07E595D983B8C0526C8F7FB DUP7 DUP7 PUSH1 0x40 MLOAD PUSH2 0x14FC SWAP3 SWAP2 SWAP1 PUSH2 0x28BC JUMP JUMPDEST PUSH1 0x40 MLOAD DUP1 SWAP2 SUB SWAP1 LOG4 JUMPDEST POP POP POP POP POP JUMP JUMPDEST PUSH1 0x0 DUP5 PUSH20 0xFFFFFFFFFFFFFFFFFFFFFFFFFFFFFFFFFFFFFFFF AND EXTCODESIZE GT ISZERO PUSH2 0x16B8 JUMPI DUP4 PUSH20 0xFFFFFFFFFFFFFFFFFFFFFFFFFFFFFFFFFFFFFFFF AND PUSH4 0xF23A6E61 DUP8 DUP8 DUP7 DUP7 DUP7 PUSH1 0x40 MLOAD DUP7 PUSH4 0xFFFFFFFF AND PUSH1 0xE0 SHL DUP2 MSTORE PUSH1 0x4 ADD PUSH2 0x156D SWAP6 SWAP5 SWAP4 SWAP3 SWAP2 SWAP1 PUSH2 0x2948 JUMP JUMPDEST PUSH1 0x20 PUSH1 0x40 MLOAD DUP1 DUP4 SUB DUP2 PUSH1 0x0 DUP8 GAS CALL SWAP3 POP POP POP DUP1 ISZERO PUSH2 0x15A9 JUMPI POP PUSH1 0x40 MLOAD RETURNDATASIZE PUSH1 0x1F NOT PUSH1 0x1F DUP3 ADD AND DUP3 ADD DUP1 PUSH1 0x40 MSTORE POP DUP2 ADD SWAP1 PUSH2 0x15A6 SWAP2 SWAP1 PUSH2 0x29B7 JUMP JUMPDEST PUSH1 0x1 JUMPDEST PUSH2 0x162D JUMPI RETURNDATASIZE DUP1 PUSH1 0x0 DUP2 EQ PUSH2 0x15D9 JUMPI PUSH1 0x40 MLOAD SWAP2 POP PUSH1 0x1F NOT PUSH1 0x3F RETURNDATASIZE ADD AND DUP3 ADD PUSH1 0x40 MSTORE RETURNDATASIZE DUP3 MSTORE RETURNDATASIZE PUSH1 0x0 PUSH1 0x20 DUP5 ADD RETURNDATACOPY PUSH2 0x15DE JUMP JUMPDEST PUSH1 0x60 SWAP2 POP JUMPDEST POP PUSH1 0x0 DUP2 MLOAD SUB PUSH2 0x1625 JUMPI DUP5 PUSH1 0x40 MLOAD PUSH32 0x57F447CE00000000000000000000000000000000000000000000000000000000 DUP2 MSTORE PUSH1 0x4 ADD PUSH2 0x161C SWAP2 SWAP1 PUSH2 0x2153 JUMP JUMPDEST PUSH1 0x40 MLOAD DUP1 SWAP2 SUB SWAP1 REVERT JUMPDEST DUP1 MLOAD DUP2 PUSH1 0x20 ADD REVERT JUMPDEST PUSH4 0xF23A6E61 PUSH1 0xE0 SHL PUSH28 0xFFFFFFFFFFFFFFFFFFFFFFFFFFFFFFFFFFFFFFFFFFFFFFFFFFFFFFFF NOT AND DUP2 PUSH28 0xFFFFFFFFFFFFFFFFFFFFFFFFFFFFFFFFFFFFFFFFFFFFFFFFFFFFFFFF NOT AND EQ PUSH2 0x16B6 JUMPI DUP5 PUSH1 0x40 MLOAD PUSH32 0x57F447CE00000000000000000000000000000000000000000000000000000000 DUP2 MSTORE PUSH1 0x4 ADD PUSH2 0x16AD SWAP2 SWAP1 PUSH2 0x2153 JUMP JUMPDEST PUSH1 0x40 MLOAD DUP1 SWAP2 SUB SWAP1 REVERT JUMPDEST POP JUMPDEST POP POP POP POP POP POP JUMP JUMPDEST PUSH1 0x0 DUP5 PUSH20 0xFFFFFFFFFFFFFFFFFFFFFFFFFFFFFFFFFFFFFFFF AND EXTCODESIZE GT ISZERO PUSH2 0x186C JUMPI DUP4 PUSH20 0xFFFFFFFFFFFFFFFFFFFFFFFFFFFFFFFFFFFFFFFF AND PUSH4 0xBC197C81 DUP8 DUP8 DUP7 DUP7 DUP7 PUSH1 0x40 MLOAD DUP7 PUSH4 0xFFFFFFFF AND PUSH1 0xE0 SHL DUP2 MSTORE PUSH1 0x4 ADD PUSH2 0x1721 SWAP6 SWAP5 SWAP4 SWAP3 SWAP2 SWAP1 PUSH2 0x29E4 JUMP JUMPDEST PUSH1 0x20 PUSH1 0x40 MLOAD DUP1 DUP4 SUB DUP2 PUSH1 0x0 DUP8 GAS CALL SWAP3 POP POP POP DUP1 ISZERO PUSH2 0x175D JUMPI POP PUSH1 0x40 MLOAD RETURNDATASIZE PUSH1 0x1F NOT PUSH1 0x1F DUP3 ADD AND DUP3 ADD DUP1 PUSH1 0x40 MSTORE POP DUP2 ADD SWAP1 PUSH2 0x175A SWAP2 SWAP1 PUSH2 0x29B7 JUMP JUMPDEST PUSH1 0x1 JUMPDEST PUSH2 0x17E1 JUMPI RETURNDATASIZE DUP1 PUSH1 0x0 DUP2 EQ PUSH2 0x178D JUMPI PUSH1 0x40 MLOAD SWAP2 POP PUSH1 0x1F NOT PUSH1 0x3F RETURNDATASIZE ADD AND DUP3 ADD PUSH1 0x40 MSTORE RETURNDATASIZE DUP3 MSTORE RETURNDATASIZE PUSH1 0x0 PUSH1 0x20 DUP5 ADD RETURNDATACOPY PUSH2 0x1792 JUMP JUMPDEST PUSH1 0x60 SWAP2 POP JUMPDEST POP PUSH1 0x0 DUP2 MLOAD SUB PUSH2 0x17D9 JUMPI DUP5 PUSH1 0x40 MLOAD PUSH32 0x57F447CE00000000000000000000000000000000000000000000000000000000 DUP2 MSTORE PUSH1 0x4 ADD PUSH2 0x17D0 SWAP2 SWAP1 PUSH2 0x2153 JUMP JUMPDEST PUSH1 0x40 MLOAD DUP1 SWAP2 SUB SWAP1 REVERT JUMPDEST DUP1 MLOAD DUP2 PUSH1 0x20 ADD REVERT JUMPDEST PUSH4 0xBC197C81 PUSH1 0xE0 SHL PUSH28 0xFFFFFFFFFFFFFFFFFFFFFFFFFFFFFFFFFFFFFFFFFFFFFFFFFFFFFFFF NOT AND DUP2 PUSH28 0xFFFFFFFFFFFFFFFFFFFFFFFFFFFFFFFFFFFFFFFFFFFFFFFFFFFFFFFF NOT AND EQ PUSH2 0x186A JUMPI DUP5 PUSH1 0x40 MLOAD PUSH32 0x57F447CE00000000000000000000000000000000000000000000000000000000 DUP2 MSTORE PUSH1 0x4 ADD PUSH2 0x1861 SWAP2 SWAP1 PUSH2 0x2153 JUMP JUMPDEST PUSH1 0x40 MLOAD DUP1 SWAP2 SUB SWAP1 REVERT JUMPDEST POP JUMPDEST POP POP POP POP POP POP JUMP JUMPDEST PUSH1 0x0 PUSH1 0x40 MLOAD SWAP1 POP SWAP1 JUMP JUMPDEST PUSH1 0x0 DUP1 REVERT JUMPDEST PUSH1 0x0 DUP1 REVERT JUMPDEST PUSH1 0x0 PUSH20 0xFFFFFFFFFFFFFFFFFFFFFFFFFFFFFFFFFFFFFFFF DUP3 AND SWAP1 POP SWAP2 SWAP1 POP JUMP JUMPDEST PUSH1 0x0 PUSH2 0x18B3 DUP3 PUSH2 0x1888 JUMP JUMPDEST SWAP1 POP SWAP2 SWAP1 POP JUMP JUMPDEST PUSH2 0x18C3 DUP2 PUSH2 0x18A8 JUMP JUMPDEST DUP2 EQ PUSH2 0x18CE JUMPI PUSH1 0x0 DUP1 REVERT JUMPDEST POP JUMP JUMPDEST PUSH1 0x0 DUP2 CALLDATALOAD SWAP1 POP PUSH2 0x18E0 DUP2 PUSH2 0x18BA JUMP JUMPDEST SWAP3 SWAP2 POP POP JUMP JUMPDEST PUSH1 0x0 DUP2 SWAP1 POP SWAP2 SWAP1 POP JUMP JUMPDEST PUSH2 0x18F9 DUP2 PUSH2 0x18E6 JUMP JUMPDEST DUP2 EQ PUSH2 0x1904 JUMPI PUSH1 0x0 DUP1 REVERT JUMPDEST POP JUMP JUMPDEST PUSH1 0x0 DUP2 CALLDATALOAD SWAP1 POP PUSH2 0x1916 DUP2 PUSH2 0x18F0 JUMP JUMPDEST SWAP3 SWAP2 POP POP JUMP JUMPDEST PUSH1 0x0 DUP1 PUSH1 0x40 DUP4 DUP6 SUB SLT ISZERO PUSH2 0x1933 JUMPI PUSH2 0x1932 PUSH2 0x187E JUMP JUMPDEST JUMPDEST PUSH1 0x0 PUSH2 0x1941 DUP6 DUP3 DUP7 ADD PUSH2 0x18D1 JUMP JUMPDEST SWAP3 POP POP PUSH1 0x20 PUSH2 0x1952 DUP6 DUP3 DUP7 ADD PUSH2 0x1907 JUMP JUMPDEST SWAP2 POP POP SWAP3 POP SWAP3 SWAP1 POP JUMP JUMPDEST PUSH2 0x1965 DUP2 PUSH2 0x18E6 JUMP JUMPDEST DUP3 MSTORE POP POP JUMP JUMPDEST PUSH1 0x0 PUSH1 0x20 DUP3 ADD SWAP1 POP PUSH2 0x1980 PUSH1 0x0 DUP4 ADD DUP5 PUSH2 0x195C JUMP JUMPDEST SWAP3 SWAP2 POP POP JUMP JUMPDEST PUSH1 0x0 PUSH32 0xFFFFFFFF00000000000000000000000000000000000000000000000000000000 DUP3 AND SWAP1 POP SWAP2 SWAP1 POP JUMP JUMPDEST PUSH2 0x19BB DUP2 PUSH2 0x1986 JUMP JUMPDEST DUP2 EQ PUSH2 0x19C6 JUMPI PUSH1 0x0 DUP1 REVERT JUMPDEST POP JUMP JUMPDEST PUSH1 0x0 DUP2 CALLDATALOAD SWAP1 POP PUSH2 0x19D8 DUP2 PUSH2 0x19B2 JUMP JUMPDEST SWAP3 SWAP2 POP POP JUMP JUMPDEST PUSH1 0x0 PUSH1 0x20 DUP3 DUP5 SUB SLT ISZERO PUSH2 0x19F4 JUMPI PUSH2 0x19F3 PUSH2 0x187E JUMP JUMPDEST JUMPDEST PUSH1 0x0 PUSH2 0x1A02 DUP5 DUP3 DUP6 ADD PUSH2 0x19C9 JUMP JUMPDEST SWAP2 POP POP SWAP3 SWAP2 POP POP JUMP JUMPDEST PUSH1 0x0 DUP2 ISZERO ISZERO SWAP1 POP SWAP2 SWAP1 POP JUMP JUMPDEST PUSH2 0x1A20 DUP2 PUSH2 0x1A0B JUMP JUMPDEST DUP3 MSTORE POP POP JUMP JUMPDEST PUSH1 0x0 PUSH1 0x20 DUP3 ADD SWAP1 POP PUSH2 0x1A3B PUSH1 0x0 DUP4 ADD DUP5 PUSH2 0x1A17 JUMP JUMPDEST SWAP3 SWAP2 POP POP JUMP JUMPDEST PUSH1 0x0 DUP1 REVERT JUMPDEST PUSH1 0x0 DUP1 REVERT JUMPDEST PUSH1 0x0 PUSH1 0x1F NOT PUSH1 0x1F DUP4 ADD AND SWAP1 POP SWAP2 SWAP1 POP JUMP JUMPDEST PUSH32 0x4E487B7100000000000000000000000000000000000000000000000000000000 PUSH1 0x0 MSTORE PUSH1 0x41 PUSH1 0x4 MSTORE PUSH1 0x24 PUSH1 0x0 REVERT JUMPDEST PUSH2 0x1A94 DUP3 PUSH2 0x1A4B JUMP JUMPDEST DUP2 ADD DUP2 DUP2 LT PUSH8 0xFFFFFFFFFFFFFFFF DUP3 GT OR ISZERO PUSH2 0x1AB3 JUMPI PUSH2 0x1AB2 PUSH2 0x1A5C JUMP JUMPDEST JUMPDEST DUP1 PUSH1 0x40 MSTORE POP POP POP JUMP JUMPDEST PUSH1 0x0 PUSH2 0x1AC6 PUSH2 0x1874 JUMP JUMPDEST SWAP1 POP PUSH2 0x1AD2 DUP3 DUP3 PUSH2 0x1A8B JUMP JUMPDEST SWAP2 SWAP1 POP JUMP JUMPDEST PUSH1 0x0 PUSH8 0xFFFFFFFFFFFFFFFF DUP3 GT ISZERO PUSH2 0x1AF2 JUMPI PUSH2 0x1AF1 PUSH2 0x1A5C JUMP JUMPDEST JUMPDEST PUSH2 0x1AFB DUP3 PUSH2 0x1A4B JUMP JUMPDEST SWAP1 POP PUSH1 0x20 DUP2 ADD SWAP1 POP SWAP2 SWAP1 POP JUMP JUMPDEST DUP3 DUP2 DUP4 CALLDATACOPY PUSH1 0x0 DUP4 DUP4 ADD MSTORE POP POP POP JUMP JUMPDEST PUSH1 0x0 PUSH2 0x1B2A PUSH2 0x1B25 DUP5 PUSH2 0x1AD7 JUMP JUMPDEST PUSH2 0x1ABC JUMP JUMPDEST SWAP1 POP DUP3 DUP2 MSTORE PUSH1 0x20 DUP2 ADD DUP5 DUP5 DUP5 ADD GT ISZERO PUSH2 0x1B46 JUMPI PUSH2 0x1B45 PUSH2 0x1A46 JUMP JUMPDEST JUMPDEST PUSH2 0x1B51 DUP5 DUP3 DUP6 PUSH2 0x1B08 JUMP JUMPDEST POP SWAP4 SWAP3 POP POP POP JUMP JUMPDEST PUSH1 0x0 DUP3 PUSH1 0x1F DUP4 ADD SLT PUSH2 0x1B6E JUMPI PUSH2 0x1B6D PUSH2 0x1A41 JUMP JUMPDEST JUMPDEST DUP2 CALLDATALOAD PUSH2 0x1B7E DUP5 DUP3 PUSH1 0x20 DUP7 ADD PUSH2 0x1B17 JUMP JUMPDEST SWAP2 POP POP SWAP3 SWAP2 POP POP JUMP JUMPDEST PUSH1 0x0 PUSH1 0x20 DUP3 DUP5 SUB SLT ISZERO PUSH2 0x1B9D JUMPI PUSH2 0x1B9C PUSH2 0x187E JUMP JUMPDEST JUMPDEST PUSH1 0x0 DUP3 ADD CALLDATALOAD PUSH8 0xFFFFFFFFFFFFFFFF DUP2 GT ISZERO PUSH2 0x1BBB JUMPI PUSH2 0x1BBA PUSH2 0x1883 JUMP JUMPDEST JUMPDEST PUSH2 0x1BC7 DUP5 DUP3 DUP6 ADD PUSH2 0x1B59 JUMP JUMPDEST SWAP2 POP POP SWAP3 SWAP2 POP POP JUMP JUMPDEST PUSH1 0x0 PUSH1 0x20 DUP3 DUP5 SUB SLT ISZERO PUSH2 0x1BE6 JUMPI PUSH2 0x1BE5 PUSH2 0x187E JUMP JUMPDEST JUMPDEST PUSH1 0x0 PUSH2 0x1BF4 DUP5 DUP3 DUP6 ADD PUSH2 0x1907 JUMP JUMPDEST SWAP2 POP POP SWAP3 SWAP2 POP POP JUMP JUMPDEST PUSH1 0x0 DUP2 MLOAD SWAP1 POP SWAP2 SWAP1 POP JUMP JUMPDEST PUSH1 0x0 DUP3 DUP3 MSTORE PUSH1 0x20 DUP3 ADD SWAP1 POP SWAP3 SWAP2 POP POP JUMP JUMPDEST PUSH1 0x0 JUMPDEST DUP4 DUP2 LT ISZERO PUSH2 0x1C37 JUMPI DUP1 DUP3 ADD MLOAD DUP2 DUP5 ADD MSTORE PUSH1 0x20 DUP2 ADD SWAP1 POP PUSH2 0x1C1C JUMP JUMPDEST PUSH1 0x0 DUP5 DUP5 ADD MSTORE POP POP POP POP JUMP JUMPDEST PUSH1 0x0 PUSH2 0x1C4E DUP3 PUSH2 0x1BFD JUMP JUMPDEST PUSH2 0x1C58 DUP2 DUP6 PUSH2 0x1C08 JUMP JUMPDEST SWAP4 POP PUSH2 0x1C68 DUP2 DUP6 PUSH1 0x20 DUP7 ADD PUSH2 0x1C19 JUMP JUMPDEST PUSH2 0x1C71 DUP2 PUSH2 0x1A4B JUMP JUMPDEST DUP5 ADD SWAP2 POP POP SWAP3 SWAP2 POP POP JUMP JUMPDEST PUSH1 0x0 PUSH1 0x20 DUP3 ADD SWAP1 POP DUP2 DUP2 SUB PUSH1 0x0 DUP4 ADD MSTORE PUSH2 0x1C96 DUP2 DUP5 PUSH2 0x1C43 JUMP JUMPDEST SWAP1 POP SWAP3 SWAP2 POP POP JUMP JUMPDEST PUSH1 0x0 DUP1 PUSH1 0x0 PUSH1 0x60 DUP5 DUP7 SUB SLT ISZERO PUSH2 0x1CB7 JUMPI PUSH2 0x1CB6 PUSH2 0x187E JUMP JUMPDEST JUMPDEST PUSH1 0x0 PUSH2 0x1CC5 DUP7 DUP3 DUP8 ADD PUSH2 0x18D1 JUMP JUMPDEST SWAP4 POP POP PUSH1 0x20 PUSH2 0x1CD6 DUP7 DUP3 DUP8 ADD PUSH2 0x1907 JUMP JUMPDEST SWAP3 POP POP PUSH1 0x40 PUSH2 0x1CE7 DUP7 DUP3 DUP8 ADD PUSH2 0x1907 JUMP JUMPDEST SWAP2 POP POP SWAP3 POP SWAP3 POP SWAP3 JUMP JUMPDEST PUSH1 0x0 PUSH8 0xFFFFFFFFFFFFFFFF DUP3 GT ISZERO PUSH2 0x1D0C JUMPI PUSH2 0x1D0B PUSH2 0x1A5C JUMP JUMPDEST JUMPDEST PUSH1 0x20 DUP3 MUL SWAP1 POP PUSH1 0x20 DUP2 ADD SWAP1 POP SWAP2 SWAP1 POP JUMP JUMPDEST PUSH1 0x0 DUP1 REVERT JUMPDEST PUSH1 0x0 PUSH2 0x1D35 PUSH2 0x1D30 DUP5 PUSH2 0x1CF1 JUMP JUMPDEST PUSH2 0x1ABC JUMP JUMPDEST SWAP1 POP DUP1 DUP4 DUP3 MSTORE PUSH1 0x20 DUP3 ADD SWAP1 POP PUSH1 0x20 DUP5 MUL DUP4 ADD DUP6 DUP2 GT ISZERO PUSH2 0x1D58 JUMPI PUSH2 0x1D57 PUSH2 0x1D1D JUMP JUMPDEST JUMPDEST DUP4 JUMPDEST DUP2 DUP2 LT ISZERO PUSH2 0x1D81 JUMPI DUP1 PUSH2 0x1D6D DUP9 DUP3 PUSH2 0x1907 JUMP JUMPDEST DUP5 MSTORE PUSH1 0x20 DUP5 ADD SWAP4 POP POP PUSH1 0x20 DUP2 ADD SWAP1 POP PUSH2 0x1D5A JUMP JUMPDEST POP POP POP SWAP4 SWAP3 POP POP POP JUMP JUMPDEST PUSH1 0x0 DUP3 PUSH1 0x1F DUP4 ADD SLT PUSH2 0x1DA0 JUMPI PUSH2 0x1D9F PUSH2 0x1A41 JUMP JUMPDEST JUMPDEST DUP2 CALLDATALOAD PUSH2 0x1DB0 DUP5 DUP3 PUSH1 0x20 DUP7 ADD PUSH2 0x1D22 JUMP JUMPDEST SWAP2 POP POP SWAP3 SWAP2 POP POP JUMP JUMPDEST PUSH1 0x0 PUSH8 0xFFFFFFFFFFFFFFFF DUP3 GT ISZERO PUSH2 0x1DD4 JUMPI PUSH2 0x1DD3 PUSH2 0x1A5C JUMP JUMPDEST JUMPDEST PUSH2 0x1DDD DUP3 PUSH2 0x1A4B JUMP JUMPDEST SWAP1 POP PUSH1 0x20 DUP2 ADD SWAP1 POP SWAP2 SWAP1 POP JUMP JUMPDEST PUSH1 0x0 PUSH2 0x1DFD PUSH2 0x1DF8 DUP5 PUSH2 0x1DB9 JUMP JUMPDEST PUSH2 0x1ABC JUMP JUMPDEST SWAP1 POP DUP3 DUP2 MSTORE PUSH1 0x20 DUP2 ADD DUP5 DUP5 DUP5 ADD GT ISZERO PUSH2 0x1E19 JUMPI PUSH2 0x1E18 PUSH2 0x1A46 JUMP JUMPDEST JUMPDEST PUSH2 0x1E24 DUP5 DUP3 DUP6 PUSH2 0x1B08 JUMP JUMPDEST POP SWAP4 SWAP3 POP POP POP JUMP JUMPDEST PUSH1 0x0 DUP3 PUSH1 0x1F DUP4 ADD SLT PUSH2 0x1E41 JUMPI PUSH2 0x1E40 PUSH2 0x1A41 JUMP JUMPDEST JUMPDEST DUP2 CALLDATALOAD PUSH2 0x1E51 DUP5 DUP3 PUSH1 0x20 DUP7 ADD PUSH2 0x1DEA JUMP JUMPDEST SWAP2 POP POP SWAP3 SWAP2 POP POP JUMP JUMPDEST PUSH1 0x0 DUP1 PUSH1 0x0 DUP1 PUSH1 0x0 PUSH1 0xA0 DUP7 DUP9 SUB SLT ISZERO PUSH2 0x1E76 JUMPI PUSH2 0x1E75 PUSH2 0x187E JUMP JUMPDEST JUMPDEST PUSH1 0x0 PUSH2 0x1E84 DUP9 DUP3 DUP10 ADD PUSH2 0x18D1 JUMP JUMPDEST SWAP6 POP POP PUSH1 0x20 PUSH2 0x1E95 DUP9 DUP3 DUP10 ADD PUSH2 0x18D1 JUMP JUMPDEST SWAP5 POP POP PUSH1 0x40 DUP7 ADD CALLDATALOAD PUSH8 0xFFFFFFFFFFFFFFFF DUP2 GT ISZERO PUSH2 0x1EB6 JUMPI PUSH2 0x1EB5 PUSH2 0x1883 JUMP JUMPDEST JUMPDEST PUSH2 0x1EC2 DUP9 DUP3 DUP10 ADD PUSH2 0x1D8B JUMP JUMPDEST SWAP4 POP POP PUSH1 0x60 DUP7 ADD CALLDATALOAD PUSH8 0xFFFFFFFFFFFFFFFF DUP2 GT ISZERO PUSH2 0x1EE3 JUMPI PUSH2 0x1EE2 PUSH2 0x1883 JUMP JUMPDEST JUMPDEST PUSH2 0x1EEF DUP9 DUP3 DUP10 ADD PUSH2 0x1D8B JUMP JUMPDEST SWAP3 POP POP PUSH1 0x80 DUP7 ADD CALLDATALOAD PUSH8 0xFFFFFFFFFFFFFFFF DUP2 GT ISZERO PUSH2 0x1F10 JUMPI PUSH2 0x1F0F PUSH2 0x1883 JUMP JUMPDEST JUMPDEST PUSH2 0x1F1C DUP9 DUP3 DUP10 ADD PUSH2 0x1E2C JUMP JUMPDEST SWAP2 POP POP SWAP3 SWAP6 POP SWAP3 SWAP6 SWAP1 SWAP4 POP JUMP JUMPDEST PUSH1 0x0 PUSH8 0xFFFFFFFFFFFFFFFF DUP3 GT ISZERO PUSH2 0x1F44 JUMPI PUSH2 0x1F43 PUSH2 0x1A5C JUMP JUMPDEST JUMPDEST PUSH1 0x20 DUP3 MUL SWAP1 POP PUSH1 0x20 DUP2 ADD SWAP1 POP SWAP2 SWAP1 POP JUMP JUMPDEST PUSH1 0x0 PUSH2 0x1F68 PUSH2 0x1F63 DUP5 PUSH2 0x1F29 JUMP JUMPDEST PUSH2 0x1ABC JUMP JUMPDEST SWAP1 POP DUP1 DUP4 DUP3 MSTORE PUSH1 0x20 DUP3 ADD SWAP1 POP PUSH1 0x20 DUP5 MUL DUP4 ADD DUP6 DUP2 GT ISZERO PUSH2 0x1F8B JUMPI PUSH2 0x1F8A PUSH2 0x1D1D JUMP JUMPDEST JUMPDEST DUP4 JUMPDEST DUP2 DUP2 LT ISZERO PUSH2 0x1FB4 JUMPI DUP1 PUSH2 0x1FA0 DUP9 DUP3 PUSH2 0x18D1 JUMP JUMPDEST DUP5 MSTORE PUSH1 0x20 DUP5 ADD SWAP4 POP POP PUSH1 0x20 DUP2 ADD SWAP1 POP PUSH2 0x1F8D JUMP JUMPDEST POP POP POP SWAP4 SWAP3 POP POP POP JUMP JUMPDEST PUSH1 0x0 DUP3 PUSH1 0x1F DUP4 ADD SLT PUSH2 0x1FD3 JUMPI PUSH2 0x1FD2 PUSH2 0x1A41 JUMP JUMPDEST JUMPDEST DUP2 CALLDATALOAD PUSH2 0x1FE3 DUP5 DUP3 PUSH1 0x20 DUP7 ADD PUSH2 0x1F55 JUMP JUMPDEST SWAP2 POP POP SWAP3 SWAP2 POP POP JUMP JUMPDEST PUSH1 0x0 DUP1 PUSH1 0x40 DUP4 DUP6 SUB SLT ISZERO PUSH2 0x2003 JUMPI PUSH2 0x2002 PUSH2 0x187E JUMP JUMPDEST JUMPDEST PUSH1 0x0 DUP4 ADD CALLDATALOAD PUSH8 0xFFFFFFFFFFFFFFFF DUP2 GT ISZERO PUSH2 0x2021 JUMPI PUSH2 0x2020 PUSH2 0x1883 JUMP JUMPDEST JUMPDEST PUSH2 0x202D DUP6 DUP3 DUP7 ADD PUSH2 0x1FBE JUMP JUMPDEST SWAP3 POP POP PUSH1 0x20 DUP4 ADD CALLDATALOAD PUSH8 0xFFFFFFFFFFFFFFFF DUP2 GT ISZERO PUSH2 0x204E JUMPI PUSH2 0x204D PUSH2 0x1883 JUMP JUMPDEST JUMPDEST PUSH2 0x205A DUP6 DUP3 DUP7 ADD PUSH2 0x1D8B JUMP JUMPDEST SWAP2 POP POP SWAP3 POP SWAP3 SWAP1 POP JUMP JUMPDEST PUSH1 0x0 DUP2 MLOAD SWAP1 POP SWAP2 SWAP1 POP JUMP JUMPDEST PUSH1 0x0 DUP3 DUP3 MSTORE PUSH1 0x20 DUP3 ADD SWAP1 POP SWAP3 SWAP2 POP POP JUMP JUMPDEST PUSH1 0x0 DUP2 SWAP1 POP PUSH1 0x20 DUP3 ADD SWAP1 POP SWAP2 SWAP1 POP JUMP JUMPDEST PUSH2 0x2099 DUP2 PUSH2 0x18E6 JUMP JUMPDEST DUP3 MSTORE POP POP JUMP JUMPDEST PUSH1 0x0 PUSH2 0x20AB DUP4 DUP4 PUSH2 0x2090 JUMP JUMPDEST PUSH1 0x20 DUP4 ADD SWAP1 POP SWAP3 SWAP2 POP POP JUMP JUMPDEST PUSH1 0x0 PUSH1 0x20 DUP3 ADD SWAP1 POP SWAP2 SWAP1 POP JUMP JUMPDEST PUSH1 0x0 PUSH2 0x20CF DUP3 PUSH2 0x2064 JUMP JUMPDEST PUSH2 0x20D9 DUP2 DUP6 PUSH2 0x206F JUMP JUMPDEST SWAP4 POP PUSH2 0x20E4 DUP4 PUSH2 0x2080 JUMP JUMPDEST DUP1 PUSH1 0x0 JUMPDEST DUP4 DUP2 LT ISZERO PUSH2 0x2115 JUMPI DUP2 MLOAD PUSH2 0x20FC DUP9 DUP3 PUSH2 0x209F JUMP JUMPDEST SWAP8 POP PUSH2 0x2107 DUP4 PUSH2 0x20B7 JUMP JUMPDEST SWAP3 POP POP PUSH1 0x1 DUP2 ADD SWAP1 POP PUSH2 0x20E8 JUMP JUMPDEST POP DUP6 SWAP4 POP POP POP POP SWAP3 SWAP2 POP POP JUMP JUMPDEST PUSH1 0x0 PUSH1 0x20 DUP3 ADD SWAP1 POP DUP2 DUP2 SUB PUSH1 0x0 DUP4 ADD MSTORE PUSH2 0x213C DUP2 DUP5 PUSH2 0x20C4 JUMP JUMPDEST SWAP1 POP SWAP3 SWAP2 POP POP JUMP JUMPDEST PUSH2 0x214D DUP2 PUSH2 0x18A8 JUMP JUMPDEST DUP3 MSTORE POP POP JUMP JUMPDEST PUSH1 0x0 PUSH1 0x20 DUP3 ADD SWAP1 POP PUSH2 0x2168 PUSH1 0x0 DUP4 ADD DUP5 PUSH2 0x2144 JUMP JUMPDEST SWAP3 SWAP2 POP POP JUMP JUMPDEST PUSH2 0x2177 DUP2 PUSH2 0x1A0B JUMP JUMPDEST DUP2 EQ PUSH2 0x2182 JUMPI PUSH1 0x0 DUP1 REVERT JUMPDEST POP JUMP JUMPDEST PUSH1 0x0 DUP2 CALLDATALOAD SWAP1 POP PUSH2 0x2194 DUP2 PUSH2 0x216E JUMP JUMPDEST SWAP3 SWAP2 POP POP JUMP JUMPDEST PUSH1 0x0 DUP1 PUSH1 0x40 DUP4 DUP6 SUB SLT ISZERO PUSH2 0x21B1 JUMPI PUSH2 0x21B0 PUSH2 0x187E JUMP JUMPDEST JUMPDEST PUSH1 0x0 PUSH2 0x21BF DUP6 DUP3 DUP7 ADD PUSH2 0x18D1 JUMP JUMPDEST SWAP3 POP POP PUSH1 0x20 PUSH2 0x21D0 DUP6 DUP3 DUP7 ADD PUSH2 0x2185 JUMP JUMPDEST SWAP2 POP POP SWAP3 POP SWAP3 SWAP1 POP JUMP JUMPDEST PUSH1 0x0 DUP1 PUSH1 0x40 DUP4 DUP6 SUB SLT ISZERO PUSH2 0x21F1 JUMPI PUSH2 0x21F0 PUSH2 0x187E JUMP JUMPDEST JUMPDEST PUSH1 0x0 PUSH2 0x21FF DUP6 DUP3 DUP7 ADD PUSH2 0x18D1 JUMP JUMPDEST SWAP3 POP POP PUSH1 0x20 PUSH2 0x2210 DUP6 DUP3 DUP7 ADD PUSH2 0x18D1 JUMP JUMPDEST SWAP2 POP POP SWAP3 POP SWAP3 SWAP1 POP JUMP JUMPDEST PUSH1 0x0 DUP1 PUSH1 0x0 DUP1 PUSH1 0x0 PUSH1 0xA0 DUP7 DUP9 SUB SLT ISZERO PUSH2 0x2236 JUMPI PUSH2 0x2235 PUSH2 0x187E JUMP JUMPDEST JUMPDEST PUSH1 0x0 PUSH2 0x2244 DUP9 DUP3 DUP10 ADD PUSH2 0x18D1 JUMP JUMPDEST SWAP6 POP POP PUSH1 0x20 PUSH2 0x2255 DUP9 DUP3 DUP10 ADD PUSH2 0x18D1 JUMP JUMPDEST SWAP5 POP POP PUSH1 0x40 PUSH2 0x2266 DUP9 DUP3 DUP10 ADD PUSH2 0x1907 JUMP JUMPDEST SWAP4 POP POP PUSH1 0x60 PUSH2 0x2277 DUP9 DUP3 DUP10 ADD PUSH2 0x1907 JUMP JUMPDEST SWAP3 POP POP PUSH1 0x80 DUP7 ADD CALLDATALOAD PUSH8 0xFFFFFFFFFFFFFFFF DUP2 GT ISZERO PUSH2 0x2298 JUMPI PUSH2 0x2297 PUSH2 0x1883 JUMP JUMPDEST JUMPDEST PUSH2 0x22A4 DUP9 DUP3 DUP10 ADD PUSH2 0x1E2C JUMP JUMPDEST SWAP2 POP POP SWAP3 SWAP6 POP SWAP3 SWAP6 SWAP1 SWAP4 POP JUMP JUMPDEST PUSH1 0x0 PUSH1 0x20 DUP3 DUP5 SUB SLT ISZERO PUSH2 0x22C7 JUMPI PUSH2 0x22C6 PUSH2 0x187E JUMP JUMPDEST JUMPDEST PUSH1 0x0 PUSH2 0x22D5 DUP5 DUP3 DUP6 ADD PUSH2 0x18D1 JUMP JUMPDEST SWAP2 POP POP SWAP3 SWAP2 POP POP JUMP JUMPDEST PUSH32 0x4E487B7100000000000000000000000000000000000000000000000000000000 PUSH1 0x0 MSTORE PUSH1 0x22 PUSH1 0x4 MSTORE PUSH1 0x24 PUSH1 0x0 REVERT JUMPDEST PUSH1 0x0 PUSH1 0x2 DUP3 DIV SWAP1 POP PUSH1 0x1 DUP3 AND DUP1 PUSH2 0x2325 JUMPI PUSH1 0x7F DUP3 AND SWAP2 POP JUMPDEST PUSH1 0x20 DUP3 LT DUP2 SUB PUSH2 0x2338 JUMPI PUSH2 0x2337 PUSH2 0x22DE JUMP JUMPDEST JUMPDEST POP SWAP2 SWAP1 POP JUMP JUMPDEST PUSH1 0x0 DUP2 SWAP1 POP DUP2 PUSH1 0x0 MSTORE PUSH1 0x20 PUSH1 0x0 KECCAK256 SWAP1 POP SWAP2 SWAP1 POP JUMP JUMPDEST PUSH1 0x0 PUSH1 0x20 PUSH1 0x1F DUP4 ADD DIV SWAP1 POP SWAP2 SWAP1 POP JUMP JUMPDEST PUSH1 0x0 DUP3 DUP3 SHL SWAP1 POP SWAP3 SWAP2 POP POP JUMP JUMPDEST PUSH1 0x0 PUSH1 0x8 DUP4 MUL PUSH2 0x23A0 PUSH32 0xFFFFFFFFFFFFFFFFFFFFFFFFFFFFFFFFFFFFFFFFFFFFFFFFFFFFFFFFFFFFFFFF DUP3 PUSH2 0x2363 JUMP JUMPDEST PUSH2 0x23AA DUP7 DUP4 PUSH2 0x2363 JUMP JUMPDEST SWAP6 POP DUP1 NOT DUP5 AND SWAP4 POP DUP1 DUP7 AND DUP5 OR SWAP3 POP POP POP SWAP4 SWAP3 POP POP POP JUMP JUMPDEST PUSH1 0x0 DUP2 SWAP1 POP SWAP2 SWAP1 POP JUMP JUMPDEST PUSH1 0x0 PUSH2 0x23E7 PUSH2 0x23E2 PUSH2 0x23DD DUP5 PUSH2 0x18E6 JUMP JUMPDEST PUSH2 0x23C2 JUMP JUMPDEST PUSH2 0x18E6 JUMP JUMPDEST SWAP1 POP SWAP2 SWAP1 POP JUMP JUMPDEST PUSH1 0x0 DUP2 SWAP1 POP SWAP2 SWAP1 POP JUMP JUMPDEST PUSH2 0x2401 DUP4 PUSH2 0x23CC JUMP JUMPDEST PUSH2 0x2415 PUSH2 0x240D DUP3 PUSH2 0x23EE JUMP JUMPDEST DUP5 DUP5 SLOAD PUSH2 0x2370 JUMP JUMPDEST DUP3 SSTORE POP POP POP POP JUMP JUMPDEST PUSH1 0x0 SWAP1 JUMP JUMPDEST PUSH2 0x242A PUSH2 0x241D JUMP JUMPDEST PUSH2 0x2435 DUP2 DUP5 DUP5 PUSH2 0x23F8 JUMP JUMPDEST POP POP POP JUMP JUMPDEST JUMPDEST DUP2 DUP2 LT ISZERO PUSH2 0x2459 JUMPI PUSH2 0x244E PUSH1 0x0 DUP3 PUSH2 0x2422 JUMP JUMPDEST PUSH1 0x1 DUP2 ADD SWAP1 POP PUSH2 0x243B JUMP JUMPDEST POP POP JUMP JUMPDEST PUSH1 0x1F DUP3 GT ISZERO PUSH2 0x249E JUMPI PUSH2 0x246F DUP2 PUSH2 0x233E JUMP JUMPDEST PUSH2 0x2478 DUP5 PUSH2 0x2353 JUMP JUMPDEST DUP2 ADD PUSH1 0x20 DUP6 LT ISZERO PUSH2 0x2487 JUMPI DUP2 SWAP1 POP JUMPDEST PUSH2 0x249B PUSH2 0x2493 DUP6 PUSH2 0x2353 JUMP JUMPDEST DUP4 ADD DUP3 PUSH2 0x243A JUMP JUMPDEST POP POP JUMPDEST POP POP POP JUMP JUMPDEST PUSH1 0x0 DUP3 DUP3 SHR SWAP1 POP SWAP3 SWAP2 POP POP JUMP JUMPDEST PUSH1 0x0 PUSH2 0x24C1 PUSH1 0x0 NOT DUP5 PUSH1 0x8 MUL PUSH2 0x24A3 JUMP JUMPDEST NOT DUP1 DUP4 AND SWAP2 POP POP SWAP3 SWAP2 POP POP JUMP JUMPDEST PUSH1 0x0 PUSH2 0x24DA DUP4 DUP4 PUSH2 0x24B0 JUMP JUMPDEST SWAP2 POP DUP3 PUSH1 0x2 MUL DUP3 OR SWAP1 POP SWAP3 SWAP2 POP POP JUMP JUMPDEST PUSH2 0x24F3 DUP3 PUSH2 0x1BFD JUMP JUMPDEST PUSH8 0xFFFFFFFFFFFFFFFF DUP2 GT ISZERO PUSH2 0x250C JUMPI PUSH2 0x250B PUSH2 0x1A5C JUMP JUMPDEST JUMPDEST PUSH2 0x2516 DUP3 SLOAD PUSH2 0x230D JUMP JUMPDEST PUSH2 0x2521 DUP3 DUP3 DUP6 PUSH2 0x245D JUMP JUMPDEST PUSH1 0x0 PUSH1 0x20 SWAP1 POP PUSH1 0x1F DUP4 GT PUSH1 0x1 DUP2 EQ PUSH2 0x2554 JUMPI PUSH1 0x0 DUP5 ISZERO PUSH2 0x2542 JUMPI DUP3 DUP8 ADD MLOAD SWAP1 POP JUMPDEST PUSH2 0x254C DUP6 DUP3 PUSH2 0x24CE JUMP JUMPDEST DUP7 SSTORE POP PUSH2 0x25B4 JUMP JUMPDEST PUSH1 0x1F NOT DUP5 AND PUSH2 0x2562 DUP7 PUSH2 0x233E JUMP JUMPDEST PUSH1 0x0 JUMPDEST DUP3 DUP2 LT ISZERO PUSH2 0x258A JUMPI DUP5 DUP10 ADD MLOAD DUP3 SSTORE PUSH1 0x1 DUP3 ADD SWAP2 POP PUSH1 0x20 DUP6 ADD SWAP5 POP PUSH1 0x20 DUP2 ADD SWAP1 POP PUSH2 0x2565 JUMP JUMPDEST DUP7 DUP4 LT ISZERO PUSH2 0x25A7 JUMPI DUP5 DUP10 ADD MLOAD PUSH2 0x25A3 PUSH1 0x1F DUP10 AND DUP3 PUSH2 0x24B0 JUMP JUMPDEST DUP4 SSTORE POP JUMPDEST PUSH1 0x1 PUSH1 0x2 DUP9 MUL ADD DUP9 SSTORE POP POP POP JUMPDEST POP POP POP POP POP POP JUMP JUMPDEST PUSH1 0x0 DUP2 SWAP1 POP SWAP3 SWAP2 POP POP JUMP JUMPDEST PUSH1 0x0 DUP2 SLOAD PUSH2 0x25D4 DUP2 PUSH2 0x230D JUMP JUMPDEST PUSH2 0x25DE DUP2 DUP7 PUSH2 0x25BC JUMP JUMPDEST SWAP5 POP PUSH1 0x1 DUP3 AND PUSH1 0x0 DUP2 EQ PUSH2 0x25F9 JUMPI PUSH1 0x1 DUP2 EQ PUSH2 0x260E JUMPI PUSH2 0x2641 JUMP JUMPDEST PUSH1 0xFF NOT DUP4 AND DUP7 MSTORE DUP2 ISZERO ISZERO DUP3 MUL DUP7 ADD SWAP4 POP PUSH2 0x2641 JUMP JUMPDEST PUSH2 0x2617 DUP6 PUSH2 0x233E JUMP JUMPDEST PUSH1 0x0 JUMPDEST DUP4 DUP2 LT ISZERO PUSH2 0x2639 JUMPI DUP2 SLOAD DUP2 DUP10 ADD MSTORE PUSH1 0x1 DUP3 ADD SWAP2 POP PUSH1 0x20 DUP2 ADD SWAP1 POP PUSH2 0x261A JUMP JUMPDEST DUP4 DUP9 ADD SWAP6 POP POP POP JUMPDEST POP POP POP SWAP3 SWAP2 POP POP JUMP JUMPDEST PUSH1 0x0 PUSH2 0x2655 DUP3 PUSH2 0x1BFD JUMP JUMPDEST PUSH2 0x265F DUP2 DUP6 PUSH2 0x25BC JUMP JUMPDEST SWAP4 POP PUSH2 0x266F DUP2 DUP6 PUSH1 0x20 DUP7 ADD PUSH2 0x1C19 JUMP JUMPDEST DUP1 DUP5 ADD SWAP2 POP POP SWAP3 SWAP2 POP POP JUMP JUMPDEST PUSH32 0x2E6A736F6E000000000000000000000000000000000000000000000000000000 PUSH1 0x0 DUP3 ADD MSTORE POP JUMP JUMPDEST PUSH1 0x0 PUSH2 0x26B1 PUSH1 0x5 DUP4 PUSH2 0x25BC JUMP JUMPDEST SWAP2 POP PUSH2 0x26BC DUP3 PUSH2 0x267B JUMP JUMPDEST PUSH1 0x5 DUP3 ADD SWAP1 POP SWAP2 SWAP1 POP JUMP JUMPDEST PUSH1 0x0 PUSH2 0x26D3 DUP3 DUP6 PUSH2 0x25C7 JUMP JUMPDEST SWAP2 POP PUSH2 0x26DF DUP3 DUP5 PUSH2 0x264A JUMP JUMPDEST SWAP2 POP PUSH2 0x26EA DUP3 PUSH2 0x26A4 JUMP JUMPDEST SWAP2 POP DUP2 SWAP1 POP SWAP4 SWAP3 POP POP POP JUMP JUMPDEST PUSH1 0x0 PUSH1 0x40 DUP3 ADD SWAP1 POP PUSH2 0x270B PUSH1 0x0 DUP4 ADD DUP6 PUSH2 0x2144 JUMP JUMPDEST PUSH2 0x2718 PUSH1 0x20 DUP4 ADD DUP5 PUSH2 0x2144 JUMP JUMPDEST SWAP4 SWAP3 POP POP POP JUMP JUMPDEST PUSH1 0x0 PUSH1 0x40 DUP3 ADD SWAP1 POP PUSH2 0x2734 PUSH1 0x0 DUP4 ADD DUP6 PUSH2 0x195C JUMP JUMPDEST PUSH2 0x2741 PUSH1 0x20 DUP4 ADD DUP5 PUSH2 0x195C JUMP JUMPDEST SWAP4 SWAP3 POP POP POP JUMP JUMPDEST PUSH32 0x4E487B7100000000000000000000000000000000000000000000000000000000 PUSH1 0x0 MSTORE PUSH1 0x32 PUSH1 0x4 MSTORE PUSH1 0x24 PUSH1 0x0 REVERT JUMPDEST PUSH32 0x636F6C6C656374696F6E2E6A736F6E0000000000000000000000000000000000 PUSH1 0x0 DUP3 ADD MSTORE POP JUMP JUMPDEST PUSH1 0x0 PUSH2 0x27AD PUSH1 0xF DUP4 PUSH2 0x25BC JUMP JUMPDEST SWAP2 POP PUSH2 0x27B8 DUP3 PUSH2 0x2777 JUMP JUMPDEST PUSH1 0xF DUP3 ADD SWAP1 POP SWAP2 SWAP1 POP JUMP JUMPDEST PUSH1 0x0 PUSH2 0x27CF DUP3 DUP5 PUSH2 0x25C7 JUMP JUMPDEST SWAP2 POP PUSH2 0x27DA DUP3 PUSH2 0x27A0 JUMP JUMPDEST SWAP2 POP DUP2 SWAP1 POP SWAP3 SWAP2 POP POP JUMP JUMPDEST PUSH32 0x4E487B7100000000000000000000000000000000000000000000000000000000 PUSH1 0x0 MSTORE PUSH1 0x12 PUSH1 0x4 MSTORE PUSH1 0x24 PUSH1 0x0 REVERT JUMPDEST PUSH1 0x0 PUSH1 0x80 DUP3 ADD SWAP1 POP PUSH2 0x2829 PUSH1 0x0 DUP4 ADD DUP8 PUSH2 0x2144 JUMP JUMPDEST PUSH2 0x2836 PUSH1 0x20 DUP4 ADD DUP7 PUSH2 0x195C JUMP JUMPDEST PUSH2 0x2843 PUSH1 0x40 DUP4 ADD DUP6 PUSH2 0x195C JUMP JUMPDEST PUSH2 0x2850 PUSH1 0x60 DUP4 ADD DUP5 PUSH2 0x195C JUMP JUMPDEST SWAP6 SWAP5 POP POP POP POP POP JUMP JUMPDEST PUSH32 0x4E487B7100000000000000000000000000000000000000000000000000000000 PUSH1 0x0 MSTORE PUSH1 0x11 PUSH1 0x4 MSTORE PUSH1 0x24 PUSH1 0x0 REVERT JUMPDEST PUSH1 0x0 PUSH2 0x2893 DUP3 PUSH2 0x18E6 JUMP JUMPDEST SWAP2 POP PUSH2 0x289E DUP4 PUSH2 0x18E6 JUMP JUMPDEST SWAP3 POP DUP3 DUP3 ADD SWAP1 POP DUP1 DUP3 GT ISZERO PUSH2 0x28B6 JUMPI PUSH2 0x28B5 PUSH2 0x2859 JUMP JUMPDEST JUMPDEST SWAP3 SWAP2 POP POP JUMP JUMPDEST PUSH1 0x0 PUSH1 0x40 DUP3 ADD SWAP1 POP DUP2 DUP2 SUB PUSH1 0x0 DUP4 ADD MSTORE PUSH2 0x28D6 DUP2 DUP6 PUSH2 0x20C4 JUMP JUMPDEST SWAP1 POP DUP2 DUP2 SUB PUSH1 0x20 DUP4 ADD MSTORE PUSH2 0x28EA DUP2 DUP5 PUSH2 0x20C4 JUMP JUMPDEST SWAP1 POP SWAP4 SWAP3 POP POP POP JUMP JUMPDEST PUSH1 0x0 DUP2 MLOAD SWAP1 POP SWAP2 SWAP1 POP JUMP JUMPDEST PUSH1 0x0 DUP3 DUP3 MSTORE PUSH1 0x20 DUP3 ADD SWAP1 POP SWAP3 SWAP2 POP POP JUMP JUMPDEST PUSH1 0x0 PUSH2 0x291A DUP3 PUSH2 0x28F3 JUMP JUMPDEST PUSH2 0x2924 DUP2 DUP6 PUSH2 0x28FE JUMP JUMPDEST SWAP4 POP PUSH2 0x2934 DUP2 DUP6 PUSH1 0x20 DUP7 ADD PUSH2 0x1C19 JUMP JUMPDEST PUSH2 0x293D DUP2 PUSH2 0x1A4B JUMP JUMPDEST DUP5 ADD SWAP2 POP POP SWAP3 SWAP2 POP POP JUMP JUMPDEST PUSH1 0x0 PUSH1 0xA0 DUP3 ADD SWAP1 POP PUSH2 0x295D PUSH1 0x0 DUP4 ADD DUP9 PUSH2 0x2144 JUMP JUMPDEST PUSH2 0x296A PUSH1 0x20 DUP4 ADD DUP8 PUSH2 0x2144 JUMP JUMPDEST PUSH2 0x2977 PUSH1 0x40 DUP4 ADD DUP7 PUSH2 0x195C JUMP JUMPDEST PUSH2 0x2984 PUSH1 0x60 DUP4 ADD DUP6 PUSH2 0x195C JUMP JUMPDEST DUP2 DUP2 SUB PUSH1 0x80 DUP4 ADD MSTORE PUSH2 0x2996 DUP2 DUP5 PUSH2 0x290F JUMP JUMPDEST SWAP1 POP SWAP7 SWAP6 POP POP POP POP POP POP JUMP JUMPDEST PUSH1 0x0 DUP2 MLOAD SWAP1 POP PUSH2 0x29B1 DUP2 PUSH2 0x19B2 JUMP JUMPDEST SWAP3 SWAP2 POP POP JUMP JUMPDEST PUSH1 0x0 PUSH1 0x20 DUP3 DUP5 SUB SLT ISZERO PUSH2 0x29CD JUMPI PUSH2 0x29CC PUSH2 0x187E JUMP JUMPDEST JUMPDEST PUSH1 0x0 PUSH2 0x29DB DUP5 DUP3 DUP6 ADD PUSH2 0x29A2 JUMP JUMPDEST SWAP2 POP POP SWAP3 SWAP2 POP POP JUMP JUMPDEST PUSH1 0x0 PUSH1 0xA0 DUP3 ADD SWAP1 POP PUSH2 0x29F9 PUSH1 0x0 DUP4 ADD DUP9 PUSH2 0x2144 JUMP JUMPDEST PUSH2 0x2A06 PUSH1 0x20 DUP4 ADD DUP8 PUSH2 0x2144 JUMP JUMPDEST DUP2 DUP2 SUB PUSH1 0x40 DUP4 ADD MSTORE PUSH2 0x2A18 DUP2 DUP7 PUSH2 0x20C4 JUMP JUMPDEST SWAP1 POP DUP2 DUP2 SUB PUSH1 0x60 DUP4 ADD MSTORE PUSH2 0x2A2C DUP2 DUP6 PUSH2 0x20C4 JUMP JUMPDEST SWAP1 POP DUP2 DUP2 SUB PUSH1 0x80 DUP4 ADD MSTORE PUSH2 0x2A40 DUP2 DUP5 PUSH2 0x290F JUMP JUMPDEST SWAP1 POP SWAP7 SWAP6 POP POP POP POP POP POP JUMP INVALID LOG2 PUSH5 0x6970667358 0x22 SLT KECCAK256 0xC2 PUSH22 0x9E2B35234CF822EE0EFABCD88B38A35AA672A8CB69CD 0xEC 0xB9 PUSH23 0xB2A31CB6C364736F6C634300081C003300000000000000 "},"methodIdentifiers":{"balanceOf(address,uint256)":"00fdd58e","balanceOfBatch(address[],uint256[])":"4e1273f4","contractURI()":"e8a3d485","isApprovedForAll(address,address)":"e985e9c5","mint(address,uint256,uint256)":"156e29f6","owner()":"8da5cb5b","renounceOwnership()":"715018a6","safeBatchTransferFrom(address,address,uint256[],uint256[],bytes)":"2eb2c2d6","safeTransferFrom(address,address,uint256,uint256,bytes)":"f242432a","setApprovalForAll(address,bool)":"a22cb465","setURI(string)":"02fe5305","supportsInterface(bytes4)":"01ffc9a7","transferOwnership(address)":"f2fde38b","uri(uint256)":"0e89341c"}}}}}